{
  "contractName": "Book",
  "abi": [
    {
      "inputs": [
        {
          "internalType": "address payable",
          "name": "_arbiter",
          "type": "address"
        },
        {
          "internalType": "address payable",
          "name": "_seller",
          "type": "address"
        },
        {
          "internalType": "string",
          "name": "_bookTitle",
          "type": "string"
        },
        {
          "internalType": "bool",
          "name": "ePfd",
          "type": "bool"
        },
        {
          "internalType": "string",
          "name": "_hash",
          "type": "string"
        },
        {
          "internalType": "uint256",
          "name": "_price",
          "type": "uint256"
        }
      ],
      "stateMutability": "nonpayable",
      "type": "constructor"
    },
    {
      "anonymous": false,
      "inputs": [
        {
          "indexed": false,
          "internalType": "uint256",
          "name": "_amount",
          "type": "uint256"
        }
      ],
      "name": "BuyerRefunded",
      "type": "event"
    },
    {
      "anonymous": false,
      "inputs": [
        {
          "indexed": false,
          "internalType": "uint256",
          "name": "_timestamp",
          "type": "uint256"
        }
      ],
      "name": "ContractNull",
      "type": "event"
    },
    {
      "anonymous": false,
      "inputs": [
        {
          "indexed": false,
          "internalType": "uint256",
          "name": "_amount",
          "type": "uint256"
        }
      ],
      "name": "FundingReceived",
      "type": "event"
    },
    {
      "anonymous": false,
      "inputs": [
        {
          "indexed": false,
          "internalType": "uint256",
          "name": "_amount",
          "type": "uint256"
        }
      ],
      "name": "SellerPaid",
      "type": "event"
    },
    {
      "stateMutability": "payable",
      "type": "fallback"
    },
    {
      "inputs": [],
      "name": "amountInEth",
      "outputs": [
        {
          "internalType": "uint256",
          "name": "",
          "type": "uint256"
        }
      ],
      "stateMutability": "view",
      "type": "function"
    },
    {
      "inputs": [],
      "name": "balance",
      "outputs": [
        {
          "internalType": "uint256",
          "name": "",
          "type": "uint256"
        }
      ],
      "stateMutability": "view",
      "type": "function"
    },
    {
      "inputs": [],
      "name": "checkTime",
      "outputs": [
        {
          "internalType": "bool",
          "name": "",
          "type": "bool"
        }
      ],
      "stateMutability": "nonpayable",
      "type": "function"
    },
    {
      "inputs": [
        {
          "internalType": "uint256",
          "name": "_amount",
          "type": "uint256"
        }
      ],
      "name": "convertAmount",
      "outputs": [
        {
          "internalType": "uint256",
          "name": "",
          "type": "uint256"
        }
      ],
      "stateMutability": "pure",
      "type": "function"
    },
    {
      "inputs": [],
      "name": "end_time",
      "outputs": [
        {
          "internalType": "uint256",
          "name": "",
          "type": "uint256"
        }
      ],
      "stateMutability": "view",
      "type": "function"
    },
    {
      "inputs": [],
      "name": "fund",
      "outputs": [],
      "stateMutability": "payable",
      "type": "function"
    },
    {
      "inputs": [],
      "name": "getPrice",
      "outputs": [
        {
          "internalType": "uint256",
          "name": "",
          "type": "uint256"
        }
      ],
      "stateMutability": "view",
      "type": "function"
    },
    {
      "inputs": [],
      "name": "getSeller",
      "outputs": [
        {
          "internalType": "address",
          "name": "",
          "type": "address"
        }
      ],
      "stateMutability": "view",
      "type": "function"
    },
    {
      "inputs": [],
      "name": "getbuyer",
      "outputs": [
        {
          "internalType": "address",
          "name": "",
          "type": "address"
        }
      ],
      "stateMutability": "view",
      "type": "function"
    },
    {
      "inputs": [],
      "name": "kill",
      "outputs": [],
      "stateMutability": "nonpayable",
      "type": "function"
    },
    {
      "inputs": [
        {
          "internalType": "uint256",
          "name": "_amount",
          "type": "uint256"
        }
      ],
      "name": "payoutToSeller",
      "outputs": [],
      "stateMutability": "nonpayable",
      "type": "function"
    },
    {
      "inputs": [],
      "name": "refundBuyer",
      "outputs": [],
      "stateMutability": "nonpayable",
      "type": "function"
    },
    {
      "inputs": [
        {
          "internalType": "address payable",
          "name": "_buyer",
          "type": "address"
        }
      ],
      "name": "setBuyer",
      "outputs": [],
      "stateMutability": "nonpayable",
      "type": "function"
    },
    {
      "inputs": [
        {
          "internalType": "uint256",
          "name": "_amountInWei",
          "type": "uint256"
        }
      ],
      "name": "setPrice",
      "outputs": [],
      "stateMutability": "nonpayable",
      "type": "function"
    },
    {
      "inputs": [
        {
          "internalType": "address payable",
          "name": "_seller",
          "type": "address"
        }
      ],
      "name": "setSeller",
      "outputs": [],
      "stateMutability": "nonpayable",
      "type": "function"
    },
    {
      "inputs": [],
      "name": "validate",
      "outputs": [],
      "stateMutability": "payable",
      "type": "function"
    },
    {
      "stateMutability": "payable",
      "type": "receive"
    },
    {
      "inputs": [
        {
          "internalType": "string",
          "name": "_title",
          "type": "string"
        }
      ],
      "name": "setTitle",
      "outputs": [],
      "stateMutability": "nonpayable",
      "type": "function"
    },
    {
      "inputs": [],
      "name": "getTitle",
      "outputs": [
        {
          "internalType": "string",
          "name": "",
          "type": "string"
        }
      ],
      "stateMutability": "view",
      "type": "function"
    },
    {
      "inputs": [
        {
          "internalType": "string",
          "name": "_hash",
          "type": "string"
        }
      ],
      "name": "setHash",
      "outputs": [],
      "stateMutability": "nonpayable",
      "type": "function"
    },
    {
      "inputs": [],
      "name": "getHash",
      "outputs": [
        {
          "internalType": "string",
          "name": "",
          "type": "string"
        }
      ],
      "stateMutability": "view",
      "type": "function"
    },
    {
      "inputs": [
        {
          "internalType": "bool",
          "name": "_phys",
          "type": "bool"
        }
      ],
      "name": "setPhysical",
      "outputs": [],
      "stateMutability": "nonpayable",
      "type": "function"
    },
    {
      "inputs": [],
      "name": "getPhysical",
      "outputs": [
        {
          "internalType": "bool",
          "name": "",
          "type": "bool"
        }
      ],
      "stateMutability": "view",
      "type": "function"
    }
  ],
  "bytecode": "0x6080604052633b9aca00600555633b9aca006006556001600755600060085560006009553480156200003057600080fd5b5060405162001d8838038062001d8883398181016040528101906200005691906200047e565b85600260006101000a81548173ffffffffffffffffffffffffffffffffffffffff021916908373ffffffffffffffffffffffffffffffffffffffff16021790555084600160006101000a81548173ffffffffffffffffffffffffffffffffffffffff021916908373ffffffffffffffffffffffffffffffffffffffff16021790555083600a6000019080519060200190620000f392919062000154565b5082600a60010160006101000a81548160ff02191690831515021790555081600a60020190805190602001906200012c92919062000154565b50662386f26fc100008162000142919062000587565b6003819055505050505050506200064d565b828054620001629062000617565b90600052602060002090601f016020900481019282620001865760008555620001d2565b82601f10620001a157805160ff1916838001178555620001d2565b82800160010185558215620001d2579182015b82811115620001d1578251825591602001919060010190620001b4565b5b509050620001e19190620001e5565b5090565b5b8082111562000200576000816000905550600101620001e6565b5090565b6000604051905090565b600080fd5b600080fd5b600073ffffffffffffffffffffffffffffffffffffffff82169050919050565b6000620002458262000218565b9050919050565b620002578162000238565b81146200026357600080fd5b50565b60008151905062000277816200024c565b92915050565b600080fd5b600080fd5b6000601f19601f8301169050919050565b7f4e487b7100000000000000000000000000000000000000000000000000000000600052604160045260246000fd5b620002d28262000287565b810181811067ffffffffffffffff82111715620002f457620002f362000298565b5b80604052505050565b60006200030962000204565b9050620003178282620002c7565b919050565b600067ffffffffffffffff8211156200033a576200033962000298565b5b620003458262000287565b9050602081019050919050565b60005b838110156200037257808201518184015260208101905062000355565b8381111562000382576000848401525b50505050565b60006200039f62000399846200031c565b620002fd565b905082815260208101848484011115620003be57620003bd62000282565b5b620003cb84828562000352565b509392505050565b600082601f830112620003eb57620003ea6200027d565b5b8151620003fd84826020860162000388565b91505092915050565b60008115159050919050565b6200041d8162000406565b81146200042957600080fd5b50565b6000815190506200043d8162000412565b92915050565b6000819050919050565b620004588162000443565b81146200046457600080fd5b50565b60008151905062000478816200044d565b92915050565b60008060008060008060c087890312156200049e576200049d6200020e565b5b6000620004ae89828a0162000266565b9650506020620004c189828a0162000266565b955050604087015167ffffffffffffffff811115620004e557620004e462000213565b5b620004f389828a01620003d3565b94505060606200050689828a016200042c565b935050608087015167ffffffffffffffff8111156200052a576200052962000213565b5b6200053889828a01620003d3565b92505060a06200054b89828a0162000467565b9150509295509295509295565b7f4e487b7100000000000000000000000000000000000000000000000000000000600052601160045260246000fd5b6000620005948262000443565b9150620005a18362000443565b9250817fffffffffffffffffffffffffffffffffffffffffffffffffffffffffffffffff0483118215151615620005dd57620005dc62000558565b5b828202905092915050565b7f4e487b7100000000000000000000000000000000000000000000000000000000600052602260045260246000fd5b600060028204905060018216806200063057607f821691505b60208210811415620006475762000646620005e8565b5b50919050565b61172b806200065d6000396000f3fe6080604052600436106101385760003560e01c8063a3f09ad6116100ab578063dbd0e1b61161006f578063dbd0e1b61461040f578063e0c6190d1461043a578063e8a61cc814610465578063e99d28661461047c578063ea495842146104a5578063ff3c1a8f146104d057610176565b8063a3f09ad61461035d578063b60d428814610386578063b69ef8a814610390578063c83dc3a3146103bb578063d13319c4146103e457610176565b806341c0e1b5116100fd57806341c0e1b5146102945780636901f668146102ab57806372910be0146102b55780638c479925146102de57806391b7f5ed1461030957806398d5fdca1461033257610176565b80622bc52e146101af578063039aec2d146101d8578063149bf50e1461021557806316243356146102405780631ed83fd41461026b57610176565b36610176577fe455499c2acd509bdadebaf5a8fd54c083da31dbe98e785f2a72cdff04e32e004260405161016c919061116a565b60405180910390a1005b7fe455499c2acd509bdadebaf5a8fd54c083da31dbe98e785f2a72cdff04e32e00426040516101a5919061116a565b60405180910390a1005b3480156101bb57600080fd5b506101d660048036038101906101d191906111d1565b6104fb565b005b3480156101e457600080fd5b506101ff60048036038101906101fa919061122a565b6105cd565b60405161020c919061116a565b60405180910390f35b34801561022157600080fd5b5061022a6105e9565b6040516102379190611298565b60405180910390f35b34801561024c57600080fd5b50610255610612565b604051610262919061116a565b60405180910390f35b34801561027757600080fd5b50610292600480360381019061028d91906113f9565b610618565b005b3480156102a057600080fd5b506102a96106e7565b005b6102b3610758565b005b3480156102c157600080fd5b506102dc60048036038101906102d791906113f9565b61091c565b005b3480156102ea57600080fd5b506102f36109eb565b604051610300919061116a565b60405180910390f35b34801561031557600080fd5b50610330600480360381019061032b919061122a565b6109f1565b005b34801561033e57600080fd5b50610347610aad565b604051610354919061116a565b60405180910390f35b34801561036957600080fd5b50610384600480360381019061037f9190611480565b610ab7565b005b61038e610b54565b005b34801561039c57600080fd5b506103a5610c0f565b6040516103b2919061116a565b60405180910390f35b3480156103c757600080fd5b506103e260048036038101906103dd919061122a565b610c15565b005b3480156103f057600080fd5b506103f9610d12565b6040516104069190611535565b60405180910390f35b34801561041b57600080fd5b50610424610da7565b6040516104319190611298565b60405180910390f35b34801561044657600080fd5b5061044f610dd1565b60405161045c9190611566565b60405180910390f35b34801561047157600080fd5b5061047a610e03565b005b34801561048857600080fd5b506104a3600480360381019061049e9190611480565b610f09565b005b3480156104b157600080fd5b506104ba610fff565b6040516104c79190611566565b60405180910390f35b3480156104dc57600080fd5b506104e5611019565b6040516104f29190611535565b60405180910390f35b600260009054906101000a900473ffffffffffffffffffffffffffffffffffffffff1673ffffffffffffffffffffffffffffffffffffffff163373ffffffffffffffffffffffffffffffffffffffff1614806105a45750600160009054906101000a900473ffffffffffffffffffffffffffffffffffffffff1673ffffffffffffffffffffffffffffffffffffffff163373ffffffffffffffffffffffffffffffffffffffff16145b6105ad57600080fd5b80600a60010160006101000a81548160ff02191690831515021790555050565b6000662386f26fc10000826105e291906115b0565b9050919050565b60008060009054906101000a900473ffffffffffffffffffffffffffffffffffffffff16905090565b60095481565b600260009054906101000a900473ffffffffffffffffffffffffffffffffffffffff1673ffffffffffffffffffffffffffffffffffffffff163373ffffffffffffffffffffffffffffffffffffffff1614806106c15750600160009054906101000a900473ffffffffffffffffffffffffffffffffffffffff1673ffffffffffffffffffffffffffffffffffffffff163373ffffffffffffffffffffffffffffffffffffffff16145b6106ca57600080fd5b80600a60020190805190602001906106e39291906110ae565b5050565b600260009054906101000a900473ffffffffffffffffffffffffffffffffffffffff1673ffffffffffffffffffffffffffffffffffffffff163373ffffffffffffffffffffffffffffffffffffffff161415610756573073ffffffffffffffffffffffffffffffffffffffff16ff5b565b600260009054906101000a900473ffffffffffffffffffffffffffffffffffffffff1673ffffffffffffffffffffffffffffffffffffffff163373ffffffffffffffffffffffffffffffffffffffff16146107b257600080fd5b60006004541061091a5760035460045411156108ac5760006003546004546107da919061160a565b905060008054906101000a900473ffffffffffffffffffffffffffffffffffffffff1673ffffffffffffffffffffffffffffffffffffffff166108fc829081150290604051600060405180830381858888f19350505050158015610842573d6000803e3d6000fd5b507f9496273f5a13d097a94eeecc2fcbcb6a8d26132fa9db01849d964521307dccc542604051610872919061116a565b60405180910390a1806004600082825461088c919061160a565b9250508190555061089e600454610c15565b600060048190555050610919565b60035460045414156108d0576108c3600454610c15565b6000600481905550610918565b6108d8610e03565b60006004819055507fd018531c788764333726fda058e746c7b3af36700a8f1cfe4a074b2eb283d6544260405161090f919061116a565b60405180910390a15b5b5b565b600260009054906101000a900473ffffffffffffffffffffffffffffffffffffffff1673ffffffffffffffffffffffffffffffffffffffff163373ffffffffffffffffffffffffffffffffffffffff1614806109c55750600160009054906101000a900473ffffffffffffffffffffffffffffffffffffffff1673ffffffffffffffffffffffffffffffffffffffff163373ffffffffffffffffffffffffffffffffffffffff16145b6109ce57600080fd5b80600a60000190805190602001906109e79291906110ae565b5050565b60035481565b600260009054906101000a900473ffffffffffffffffffffffffffffffffffffffff1673ffffffffffffffffffffffffffffffffffffffff163373ffffffffffffffffffffffffffffffffffffffff161480610a9a5750600160009054906101000a900473ffffffffffffffffffffffffffffffffffffffff1673ffffffffffffffffffffffffffffffffffffffff163373ffffffffffffffffffffffffffffffffffffffff16145b610aa357600080fd5b8060038190555050565b6000600354905090565b600260009054906101000a900473ffffffffffffffffffffffffffffffffffffffff1673ffffffffffffffffffffffffffffffffffffffff163373ffffffffffffffffffffffffffffffffffffffff1614610b1157600080fd5b806000806101000a81548173ffffffffffffffffffffffffffffffffffffffff021916908373ffffffffffffffffffffffffffffffffffffffff16021790555050565b600260009054906101000a900473ffffffffffffffffffffffffffffffffffffffff1673ffffffffffffffffffffffffffffffffffffffff163373ffffffffffffffffffffffffffffffffffffffff16148015610bb2575060035434145b610bbb57600080fd5b3460046000828254610bcd919061163e565b925050819055507fe455499c2acd509bdadebaf5a8fd54c083da31dbe98e785f2a72cdff04e32e00600454604051610c05919061116a565b60405180910390a1565b60045481565b600260009054906101000a900473ffffffffffffffffffffffffffffffffffffffff1673ffffffffffffffffffffffffffffffffffffffff163373ffffffffffffffffffffffffffffffffffffffff1614610c6f57600080fd5b600160009054906101000a900473ffffffffffffffffffffffffffffffffffffffff1673ffffffffffffffffffffffffffffffffffffffff166108fc829081150290604051600060405180830381858888f19350505050158015610cd7573d6000803e3d6000fd5b507ff484d07f255ad864671e45ca713ac3a9b593f61fc7df18a1930cdd13977a744c81604051610d07919061116a565b60405180910390a150565b6060600a6002018054610d24906116c3565b80601f0160208091040260200160405190810160405280929190818152602001828054610d50906116c3565b8015610d9d5780601f10610d7257610100808354040283529160200191610d9d565b820191906000526020600020905b815481529060010190602001808311610d8057829003601f168201915b5050505050905090565b6000600160009054906101000a900473ffffffffffffffffffffffffffffffffffffffff16905090565b6000600754600854610de3919061163e565b421015610df35760019050610e00565b610dfb610e03565b600090505b90565b600260009054906101000a900473ffffffffffffffffffffffffffffffffffffffff1673ffffffffffffffffffffffffffffffffffffffff163373ffffffffffffffffffffffffffffffffffffffff1614610e5d57600080fd5b7f9496273f5a13d097a94eeecc2fcbcb6a8d26132fa9db01849d964521307dccc5600454604051610e8e919061116a565b60405180910390a160008054906101000a900473ffffffffffffffffffffffffffffffffffffffff1673ffffffffffffffffffffffffffffffffffffffff166108fc6004549081150290604051600060405180830381858888f19350505050158015610efe573d6000803e3d6000fd5b506000600481905550565b600260009054906101000a900473ffffffffffffffffffffffffffffffffffffffff1673ffffffffffffffffffffffffffffffffffffffff163373ffffffffffffffffffffffffffffffffffffffff161480610fb25750600160009054906101000a900473ffffffffffffffffffffffffffffffffffffffff1673ffffffffffffffffffffffffffffffffffffffff163373ffffffffffffffffffffffffffffffffffffffff16145b610fbb57600080fd5b80600160006101000a81548173ffffffffffffffffffffffffffffffffffffffff021916908373ffffffffffffffffffffffffffffffffffffffff16021790555050565b6000600a60010160009054906101000a900460ff16905090565b6060600a600001805461102b906116c3565b80601f0160208091040260200160405190810160405280929190818152602001828054611057906116c3565b80156110a45780601f10611079576101008083540402835291602001916110a4565b820191906000526020600020905b81548152906001019060200180831161108757829003601f168201915b5050505050905090565b8280546110ba906116c3565b90600052602060002090601f0160209004810192826110dc5760008555611123565b82601f106110f557805160ff1916838001178555611123565b82800160010185558215611123579182015b82811115611122578251825591602001919060010190611107565b5b5090506111309190611134565b5090565b5b8082111561114d576000816000905550600101611135565b5090565b6000819050919050565b61116481611151565b82525050565b600060208201905061117f600083018461115b565b92915050565b6000604051905090565b600080fd5b600080fd5b60008115159050919050565b6111ae81611199565b81146111b957600080fd5b50565b6000813590506111cb816111a5565b92915050565b6000602082840312156111e7576111e661118f565b5b60006111f5848285016111bc565b91505092915050565b61120781611151565b811461121257600080fd5b50565b600081359050611224816111fe565b92915050565b6000602082840312156112405761123f61118f565b5b600061124e84828501611215565b91505092915050565b600073ffffffffffffffffffffffffffffffffffffffff82169050919050565b600061128282611257565b9050919050565b61129281611277565b82525050565b60006020820190506112ad6000830184611289565b92915050565b600080fd5b600080fd5b6000601f19601f8301169050919050565b7f4e487b7100000000000000000000000000000000000000000000000000000000600052604160045260246000fd5b611306826112bd565b810181811067ffffffffffffffff82111715611325576113246112ce565b5b80604052505050565b6000611338611185565b905061134482826112fd565b919050565b600067ffffffffffffffff821115611364576113636112ce565b5b61136d826112bd565b9050602081019050919050565b82818337600083830152505050565b600061139c61139784611349565b61132e565b9050828152602081018484840111156113b8576113b76112b8565b5b6113c384828561137a565b509392505050565b600082601f8301126113e0576113df6112b3565b5b81356113f0848260208601611389565b91505092915050565b60006020828403121561140f5761140e61118f565b5b600082013567ffffffffffffffff81111561142d5761142c611194565b5b611439848285016113cb565b91505092915050565b600061144d82611257565b9050919050565b61145d81611442565b811461146857600080fd5b50565b60008135905061147a81611454565b92915050565b6000602082840312156114965761149561118f565b5b60006114a48482850161146b565b91505092915050565b600081519050919050565b600082825260208201905092915050565b60005b838110156114e75780820151818401526020810190506114cc565b838111156114f6576000848401525b50505050565b6000611507826114ad565b61151181856114b8565b93506115218185602086016114c9565b61152a816112bd565b840191505092915050565b6000602082019050818103600083015261154f81846114fc565b905092915050565b61156081611199565b82525050565b600060208201905061157b6000830184611557565b92915050565b7f4e487b7100000000000000000000000000000000000000000000000000000000600052601160045260246000fd5b60006115bb82611151565b91506115c683611151565b9250817fffffffffffffffffffffffffffffffffffffffffffffffffffffffffffffffff04831182151516156115ff576115fe611581565b5b828202905092915050565b600061161582611151565b915061162083611151565b92508282101561163357611632611581565b5b828203905092915050565b600061164982611151565b915061165483611151565b9250827fffffffffffffffffffffffffffffffffffffffffffffffffffffffffffffffff0382111561168957611688611581565b5b828201905092915050565b7f4e487b7100000000000000000000000000000000000000000000000000000000600052602260045260246000fd5b600060028204905060018216806116db57607f821691505b602082108114156116ef576116ee611694565b5b5091905056fea2646970667358221220d1cc8920ed84e7ae3c77b9f7ef5c7ff9f93f7a8f6111c860c2e0c907f2a6440464736f6c634300080a0033",
  "immutableReferences": {},
  "source": "// SPDX-License-Identifier: MIT\npragma solidity >=0.8.3 <0.9.0;\nimport \"./Escrow.sol\";\n\n//IPFS contract to hold any pdf's and ebooks\n// need to create javascript to interface with the IPFS daemon \ncontract Book is Escrow{ // Books are all contracts, whether or not they're completed yet\n    //Model a Book\n    struct book{\n        string title; //book Title\n        bool physical; // 0 = no, 1 = yes\n        string hash;\n    }\n\n    //state variables/ contracts\n    book item;\n    //variables and functions to set an amount an item is for sale\n\n    //rewrite addBook as constructor for a single book\n    constructor(address payable _arbiter, address payable _seller, string memory _bookTitle, bool ePfd, string memory _hash, uint _price) public {\n        arbiter = _arbiter;\n        seller = _seller;\n        item.title = _bookTitle;\n        item.physical = ePfd;\n        item.hash = _hash;\n        amountInEth = _price * (1 ether / 100); // EXPENSIVE, but necessary for quick ganache testing\n    }\n\n    //Set-Get fxns\n\n    // Set title variable\n    function setTitle(string memory _title) external{\n        require (msg.sender == arbiter || msg.sender == seller);\n        item.title = _title;\n    }\n\n    // Set title variable\n    function getTitle() external view returns(string memory){\n        return item.title;\n    }\n\n    // Set Hash variable\n    function setHash(string memory _hash) external{\n        require (msg.sender == arbiter || msg.sender == seller);\n        item.hash = _hash;\n    }\n\n    // Get physical variable\n    function getHash() external view returns(string memory){\n        return item.hash;\n    }\n\n    // Set physical variable\n    function setPhysical(bool _phys) external{\n        require (msg.sender == arbiter || msg.sender == seller);\n        item.physical = _phys;\n    }\n\n    // Set physical variable\n    function getPhysical() external view returns (bool){\n        return item.physical;\n    }\n\n    //the book contract could handle the IPFS transfers and security if needed\n\n\n    // check for how to do security\n}",
  "sourcePath": "/home/june/Documents/UNT/CSCE 4575/project files/Blockchain_bookstore/contracts/Book.sol",
  "compiler": {
    "name": "solc",
    "version": "0.8.10+commit.fc410830.Emscripten.clang"
  },
  "schemaVersion": "3.4.3",
  "updatedAt": "2021-12-02T18:33:05.336Z",
  "networkType": "ethereum",
  "devdoc": {
    "kind": "dev",
    "methods": {},
    "version": 1
  },
  "userdoc": {
    "kind": "user",
    "methods": {},
    "version": 1
  }
}