{
  "contractName": "BookArbiter",
  "abi": [
    {
      "inputs": [],
      "stateMutability": "nonpayable",
      "type": "constructor"
    },
    {
      "anonymous": false,
      "inputs": [
        {
          "indexed": false,
          "internalType": "address",
          "name": "newAddress",
          "type": "address"
        }
      ],
      "name": "ContractCreated",
      "type": "event"
    },
    {
      "anonymous": false,
      "inputs": [
        {
          "indexed": false,
          "internalType": "uint256",
          "name": "_timestamp",
          "type": "uint256"
        }
      ],
      "name": "NewOwnership",
      "type": "event"
    },
    {
      "anonymous": false,
      "inputs": [
        {
          "indexed": false,
          "internalType": "uint256",
          "name": "_timestamp",
          "type": "uint256"
        }
      ],
      "name": "TransactionCreated",
      "type": "event"
    },
    {
      "anonymous": false,
      "inputs": [
        {
          "indexed": false,
          "internalType": "uint256",
          "name": "_amount",
          "type": "uint256"
        }
      ],
      "name": "TransactionFunded",
      "type": "event"
    },
    {
      "inputs": [
        {
          "internalType": "uint256",
          "name": "index",
          "type": "uint256"
        },
        {
          "internalType": "address payable",
          "name": "_seller",
          "type": "address"
        }
      ],
      "name": "setSeller",
      "outputs": [],
      "stateMutability": "nonpayable",
      "type": "function"
    },
    {
      "inputs": [
        {
          "internalType": "uint256",
          "name": "index",
          "type": "uint256"
        }
      ],
      "name": "getSeller",
      "outputs": [
        {
          "internalType": "address payable",
          "name": "",
          "type": "address"
        }
      ],
      "stateMutability": "view",
      "type": "function",
      "constant": true
    },
    {
      "inputs": [
        {
          "internalType": "uint256",
          "name": "index",
          "type": "uint256"
        },
        {
          "internalType": "string",
          "name": "_title",
          "type": "string"
        }
      ],
      "name": "setTitle",
      "outputs": [],
      "stateMutability": "nonpayable",
      "type": "function"
    },
    {
      "inputs": [
        {
          "internalType": "uint256",
          "name": "index",
          "type": "uint256"
        }
      ],
      "name": "getTitle",
      "outputs": [
        {
          "internalType": "string",
          "name": "",
          "type": "string"
        }
      ],
      "stateMutability": "view",
      "type": "function",
      "constant": true
    },
    {
      "inputs": [
        {
          "internalType": "uint256",
          "name": "index",
          "type": "uint256"
        },
        {
          "internalType": "string",
          "name": "_hash",
          "type": "string"
        }
      ],
      "name": "setHash",
      "outputs": [],
      "stateMutability": "nonpayable",
      "type": "function"
    },
    {
      "inputs": [
        {
          "internalType": "uint256",
          "name": "index",
          "type": "uint256"
        }
      ],
      "name": "getHash",
      "outputs": [
        {
          "internalType": "string",
          "name": "",
          "type": "string"
        }
      ],
      "stateMutability": "view",
      "type": "function",
      "constant": true
    },
    {
      "inputs": [
        {
          "internalType": "uint256",
          "name": "index",
          "type": "uint256"
        },
        {
          "internalType": "bool",
          "name": "_phys",
          "type": "bool"
        }
      ],
      "name": "setPhysical",
      "outputs": [],
      "stateMutability": "nonpayable",
      "type": "function"
    },
    {
      "inputs": [
        {
          "internalType": "uint256",
          "name": "index",
          "type": "uint256"
        },
        {
          "internalType": "uint256",
          "name": "_price",
          "type": "uint256"
        }
      ],
      "name": "setPrice",
      "outputs": [],
      "stateMutability": "nonpayable",
      "type": "function"
    },
    {
      "inputs": [
        {
          "internalType": "uint256",
          "name": "index",
          "type": "uint256"
        }
      ],
      "name": "getPrice",
      "outputs": [
        {
          "internalType": "uint256",
          "name": "",
          "type": "uint256"
        }
      ],
      "stateMutability": "view",
      "type": "function",
      "constant": true
    },
    {
      "inputs": [
        {
          "internalType": "address payable",
          "name": "_seller",
          "type": "address"
        },
        {
          "internalType": "string",
          "name": "_bookTitle",
          "type": "string"
        },
        {
          "internalType": "bool",
          "name": "ePfd",
          "type": "bool"
        },
        {
          "internalType": "string",
          "name": "_hash",
          "type": "string"
        },
        {
          "internalType": "uint256",
          "name": "_price",
          "type": "uint256"
        }
      ],
      "name": "addBook",
      "outputs": [],
      "stateMutability": "nonpayable",
      "type": "function"
    },
    {
      "inputs": [
        {
          "internalType": "uint256",
          "name": "_id",
          "type": "uint256"
        }
      ],
      "name": "getBook",
      "outputs": [
        {
          "components": [
            {
              "internalType": "address payable",
              "name": "seller",
              "type": "address"
            },
            {
              "internalType": "string",
              "name": "title",
              "type": "string"
            },
            {
              "internalType": "bool",
              "name": "physical",
              "type": "bool"
            },
            {
              "internalType": "string",
              "name": "hash",
              "type": "string"
            },
            {
              "internalType": "uint256",
              "name": "price",
              "type": "uint256"
            }
          ],
          "internalType": "struct BookArbiter.Book",
          "name": "",
          "type": "tuple"
        }
      ],
      "stateMutability": "view",
      "type": "function",
      "constant": true
    },
    {
      "inputs": [],
      "name": "getCount",
      "outputs": [
        {
          "internalType": "uint256",
          "name": "",
          "type": "uint256"
        }
      ],
      "stateMutability": "view",
      "type": "function",
      "constant": true
    },
    {
      "inputs": [
        {
          "internalType": "uint256",
          "name": "_id",
          "type": "uint256"
        }
      ],
      "name": "removeBook",
      "outputs": [],
      "stateMutability": "nonpayable",
      "type": "function"
    },
    {
      "inputs": [
        {
          "internalType": "address",
          "name": "escrowAddress",
          "type": "address"
        }
      ],
      "name": "fundTxn",
      "outputs": [],
      "stateMutability": "payable",
      "type": "function",
      "payable": true
    },
    {
      "inputs": [
        {
          "internalType": "uint256",
          "name": "_id",
          "type": "uint256"
        }
      ],
      "name": "createTxn",
      "outputs": [
        {
          "internalType": "bool",
          "name": "",
          "type": "bool"
        }
      ],
      "stateMutability": "payable",
      "type": "function",
      "payable": true
    }
  ],
  "bytecode": "0x608060405234801561001057600080fd5b506000600281905550612daf806100286000396000f3fe608060405260043610620000fe5760003560e01c80638ea073a41162000097578063d6a9de511162000061578063d6a9de511462000325578063e0ff5b8b1462000369578063e757223014620003ad578063f7d9757714620003f157620000fe565b80638ea073a41462000255578063929a79b11462000283578063a87d942c14620002c7578063bec0d79914620002f757620000fe565b80633c4a7c2811620000d95780633c4a7c28146200017f578063493b0e6e14620001b55780635102bc9d14620001e35780636b2fafa9146200021157620000fe565b806301076a8714620001035780631deb90dc14620001315780632fbaba261462000151575b600080fd5b3480156200011057600080fd5b506200012f60048036038101906200012991906200141e565b6200041f565b005b6200014f6004803603810190620001499190620014ca565b62000450565b005b3480156200015e57600080fd5b506200017d60048036038101906200017791906200165e565b62000714565b005b6200019d6004803603810190620001979190620016c4565b62000744565b604051620001ac919062001707565b60405180910390f35b348015620001c257600080fd5b50620001e16004803603810190620001db919062001769565b62000a9b565b005b348015620001f057600080fd5b506200020f60048036038101906200020991906200165e565b62000cdd565b005b3480156200021e57600080fd5b506200023d6004803603810190620002379190620016c4565b62000d0d565b6040516200024c9190620018c2565b60405180910390f35b3480156200026257600080fd5b506200028160048036038101906200027b9190620018e6565b62000dbc565b005b3480156200029057600080fd5b50620002af6004803603810190620002a99190620016c4565b62000e14565b604051620002be9190620018c2565b60405180910390f35b348015620002d457600080fd5b50620002df62000ec3565b604051620002ee91906200193e565b60405180910390f35b3480156200030457600080fd5b506200032360048036038101906200031d9190620016c4565b62000ecd565b005b3480156200033257600080fd5b506200035160048036038101906200034b9190620016c4565b62000f75565b6040516200036091906200196c565b60405180910390f35b3480156200037657600080fd5b506200039560048036038101906200038f9190620016c4565b62000fb4565b604051620003a4919062001a95565b60405180910390f35b348015620003ba57600080fd5b50620003d96004803603810190620003d39190620016c4565b62001191565b604051620003e891906200193e565b60405180910390f35b348015620003fe57600080fd5b506200041d600480360381019062000417919062001ab9565b620011b0565b005b8060008084815260200190815260200160002060020160006101000a81548160ff0219169083151502179055505050565b600081905060008173ffffffffffffffffffffffffffffffffffffffff166398d5fdca6040518163ffffffff1660e01b8152600401602060405180830381865afa158015620004a3573d6000803e3d6000fd5b505050506040513d601f19601f82011682018060405250810190620004c9919062001b17565b90508173ffffffffffffffffffffffffffffffffffffffff1663dbd0e1b66040518163ffffffff1660e01b8152600401602060405180830381865afa15801562000517573d6000803e3d6000fd5b505050506040513d601f19601f820116820180604052508101906200053d919062001b60565b73ffffffffffffffffffffffffffffffffffffffff163373ffffffffffffffffffffffffffffffffffffffff1614156200057657600080fd5b803410156200058457600080fd5b8273ffffffffffffffffffffffffffffffffffffffff166108fc829081150290604051600060405180830381858888f19350505050158015620005cb573d6000803e3d6000fd5b508173ffffffffffffffffffffffffffffffffffffffff16636901f6686040518163ffffffff1660e01b8152600401600060405180830381600087803b1580156200061557600080fd5b505af11580156200062a573d6000803e3d6000fd5b505050507fd590970add269340933b9f3e16c250fc8490304d321ae34e32b9270373ba37e2816040516200065f91906200193e565b60405180910390a18173ffffffffffffffffffffffffffffffffffffffff1663e99d2866336040518263ffffffff1660e01b8152600401620006a291906200196c565b600060405180830381600087803b158015620006bd57600080fd5b505af1158015620006d2573d6000803e3d6000fd5b505050507fc6b2a45324207354b059e55a92bc00eab257f8a10da1a4505368f4d79c7fb852426040516200070791906200193e565b60405180910390a1505050565b8060008084815260200190815260200160002060030190805190602001906200073f92919062001247565b505050565b6000806040516200075590620012d8565b604051809103906000f08015801562000772573d6000803e3d6000fd5b5090507f20249019acac6e99959366f842671611cd943aa8071804678030725f38bc787e42604051620007a691906200193e565b60405180910390a17fcf78cf0d6f3d8371e1075c69c492ab4ec5d8cf23a1a239b6a51a1d00be7ca31281604051620007df919062001ba3565b60405180910390a160006103e8670de0b6b3a76400006000808781526020019081526020016000206004015462000817919062001bef565b62000823919062001c7f565b905060008085815260200190815260200160002060000160009054906101000a900473ffffffffffffffffffffffffffffffffffffffff1673ffffffffffffffffffffffffffffffffffffffff163373ffffffffffffffffffffffffffffffffffffffff1614156200089457600080fd5b8173ffffffffffffffffffffffffffffffffffffffff166391b7f5ed826040518263ffffffff1660e01b8152600401620008cf91906200193e565b600060405180830381600087803b158015620008ea57600080fd5b505af1158015620008ff573d6000803e3d6000fd5b505050508173ffffffffffffffffffffffffffffffffffffffff1663e99d286660008087815260200190815260200160002060000160009054906101000a900473ffffffffffffffffffffffffffffffffffffffff166040518263ffffffff1660e01b81526004016200097391906200196c565b600060405180830381600087803b1580156200098e57600080fd5b505af1158015620009a3573d6000803e3d6000fd5b505050508173ffffffffffffffffffffffffffffffffffffffff1663a3f09ad6336040518263ffffffff1660e01b8152600401620009e291906200196c565b600060405180830381600087803b158015620009fd57600080fd5b505af115801562000a12573d6000803e3d6000fd5b505050508173ffffffffffffffffffffffffffffffffffffffff16631c9c088a306040518263ffffffff1660e01b815260040162000a5191906200196c565b600060405180830381600087803b15801562000a6c57600080fd5b505af115801562000a81573d6000803e3d6000fd5b5050505062000a908262000450565b600192505050919050565b62000aa5620012e6565b85816000019073ffffffffffffffffffffffffffffffffffffffff16908173ffffffffffffffffffffffffffffffffffffffff1681525050848160200181905250838160400190151590811515815250508281606001819052508181608001818152505062000b13620011ce565b1562000bf357600062000b25620011dd565b90508160008083815260200190815260200160002060008201518160000160006101000a81548173ffffffffffffffffffffffffffffffffffffffff021916908373ffffffffffffffffffffffffffffffffffffffff160217905550602082015181600101908051906020019062000b9f92919062001247565b5060408201518160020160006101000a81548160ff021916908315150217905550606082015181600301908051906020019062000bde92919062001247565b50608082015181600401559050505062000cd5565b80600080600254815260200190815260200160002060008201518160000160006101000a81548173ffffffffffffffffffffffffffffffffffffffff021916908373ffffffffffffffffffffffffffffffffffffffff160217905550602082015181600101908051906020019062000c6d92919062001247565b5060408201518160020160006101000a81548160ff021916908315150217905550606082015181600301908051906020019062000cac92919062001247565b50608082015181600401559050506002600081548092919062000ccf9062001cb7565b91905055505b505050505050565b80600080848152602001908152602001600020600101908051906020019062000d0892919062001247565b505050565b6060600080838152602001908152602001600020600301805462000d319062001d34565b80601f016020809104026020016040519081016040528092919081815260200182805462000d5f9062001d34565b801562000db05780601f1062000d845761010080835404028352916020019162000db0565b820191906000526020600020905b81548152906001019060200180831162000d9257829003601f168201915b50505050509050919050565b8060008084815260200190815260200160002060000160006101000a81548173ffffffffffffffffffffffffffffffffffffffff021916908373ffffffffffffffffffffffffffffffffffffffff1602179055505050565b6060600080838152602001908152602001600020600101805462000e389062001d34565b80601f016020809104026020016040519081016040528092919081815260200182805462000e669062001d34565b801562000eb75780601f1062000e8b5761010080835404028352916020019162000eb7565b820191906000526020600020905b81548152906001019060200180831162000e9957829003601f168201915b50505050509050919050565b6000600254905090565b600080828152602001908152602001600020600080820160006101000a81549073ffffffffffffffffffffffffffffffffffffffff021916905560018201600062000f1991906200132d565b6002820160006101000a81549060ff021916905560038201600062000f3f91906200132d565b60048201600090555050600181908060018154018082558091505060019003906000526020600020016000909190919091505550565b600080600083815260200190815260200160002060000160009054906101000a900473ffffffffffffffffffffffffffffffffffffffff169050919050565b62000fbe620012e6565b6000808381526020019081526020016000206040518060a00160405290816000820160009054906101000a900473ffffffffffffffffffffffffffffffffffffffff1673ffffffffffffffffffffffffffffffffffffffff1673ffffffffffffffffffffffffffffffffffffffff168152602001600182018054620010439062001d34565b80601f0160208091040260200160405190810160405280929190818152602001828054620010719062001d34565b8015620010c25780601f106200109657610100808354040283529160200191620010c2565b820191906000526020600020905b815481529060010190602001808311620010a457829003601f168201915b505050505081526020016002820160009054906101000a900460ff16151515158152602001600382018054620010f89062001d34565b80601f0160208091040260200160405190810160405280929190818152602001828054620011269062001d34565b8015620011775780601f106200114b5761010080835404028352916020019162001177565b820191906000526020600020905b8154815290600101906020018083116200115957829003601f168201915b505050505081526020016004820154815250509050919050565b6000806000838152602001908152602001600020600401549050919050565b80600080848152602001908152602001600020600401819055505050565b60008060018054905011905090565b6000806001808080549050620011f4919062001d6a565b8154811062001208576200120762001da5565b5b9060005260206000200154905060018054806200122a576200122962001dd4565b5b600190038181906000526020600020016000905590558091505090565b828054620012559062001d34565b90600052602060002090601f016020900481019282620012795760008555620012c5565b82601f106200129457805160ff1916838001178555620012c5565b82800160010185558215620012c5579182015b82811115620012c4578251825591602001919060010190620012a7565b5b509050620012d4919062001373565b5090565b610f768062001e0483390190565b6040518060a00160405280600073ffffffffffffffffffffffffffffffffffffffff1681526020016060815260200160001515815260200160608152602001600081525090565b5080546200133b9062001d34565b6000825580601f106200134f575062001370565b601f0160209004906000526020600020908101906200136f919062001373565b5b50565b5b808211156200138e57600081600090555060010162001374565b5090565b6000604051905090565b600080fd5b600080fd5b6000819050919050565b620013bb81620013a6565b8114620013c757600080fd5b50565b600081359050620013db81620013b0565b92915050565b60008115159050919050565b620013f881620013e1565b81146200140457600080fd5b50565b6000813590506200141881620013ed565b92915050565b600080604083850312156200143857620014376200139c565b5b60006200144885828601620013ca565b92505060206200145b8582860162001407565b9150509250929050565b600073ffffffffffffffffffffffffffffffffffffffff82169050919050565b6000620014928262001465565b9050919050565b620014a48162001485565b8114620014b057600080fd5b50565b600081359050620014c48162001499565b92915050565b600060208284031215620014e357620014e26200139c565b5b6000620014f384828501620014b3565b91505092915050565b600080fd5b600080fd5b6000601f19601f8301169050919050565b7f4e487b7100000000000000000000000000000000000000000000000000000000600052604160045260246000fd5b620015518262001506565b810181811067ffffffffffffffff8211171562001573576200157262001517565b5b80604052505050565b60006200158862001392565b905062001596828262001546565b919050565b600067ffffffffffffffff821115620015b957620015b862001517565b5b620015c48262001506565b9050602081019050919050565b82818337600083830152505050565b6000620015f7620015f1846200159b565b6200157c565b90508281526020810184848401111562001616576200161562001501565b5b62001623848285620015d1565b509392505050565b600082601f830112620016435762001642620014fc565b5b813562001655848260208601620015e0565b91505092915050565b600080604083850312156200167857620016776200139c565b5b60006200168885828601620013ca565b925050602083013567ffffffffffffffff811115620016ac57620016ab620013a1565b5b620016ba858286016200162b565b9150509250929050565b600060208284031215620016dd57620016dc6200139c565b5b6000620016ed84828501620013ca565b91505092915050565b6200170181620013e1565b82525050565b60006020820190506200171e6000830184620016f6565b92915050565b6000620017318262001465565b9050919050565b620017438162001724565b81146200174f57600080fd5b50565b600081359050620017638162001738565b92915050565b600080600080600060a086880312156200178857620017876200139c565b5b6000620017988882890162001752565b955050602086013567ffffffffffffffff811115620017bc57620017bb620013a1565b5b620017ca888289016200162b565b9450506040620017dd8882890162001407565b935050606086013567ffffffffffffffff811115620018015762001800620013a1565b5b6200180f888289016200162b565b92505060806200182288828901620013ca565b9150509295509295909350565b600081519050919050565b600082825260208201905092915050565b60005b838110156200186b5780820151818401526020810190506200184e565b838111156200187b576000848401525b50505050565b60006200188e826200182f565b6200189a81856200183a565b9350620018ac8185602086016200184b565b620018b78162001506565b840191505092915050565b60006020820190508181036000830152620018de818462001881565b905092915050565b600080604083850312156200190057620018ff6200139c565b5b60006200191085828601620013ca565b9250506020620019238582860162001752565b9150509250929050565b6200193881620013a6565b82525050565b60006020820190506200195560008301846200192d565b92915050565b620019668162001724565b82525050565b60006020820190506200198360008301846200195b565b92915050565b620019948162001724565b82525050565b600082825260208201905092915050565b6000620019b8826200182f565b620019c481856200199a565b9350620019d68185602086016200184b565b620019e18162001506565b840191505092915050565b620019f781620013e1565b82525050565b62001a0881620013a6565b82525050565b600060a08301600083015162001a28600086018262001989565b506020830151848203602086015262001a428282620019ab565b915050604083015162001a596040860182620019ec565b506060830151848203606086015262001a738282620019ab565b915050608083015162001a8a6080860182620019fd565b508091505092915050565b6000602082019050818103600083015262001ab1818462001a0e565b905092915050565b6000806040838503121562001ad35762001ad26200139c565b5b600062001ae385828601620013ca565b925050602062001af685828601620013ca565b9150509250929050565b60008151905062001b1181620013b0565b92915050565b60006020828403121562001b305762001b2f6200139c565b5b600062001b408482850162001b00565b91505092915050565b60008151905062001b5a8162001499565b92915050565b60006020828403121562001b795762001b786200139c565b5b600062001b898482850162001b49565b91505092915050565b62001b9d8162001485565b82525050565b600060208201905062001bba600083018462001b92565b92915050565b7f4e487b7100000000000000000000000000000000000000000000000000000000600052601160045260246000fd5b600062001bfc82620013a6565b915062001c0983620013a6565b9250817fffffffffffffffffffffffffffffffffffffffffffffffffffffffffffffffff048311821515161562001c455762001c4462001bc0565b5b828202905092915050565b7f4e487b7100000000000000000000000000000000000000000000000000000000600052601260045260246000fd5b600062001c8c82620013a6565b915062001c9983620013a6565b92508262001cac5762001cab62001c50565b5b828204905092915050565b600062001cc482620013a6565b91507fffffffffffffffffffffffffffffffffffffffffffffffffffffffffffffffff82141562001cfa5762001cf962001bc0565b5b600182019050919050565b7f4e487b7100000000000000000000000000000000000000000000000000000000600052602260045260246000fd5b6000600282049050600182168062001d4d57607f821691505b6020821081141562001d645762001d6362001d05565b5b50919050565b600062001d7782620013a6565b915062001d8483620013a6565b92508282101562001d9a5762001d9962001bc0565b5b828203905092915050565b7f4e487b7100000000000000000000000000000000000000000000000000000000600052603260045260246000fd5b7f4e487b7100000000000000000000000000000000000000000000000000000000600052603160045260246000fdfe6080604052633b9aca00600555633b9aca0060065560016007556000600855600060095534801561002f57600080fd5b5042600881905550600754600854610047919061008b565b6009819055506100e1565b6000819050919050565b7f4e487b7100000000000000000000000000000000000000000000000000000000600052601160045260246000fd5b600061009682610052565b91506100a183610052565b9250827fffffffffffffffffffffffffffffffffffffffffffffffffffffffffffffffff038211156100d6576100d561005c565b5b828201905092915050565b610e86806100f06000396000f3fe6080604052600436106101095760003560e01c8063a3f09ad611610095578063c83dc3a311610064578063c83dc3a3146102d2578063dbd0e1b6146102fb578063e0c6190d14610326578063e8a61cc814610351578063e99d28661461036857610109565b8063a3f09ad61461026a578063b60d428814610293578063b69ef8a81461029d578063c08d1fe5146102c857610109565b80631c9c088a116100dc5780631c9c088a146101cc57806341c0e1b5146101f55780636901f6681461020c57806391b7f5ed1461021657806398d5fdca1461023f57610109565b8063039aec2d1461010e57806308ea9a801461014b578063149bf50e1461017657806316243356146101a1575b600080fd5b34801561011a57600080fd5b5061013560048036038101906101309190610be9565b610391565b6040516101429190610c25565b60405180910390f35b34801561015757600080fd5b506101606103ad565b60405161016d9190610c25565b60405180910390f35b34801561018257600080fd5b5061018b6103b3565b6040516101989190610c81565b60405180910390f35b3480156101ad57600080fd5b506101b66103dc565b6040516101c39190610c25565b60405180910390f35b3480156101d857600080fd5b506101f360048036038101906101ee9190610cda565b6103e2565b005b34801561020157600080fd5b5061020a610426565b005b610214610497565b005b34801561022257600080fd5b5061023d60048036038101906102389190610be9565b61073d565b005b34801561024b57600080fd5b50610254610747565b6040516102619190610c25565b60405180910390f35b34801561027657600080fd5b50610291600480360381019061028c9190610cda565b610751565b005b61029b610794565b005b3480156102a957600080fd5b506102b261084e565b6040516102bf9190610c25565b60405180910390f35b6102d0610854565b005b3480156102de57600080fd5b506102f960048036038101906102f49190610be9565b610869565b005b34801561030757600080fd5b506103106109bc565b60405161031d9190610c81565b60405180910390f35b34801561033257600080fd5b5061033b6109e6565b6040516103489190610d22565b60405180910390f35b34801561035d57600080fd5b50610366610a18565b005b34801561037457600080fd5b5061038f600480360381019061038a9190610cda565b610b6a565b005b600066038d7ea4c68000826103a69190610d6c565b9050919050565b60035481565b60008060009054906101000a900473ffffffffffffffffffffffffffffffffffffffff16905090565b60095481565b80600260006101000a81548173ffffffffffffffffffffffffffffffffffffffff021916908373ffffffffffffffffffffffffffffffffffffffff16021790555050565b600260009054906101000a900473ffffffffffffffffffffffffffffffffffffffff1673ffffffffffffffffffffffffffffffffffffffff163373ffffffffffffffffffffffffffffffffffffffff161415610495573073ffffffffffffffffffffffffffffffffffffffff16ff5b565b6000600454111561073b5760035460045411156105d45760006003546004546104c09190610dc6565b905060008054906101000a900473ffffffffffffffffffffffffffffffffffffffff1673ffffffffffffffffffffffffffffffffffffffff166108fc829081150290604051600060405180830381858888f19350505050158015610528573d6000803e3d6000fd5b50806004600082825461053b9190610dc6565b9250508190555061054d600454610869565b7ff484d07f255ad864671e45ca713ac3a9b593f61fc7df18a1930cdd13977a744c4260405161057c9190610c25565b60405180910390a17f9496273f5a13d097a94eeecc2fcbcb6a8d26132fa9db01849d964521307dccc5426040516105b39190610c25565b60405180910390a13073ffffffffffffffffffffffffffffffffffffffff16ff5b6003546004541415610643576105eb600454610869565b60006004819055507ff484d07f255ad864671e45ca713ac3a9b593f61fc7df18a1930cdd13977a744c426040516106229190610c25565b60405180910390a13073ffffffffffffffffffffffffffffffffffffffff16ff5b60008054906101000a900473ffffffffffffffffffffffffffffffffffffffff1673ffffffffffffffffffffffffffffffffffffffff166108fc6004549081150290604051600060405180830381858888f193505050501580156106ab573d6000803e3d6000fd5b5060006004819055507f9496273f5a13d097a94eeecc2fcbcb6a8d26132fa9db01849d964521307dccc5426040516106e39190610c25565b60405180910390a17fd018531c788764333726fda058e746c7b3af36700a8f1cfe4a074b2eb283d6544260405161071a9190610c25565b60405180910390a13073ffffffffffffffffffffffffffffffffffffffff16ff5b565b8060038190555050565b6000600354905090565b806000806101000a81548173ffffffffffffffffffffffffffffffffffffffff021916908373ffffffffffffffffffffffffffffffffffffffff16021790555050565b600260009054906101000a900473ffffffffffffffffffffffffffffffffffffffff1673ffffffffffffffffffffffffffffffffffffffff163373ffffffffffffffffffffffffffffffffffffffff161480156107f357506003543410155b6107fc57600080fd5b346004600082825461080e9190610dfa565b925050819055507fe455499c2acd509bdadebaf5a8fd54c083da31dbe98e785f2a72cdff04e32e00426040516108449190610c25565b60405180910390a1565b60045481565b61085c6109e6565b1561086657610867565b5b565b60008054906101000a900473ffffffffffffffffffffffffffffffffffffffff1673ffffffffffffffffffffffffffffffffffffffff163373ffffffffffffffffffffffffffffffffffffffff1614806109105750600260009054906101000a900473ffffffffffffffffffffffffffffffffffffffff1673ffffffffffffffffffffffffffffffffffffffff163373ffffffffffffffffffffffffffffffffffffffff16145b61091957600080fd5b600160009054906101000a900473ffffffffffffffffffffffffffffffffffffffff1673ffffffffffffffffffffffffffffffffffffffff166108fc829081150290604051600060405180830381858888f19350505050158015610981573d6000803e3d6000fd5b507ff484d07f255ad864671e45ca713ac3a9b593f61fc7df18a1930cdd13977a744c426040516109b19190610c25565b60405180910390a150565b6000600160009054906101000a900473ffffffffffffffffffffffffffffffffffffffff16905090565b60006007546008546109f89190610dfa565b421015610a085760019050610a15565b610a10610a18565b600090505b90565b600160009054906101000a900473ffffffffffffffffffffffffffffffffffffffff1673ffffffffffffffffffffffffffffffffffffffff163373ffffffffffffffffffffffffffffffffffffffff161480610ac15750600260009054906101000a900473ffffffffffffffffffffffffffffffffffffffff1673ffffffffffffffffffffffffffffffffffffffff163373ffffffffffffffffffffffffffffffffffffffff16145b610aca57600080fd5b60008054906101000a900473ffffffffffffffffffffffffffffffffffffffff1673ffffffffffffffffffffffffffffffffffffffff166108fc479081150290604051600060405180830381858888f19350505050158015610b30573d6000803e3d6000fd5b507f9496273f5a13d097a94eeecc2fcbcb6a8d26132fa9db01849d964521307dccc542604051610b609190610c25565b60405180910390a1565b80600160006101000a81548173ffffffffffffffffffffffffffffffffffffffff021916908373ffffffffffffffffffffffffffffffffffffffff16021790555050565b600080fd5b6000819050919050565b610bc681610bb3565b8114610bd157600080fd5b50565b600081359050610be381610bbd565b92915050565b600060208284031215610bff57610bfe610bae565b5b6000610c0d84828501610bd4565b91505092915050565b610c1f81610bb3565b82525050565b6000602082019050610c3a6000830184610c16565b92915050565b600073ffffffffffffffffffffffffffffffffffffffff82169050919050565b6000610c6b82610c40565b9050919050565b610c7b81610c60565b82525050565b6000602082019050610c966000830184610c72565b92915050565b6000610ca782610c40565b9050919050565b610cb781610c9c565b8114610cc257600080fd5b50565b600081359050610cd481610cae565b92915050565b600060208284031215610cf057610cef610bae565b5b6000610cfe84828501610cc5565b91505092915050565b60008115159050919050565b610d1c81610d07565b82525050565b6000602082019050610d376000830184610d13565b92915050565b7f4e487b7100000000000000000000000000000000000000000000000000000000600052601160045260246000fd5b6000610d7782610bb3565b9150610d8283610bb3565b9250817fffffffffffffffffffffffffffffffffffffffffffffffffffffffffffffffff0483118215151615610dbb57610dba610d3d565b5b828202905092915050565b6000610dd182610bb3565b9150610ddc83610bb3565b925082821015610def57610dee610d3d565b5b828203905092915050565b6000610e0582610bb3565b9150610e1083610bb3565b9250827fffffffffffffffffffffffffffffffffffffffffffffffffffffffffffffffff03821115610e4557610e44610d3d565b5b82820190509291505056fea264697066735822122079f7398472a1aac895b926c0da8554f667fb8a78a5d704c9d7df41d9a2bf5f4164736f6c634300080a0033a264697066735822122080f30a5111deee1e01d7867e6c41be306082300d60db27889419e1f1cd46e84664736f6c634300080a0033",
  "immutableReferences": {},
  "source": "// SPDX-License-Identifier: MIT\npragma solidity >=0.8.3 <0.9.0;\nimport \"./Escrow.sol\";\n// import \"./Book.sol\";\n\n// contract to handle an entire transaction and to execute the escrow\ncontract BookArbiter{\n\n    // event\n    event TransactionCreated(uint _timestamp);\n    event TransactionFunded(uint _amount);\n    event NewOwnership(uint _timestamp);\n    event ContractCreated(address newAddress);\n    \n    //Model a Book\n    struct Book{\n        address payable seller; //seller wallet id\n        string title; //book Title\n        bool physical; // 0 = no, 1 = yes\n        string hash;\n        uint price; // price of the book\n    }\n\n    ///////////////////////\n    // Set-Get Fxns for book\n        // Set seller variable\n    function setSeller(uint index, address payable _seller) external{\n        books[index].seller = _seller;\n    }\n\n    function getSeller(uint index) external view returns(address payable){\n        return books[index].seller;\n    }\n\n    // Set title variable\n    function setTitle(uint index, string memory _title) external{\n        books[index].title = _title;\n    }\n\n    // get title variable\n    function getTitle(uint index) external view returns(string memory){\n        return books[index].title;\n    }\n\n    // Set Hash variable\n    function setHash(uint index, string memory _hash) external{\n        books[index].hash = _hash;\n    }\n\n\n    // Get physical variable\n    function getHash(uint index) external view returns(string memory){\n        return books[index].hash;\n    }\n\n    // Set physical variable\n    function setPhysical(uint index, bool _phys) external{\n        books[index].physical = _phys;\n    }\n\n    // Set price variables\n    function setPrice(uint index, uint _price) external{\n        books[index].price = _price;\n    }\n\n    function getPrice(uint index) external view returns(uint){\n        return books[index].price;\n    }\n\n    ///////////////////////\n\n    // two one-to-one maps to hold books and their prices\n    mapping(uint => Book) private books; // mapping of book id to book\n\n    uint[] private emptyIds; // array of book prices for easy iteration\n\n    uint private bookCount; // number of books in the contract\n\n    constructor() public {\n        // make stuff happen\n        bookCount = 0;\n    }\n\n    function checkEmptyIds() private view returns (bool) {\n        return emptyIds.length > 0;\n    }\n\n    function getEmptyId() private returns (uint) {\n        uint temp = emptyIds[emptyIds.length - 1];\n        emptyIds.pop();\n        return temp;\n    }\n\n    function addBook(address payable _seller, string memory _bookTitle, bool ePfd, string memory _hash, uint _price) public {\n        // construct and initialize new book\n        Book memory newBook;\n        \n        // use set fxns to fill out struct object\n        newBook.seller = _seller;\n        newBook.title = _bookTitle;\n        newBook.physical = ePfd;\n        newBook.hash = _hash;\n        newBook.price = _price;\n\n        // newBook.uploadBook(_hash, 0); // get fil from given hash, will need to be integrated with js to upload to IPFS\n\n        // check existing mapping to find any empty indexes for use before pushing\n        if (checkEmptyIds()) {\n            uint temp = getEmptyId(); // get empty ID index and remove it from array\n            // Use index to set place for a new book\n            books[temp] = newBook;\n        } else { // if no new spots, then add fresh book to the mappings\n            books[bookCount] = newBook;\n            bookCount ++; //increment amount of books in the contract\n        }\n    }\n\n    // returns a book struct object\n    function getBook(uint _id) public view returns (Book memory) {\n        return books[_id];\n    }\n\n    // returns amount of books in list\n    function getCount() external view returns (uint) {\n        return bookCount;\n    }\n\n    function removeBook(uint _id) public {\n        delete books[_id]; // zero out index in mapping\n        emptyIds.push(_id);  // add index to emptyIds array\n    }\n\n    // check age of a contract, use to push command to and from the Escrow contract of a purchase\n    function fundTxn(address escrowAddress) public payable {\n        Escrow escrow = Escrow(escrowAddress);\n        // send funds to escrow contract and begin execution\n        uint price = escrow.getPrice();\n\n        require(msg.sender != escrow.getSeller()); // make sure that the seller is the one who is sending the funds\n        require(msg.value >= price); // fund contract here first\n        // TESTING CALL /////////\n        /////////////////////////\n        // transfer escrow funds to the contract\n        payable(escrowAddress).transfer(price);\n        escrow.validate(); // validate and payout\n        emit TransactionFunded(price);\n        escrow.setSeller(payable(msg.sender)); // change ownership of book item\n        emit NewOwnership(block.timestamp);\n\n        // remove book from item list after successful transaction, orrrr\n        // maybe switch to some offserver list of successfull txns\n        // removeBook(_id);\n    }\n\n    function createTxn(uint _id) public payable returns (bool){\n        // create escrow contract\n        Escrow txn = new Escrow();\n        emit TransactionCreated(block.timestamp);\n        emit ContractCreated(address(txn));\n\n        // set price in Gwei and check requirements\n        uint priceAdjust = books[_id].price * 1 ether / 1000; // convert to Gwei\n        require(msg.sender != books[_id].seller); // make sure that the seller is the one who is sending the funds\n        txn.setPrice(priceAdjust);\n\n        // initialize txn contract\n        txn.setSeller(books[_id].seller);\n        txn.setBuyer(payable(msg.sender));\n        txn.setArbiter(payable(address(this)));\n\n        fundTxn(address(txn)); // test funding\n\n        // return address of escrow contract\n        return true;\n    }\n\n}\n\n// It may be possible to use Django and cut out book arbiter\n// create a basice website that would handle transactions\n// and carry out contracts with their ID's\n// it would technically be centralized though, so unpreferred",
  "sourcePath": "/home/june/Documents/UNT/CSCE 4575/project files/Blockchain_bookstore/contracts/BookArbiter.sol",
  "compiler": {
    "name": "solc",
    "version": "0.8.10+commit.fc410830.Emscripten.clang"
  },
  "schemaVersion": "3.4.3",
  "updatedAt": "2021-11-24T17:27:25.727Z",
  "networkType": "ethereum",
  "devdoc": {
    "kind": "dev",
    "methods": {},
    "version": 1
  },
  "userdoc": {
    "kind": "user",
    "methods": {},
    "version": 1
  }
}