{
  "contractName": "Book",
  "abi": [
    {
      "inputs": [],
      "name": "getFileHash",
      "outputs": [
        {
          "internalType": "string",
          "name": "",
          "type": "string"
        }
      ],
      "stateMutability": "view",
      "type": "function"
    },
    {
      "inputs": [],
      "name": "getFileSize",
      "outputs": [
        {
          "internalType": "uint256",
          "name": "",
          "type": "uint256"
        }
      ],
      "stateMutability": "view",
      "type": "function"
    },
    {
      "inputs": [
        {
          "internalType": "string",
          "name": "fileHash",
          "type": "string"
        },
        {
          "internalType": "uint256",
          "name": "fileSize",
          "type": "uint256"
        }
      ],
      "name": "uploadFile",
      "outputs": [],
      "stateMutability": "nonpayable",
      "type": "function"
    },
    {
      "inputs": [
        {
          "internalType": "address payable",
          "name": "_seller",
          "type": "address"
        }
      ],
      "name": "setSeller",
      "outputs": [],
      "stateMutability": "nonpayable",
      "type": "function"
    },
    {
      "inputs": [],
      "name": "getSeller",
      "outputs": [
        {
          "internalType": "address payable",
          "name": "",
          "type": "address"
        }
      ],
      "stateMutability": "view",
      "type": "function"
    },
    {
      "inputs": [
        {
          "internalType": "string",
          "name": "_title",
          "type": "string"
        }
      ],
      "name": "setTitle",
      "outputs": [],
      "stateMutability": "nonpayable",
      "type": "function"
    },
    {
      "inputs": [
        {
          "internalType": "string",
          "name": "_hash",
          "type": "string"
        }
      ],
      "name": "setHash",
      "outputs": [],
      "stateMutability": "nonpayable",
      "type": "function"
    },
    {
      "inputs": [],
      "name": "getHash",
      "outputs": [
        {
          "internalType": "string",
          "name": "",
          "type": "string"
        }
      ],
      "stateMutability": "view",
      "type": "function"
    },
    {
      "inputs": [
        {
          "internalType": "bool",
          "name": "_phys",
          "type": "bool"
        }
      ],
      "name": "setPhysical",
      "outputs": [],
      "stateMutability": "nonpayable",
      "type": "function"
    },
    {
      "inputs": [
        {
          "internalType": "uint256",
          "name": "_price",
          "type": "uint256"
        }
      ],
      "name": "setPrice",
      "outputs": [],
      "stateMutability": "nonpayable",
      "type": "function"
    },
    {
      "inputs": [],
      "name": "getPrice",
      "outputs": [
        {
          "internalType": "uint256",
          "name": "",
          "type": "uint256"
        }
      ],
      "stateMutability": "view",
      "type": "function"
    },
    {
      "inputs": [
        {
          "internalType": "string",
          "name": "_hash",
          "type": "string"
        },
        {
          "internalType": "uint256",
          "name": "_size",
          "type": "uint256"
        }
      ],
      "name": "uploadBook",
      "outputs": [],
      "stateMutability": "nonpayable",
      "type": "function"
    }
  ],
  "bytecode": "0x608060405234801561001057600080fd5b50610a07806100206000396000f3fe608060405234801561001057600080fd5b50600436106100b35760003560e01c806391b7f5ed1161007157806391b7f5ed1461016457806398d5fdca14610180578063bcbd124b1461019e578063d13319c4146101ba578063dbd0e1b6146101d8578063e99d2866146101f6576100b3565b80622bc52e146100b85780631322f7fa146100d45780631ed83fd4146100f257806372910be01461010e5780638493f71f1461012a5780638f0e28d714610148575b600080fd5b6100d260048036038101906100cd919061056c565b610212565b005b6100dc610231565b6040516100e991906105b2565b60405180910390f35b61010c60048036038101906101079190610713565b61023d565b005b61012860048036038101906101239190610713565b61025a565b005b610132610277565b60405161013f91906107e4565b60405180910390f35b610162600480360381019061015d9190610832565b61030b565b005b61017e6004803603810190610179919061088e565b610332565b005b61018861033f565b60405161019591906105b2565b60405180910390f35b6101b860048036038101906101b39190610832565b61034c565b005b6101c2610374565b6040516101cf91906107e4565b60405180910390f35b6101e0610409565b6040516101ed91906108fc565b60405180910390f35b610210600480360381019061020b9190610943565b610436565b005b806002800160006101000a81548160ff02191690831515021790555050565b60008060010154905090565b806002600301908051906020019061025692919061047d565b5050565b806002600101908051906020019061027392919061047d565b5050565b60606000800180546102889061099f565b80601f01602080910402602001604051908101604052809291908181526020018280546102b49061099f565b80156103015780601f106102d657610100808354040283529160200191610301565b820191906000526020600020905b8154815290600101906020018083116102e457829003601f168201915b5050505050905090565b8160008001908051906020019061032392919061047d565b50806000600101819055505050565b8060026004018190555050565b6000600260040154905090565b610356828261030b565b816002600301908051906020019061036f92919061047d565b505050565b6060600260030180546103869061099f565b80601f01602080910402602001604051908101604052809291908181526020018280546103b29061099f565b80156103ff5780601f106103d4576101008083540402835291602001916103ff565b820191906000526020600020905b8154815290600101906020018083116103e257829003601f168201915b5050505050905090565b6000600260000160009054906101000a900473ffffffffffffffffffffffffffffffffffffffff16905090565b80600260000160006101000a81548173ffffffffffffffffffffffffffffffffffffffff021916908373ffffffffffffffffffffffffffffffffffffffff16021790555050565b8280546104899061099f565b90600052602060002090601f0160209004810192826104ab57600085556104f2565b82601f106104c457805160ff19168380011785556104f2565b828001600101855582156104f2579182015b828111156104f15782518255916020019190600101906104d6565b5b5090506104ff9190610503565b5090565b5b8082111561051c576000816000905550600101610504565b5090565b6000604051905090565b600080fd5b600080fd5b60008115159050919050565b61054981610534565b811461055457600080fd5b50565b60008135905061056681610540565b92915050565b6000602082840312156105825761058161052a565b5b600061059084828501610557565b91505092915050565b6000819050919050565b6105ac81610599565b82525050565b60006020820190506105c760008301846105a3565b92915050565b600080fd5b600080fd5b6000601f19601f8301169050919050565b7f4e487b7100000000000000000000000000000000000000000000000000000000600052604160045260246000fd5b610620826105d7565b810181811067ffffffffffffffff8211171561063f5761063e6105e8565b5b80604052505050565b6000610652610520565b905061065e8282610617565b919050565b600067ffffffffffffffff82111561067e5761067d6105e8565b5b610687826105d7565b9050602081019050919050565b82818337600083830152505050565b60006106b66106b184610663565b610648565b9050828152602081018484840111156106d2576106d16105d2565b5b6106dd848285610694565b509392505050565b600082601f8301126106fa576106f96105cd565b5b813561070a8482602086016106a3565b91505092915050565b6000602082840312156107295761072861052a565b5b600082013567ffffffffffffffff8111156107475761074661052f565b5b610753848285016106e5565b91505092915050565b600081519050919050565b600082825260208201905092915050565b60005b8381101561079657808201518184015260208101905061077b565b838111156107a5576000848401525b50505050565b60006107b68261075c565b6107c08185610767565b93506107d0818560208601610778565b6107d9816105d7565b840191505092915050565b600060208201905081810360008301526107fe81846107ab565b905092915050565b61080f81610599565b811461081a57600080fd5b50565b60008135905061082c81610806565b92915050565b600080604083850312156108495761084861052a565b5b600083013567ffffffffffffffff8111156108675761086661052f565b5b610873858286016106e5565b92505060206108848582860161081d565b9150509250929050565b6000602082840312156108a4576108a361052a565b5b60006108b28482850161081d565b91505092915050565b600073ffffffffffffffffffffffffffffffffffffffff82169050919050565b60006108e6826108bb565b9050919050565b6108f6816108db565b82525050565b600060208201905061091160008301846108ed565b92915050565b610920816108db565b811461092b57600080fd5b50565b60008135905061093d81610917565b92915050565b6000602082840312156109595761095861052a565b5b60006109678482850161092e565b91505092915050565b7f4e487b7100000000000000000000000000000000000000000000000000000000600052602260045260246000fd5b600060028204905060018216806109b757607f821691505b602082108114156109cb576109ca610970565b5b5091905056fea264697066735822122058bc71eaf166c57edaa1d4dc7839c4c2f26e17ff72542bfd51d118f49ffec79d64736f6c634300080a0033",
  "immutableReferences": {},
  "source": "// SPDX-License-Identifier: MIT\npragma solidity >=0.8.3 <0.9.0;\n\n//IPFS contract to hold any pdf's and ebooks\n// need to create javascript to interface with the IPFS daemon \ncontract IPFS {\n    // struct to hold hash location and size of the file\n    struct File {\n        string fileHash;\n        uint256 fileSize;\n    }\n\n    File file;\n\n    // creates new file to interface with IPFS from uploader\n    function uploadFile(string memory fileHash, uint256 fileSize) public {\n        file.fileHash = fileHash;\n        file.fileSize = fileSize;\n    }\n\n    // gets file struct\n    // function getFile(string memory fileHash) public view returns (File) {\n    //     return file;\n    // }\n\n    // gets file size variable from struct\n    function getFileSize() public view returns (uint256) {\n        return file.fileSize;\n    }\n\n    // gets file hash variable from struct\n    function getFileHash() public view returns (string memory) {\n        return file.fileHash;\n    }\n}\n\ncontract Book is IPFS{\n    //Model a Book\n    struct book{\n        address payable seller; //seller wallet id\n        string title; //book Title\n        bool physical; // 0 = no, 1 = yes\n        string hash;\n        uint price; // price of the book\n    }\n\n    //state variables/ contracts\n    book item;\n    //variables and functions to set an amount an item is for sale\n\n    //rewrite addBook as constructor for a single book\n    //constructor(address payable _seller, string memory _bookTitle, bool ePfd, uint _price) public {\n    //    item.seller = _seller;\n    //    item.title = _bookTitle;\n    //    item.physical = ePfd;\n    //    item.price = _price;\n    //}\n\n    //Set-Get fxns\n\n    // Set seller variable\n    function setSeller(address payable _seller) external{\n        item.seller = _seller;\n    }\n\n    function getSeller() external view returns(address payable){\n        return item.seller;\n    }\n\n    // Set title variable\n    function setTitle(string memory _title) external{\n        item.title = _title;\n    }\n\n    // Set Hash variable\n    function setHash(string memory _hash) external{\n        item.hash = _hash;\n    }\n\n\n    // Get physical variable\n    function getHash() external view returns(string memory){\n        return item.hash;\n    }\n\n    // Set physical variable\n    function setPhysical(bool _phys) external{\n        item.physical = _phys;\n    }\n\n    // Set price variables\n    function setPrice(uint _price) external{\n        item.price = _price;\n    }\n\n    function getPrice() external view returns(uint){\n        return item.price;\n    }\n\n    // correspond with external script to upload the book and file\n    // use with an IPFS node\n    function uploadBook(string memory _hash, uint _size) public {\n        uploadFile(_hash, _size);\n        item.hash = _hash;\n    }\n\n    function getFile() private view returns (string memory) {\n        return item.hash;\n    }\n\n    //the book contract could handle the IPFS transfers and security if needed\n\n\n    // check for how to do security\n}",
  "sourcePath": "/home/june/Documents/UNT/CSCE 4575/project files/Blockchain_bookstore/contracts/Book.sol",
  "compiler": {
    "name": "solc",
    "version": "0.8.10+commit.fc410830.Emscripten.clang"
  },
  "schemaVersion": "3.4.3",
  "updatedAt": "2021-11-20T01:45:03.603Z",
  "devdoc": {
    "kind": "dev",
    "methods": {},
    "version": 1
  },
  "userdoc": {
    "kind": "user",
    "methods": {},
    "version": 1
  }
}