{
  "contractName": "BookArbiter",
  "abi": [
    {
      "inputs": [],
      "stateMutability": "nonpayable",
      "type": "constructor"
    },
    {
      "inputs": [
        {
          "internalType": "uint256",
          "name": "index",
          "type": "uint256"
        },
        {
          "internalType": "address payable",
          "name": "_seller",
          "type": "address"
        }
      ],
      "name": "setSeller",
      "outputs": [],
      "stateMutability": "nonpayable",
      "type": "function"
    },
    {
      "inputs": [
        {
          "internalType": "uint256",
          "name": "index",
          "type": "uint256"
        }
      ],
      "name": "getSeller",
      "outputs": [
        {
          "internalType": "address payable",
          "name": "",
          "type": "address"
        }
      ],
      "stateMutability": "view",
      "type": "function",
      "constant": true
    },
    {
      "inputs": [
        {
          "internalType": "uint256",
          "name": "index",
          "type": "uint256"
        },
        {
          "internalType": "string",
          "name": "_title",
          "type": "string"
        }
      ],
      "name": "setTitle",
      "outputs": [],
      "stateMutability": "nonpayable",
      "type": "function"
    },
    {
      "inputs": [
        {
          "internalType": "uint256",
          "name": "index",
          "type": "uint256"
        },
        {
          "internalType": "string",
          "name": "_hash",
          "type": "string"
        }
      ],
      "name": "setHash",
      "outputs": [],
      "stateMutability": "nonpayable",
      "type": "function"
    },
    {
      "inputs": [
        {
          "internalType": "uint256",
          "name": "index",
          "type": "uint256"
        }
      ],
      "name": "getHash",
      "outputs": [
        {
          "internalType": "string",
          "name": "",
          "type": "string"
        }
      ],
      "stateMutability": "view",
      "type": "function",
      "constant": true
    },
    {
      "inputs": [
        {
          "internalType": "uint256",
          "name": "index",
          "type": "uint256"
        },
        {
          "internalType": "bool",
          "name": "_phys",
          "type": "bool"
        }
      ],
      "name": "setPhysical",
      "outputs": [],
      "stateMutability": "nonpayable",
      "type": "function"
    },
    {
      "inputs": [
        {
          "internalType": "uint256",
          "name": "index",
          "type": "uint256"
        },
        {
          "internalType": "uint256",
          "name": "_price",
          "type": "uint256"
        }
      ],
      "name": "setPrice",
      "outputs": [],
      "stateMutability": "nonpayable",
      "type": "function"
    },
    {
      "inputs": [
        {
          "internalType": "uint256",
          "name": "index",
          "type": "uint256"
        }
      ],
      "name": "getPrice",
      "outputs": [
        {
          "internalType": "uint256",
          "name": "",
          "type": "uint256"
        }
      ],
      "stateMutability": "view",
      "type": "function",
      "constant": true
    },
    {
      "inputs": [
        {
          "internalType": "address payable",
          "name": "_seller",
          "type": "address"
        },
        {
          "internalType": "string",
          "name": "_bookTitle",
          "type": "string"
        },
        {
          "internalType": "bool",
          "name": "ePfd",
          "type": "bool"
        },
        {
          "internalType": "string",
          "name": "_hash",
          "type": "string"
        },
        {
          "internalType": "uint256",
          "name": "_price",
          "type": "uint256"
        }
      ],
      "name": "addBook",
      "outputs": [],
      "stateMutability": "nonpayable",
      "type": "function"
    },
    {
      "inputs": [
        {
          "internalType": "uint256",
          "name": "_id",
          "type": "uint256"
        }
      ],
      "name": "getBook",
      "outputs": [
        {
          "components": [
            {
              "internalType": "address payable",
              "name": "seller",
              "type": "address"
            },
            {
              "internalType": "string",
              "name": "title",
              "type": "string"
            },
            {
              "internalType": "bool",
              "name": "physical",
              "type": "bool"
            },
            {
              "internalType": "string",
              "name": "hash",
              "type": "string"
            },
            {
              "internalType": "uint256",
              "name": "price",
              "type": "uint256"
            }
          ],
          "internalType": "struct BookArbiter.Book",
          "name": "",
          "type": "tuple"
        }
      ],
      "stateMutability": "view",
      "type": "function",
      "constant": true
    },
    {
      "inputs": [],
      "name": "getAmount",
      "outputs": [
        {
          "internalType": "uint256",
          "name": "",
          "type": "uint256"
        }
      ],
      "stateMutability": "view",
      "type": "function",
      "constant": true
    },
    {
      "inputs": [
        {
          "internalType": "uint256",
          "name": "_id",
          "type": "uint256"
        }
      ],
      "name": "removeBook",
      "outputs": [],
      "stateMutability": "nonpayable",
      "type": "function"
    },
    {
      "inputs": [
        {
          "internalType": "uint256",
          "name": "_id",
          "type": "uint256"
        }
      ],
      "name": "Transaction",
      "outputs": [],
      "stateMutability": "payable",
      "type": "function",
      "payable": true
    }
  ],
  "bytecode": "0x6080604052600060025534801561001557600080fd5b506116cb806100256000396000f3fe6080604052600436106100c25760003560e01c80638ea073a41161007f578063d6a9de5111610059578063d6a9de5114610241578063e0ff5b8b1461027e578063e7572230146102bb578063f7d97577146102f8576100c2565b80638ea073a4146101c4578063bec0d799146101ed578063d321fe2914610216576100c2565b806301076a87146100c75780632fbaba26146100f0578063493b0e6e146101195780635102bc9d14610142578063677f502e1461016b5780636b2fafa914610187575b600080fd5b3480156100d357600080fd5b506100ee60048036038101906100e99190610f76565b610321565b005b3480156100fc57600080fd5b50610117600480360381019061011291906110fc565b610352565b005b34801561012557600080fd5b50610140600480360381019061013b91906111b6565b610380565b005b34801561014e57600080fd5b50610169600480360381019061016491906110fc565b6105b0565b005b61018560048036038101906101809190611269565b6105de565b005b34801561019357600080fd5b506101ae60048036038101906101a99190611269565b610965565b6040516101bb919061131e565b60405180910390f35b3480156101d057600080fd5b506101eb60048036038101906101e69190611340565b610a0c565b005b3480156101f957600080fd5b50610214600480360381019061020f9190611269565b610a64565b005b34801561022257600080fd5b5061022b610b08565b604051610238919061138f565b60405180910390f35b34801561024d57600080fd5b5061026860048036038101906102639190611269565b610b12565b60405161027591906113b9565b60405180910390f35b34801561028a57600080fd5b506102a560048036038101906102a09190611269565b610b51565b6040516102b291906114c8565b60405180910390f35b3480156102c757600080fd5b506102e260048036038101906102dd9190611269565b610d1c565b6040516102ef919061138f565b60405180910390f35b34801561030457600080fd5b5061031f600480360381019061031a91906114ea565b610d3b565b005b8060008084815260200190815260200160002060020160006101000a81548160ff0219169083151502179055505050565b80600080848152602001908152602001600020600301908051906020019061037b929190610dca565b505050565b610388610e50565b85816000019073ffffffffffffffffffffffffffffffffffffffff16908173ffffffffffffffffffffffffffffffffffffffff168152505084816020018190525083816040019015159081151581525050828160600181905250818160800181815250506103f4610d59565b156104cc576000610403610d68565b90508160008083815260200190815260200160002060008201518160000160006101000a81548173ffffffffffffffffffffffffffffffffffffffff021916908373ffffffffffffffffffffffffffffffffffffffff160217905550602082015181600101908051906020019061047b929190610dca565b5060408201518160020160006101000a81548160ff02191690831515021790555060608201518160030190805190602001906104b8929190610dca565b5060808201518160040155905050506105a8565b80600080600254815260200190815260200160002060008201518160000160006101000a81548173ffffffffffffffffffffffffffffffffffffffff021916908373ffffffffffffffffffffffffffffffffffffffff1602179055506020820151816001019080519060200190610544929190610dca565b5060408201518160020160006101000a81548160ff0219169083151502179055506060820151816003019080519060200190610581929190610dca565b5060808201518160040155905050600260008154809291906105a290611559565b91905055505b505050505050565b8060008084815260200190815260200160002060010190805190602001906105d9929190610dca565b505050565b60008082815260200190815260200160002060000160009054906101000a900473ffffffffffffffffffffffffffffffffffffffff1673ffffffffffffffffffffffffffffffffffffffff163373ffffffffffffffffffffffffffffffffffffffff16141561064c57600080fd5b60008073ffffffffffffffffffffffffffffffffffffffff1663e99d286660008085815260200190815260200160002060000160009054906101000a900473ffffffffffffffffffffffffffffffffffffffff166040518263ffffffff1660e01b81526004016106bc91906113b9565b600060405180830381600087803b1580156106d657600080fd5b505af11580156106ea573d6000803e3d6000fd5b505050508073ffffffffffffffffffffffffffffffffffffffff1663a3f09ad6336040518263ffffffff1660e01b815260040161072791906113b9565b600060405180830381600087803b15801561074157600080fd5b505af1158015610755573d6000803e3d6000fd5b505050508073ffffffffffffffffffffffffffffffffffffffff16631c9c088a306040518263ffffffff1660e01b815260040161079291906113b9565b600060405180830381600087803b1580156107ac57600080fd5b505af11580156107c0573d6000803e3d6000fd5b505050508073ffffffffffffffffffffffffffffffffffffffff166391b7f5ed600080858152602001908152602001600020600401546040518263ffffffff1660e01b8152600401610812919061138f565b600060405180830381600087803b15801561082c57600080fd5b505af1158015610840573d6000803e3d6000fd5b505050508073ffffffffffffffffffffffffffffffffffffffff1663b60d42886040518163ffffffff1660e01b8152600401600060405180830381600087803b15801561088c57600080fd5b505af11580156108a0573d6000803e3d6000fd5b505050508073ffffffffffffffffffffffffffffffffffffffff166329bb3c896040518163ffffffff1660e01b8152600401600060405180830381600087803b1580156108ec57600080fd5b505af1158015610900573d6000803e3d6000fd5b505050503360008084815260200190815260200160002060000160006101000a81548173ffffffffffffffffffffffffffffffffffffffff021916908373ffffffffffffffffffffffffffffffffffffffff16021790555061096182610a64565b5050565b60606000808381526020019081526020016000206003018054610987906115d1565b80601f01602080910402602001604051908101604052809291908181526020018280546109b3906115d1565b8015610a005780601f106109d557610100808354040283529160200191610a00565b820191906000526020600020905b8154815290600101906020018083116109e357829003601f168201915b50505050509050919050565b8060008084815260200190815260200160002060000160006101000a81548173ffffffffffffffffffffffffffffffffffffffff021916908373ffffffffffffffffffffffffffffffffffffffff1602179055505050565b600080828152602001908152602001600020600080820160006101000a81549073ffffffffffffffffffffffffffffffffffffffff0219169055600182016000610aae9190610e97565b6002820160006101000a81549060ff0219169055600382016000610ad29190610e97565b60048201600090555050600181908060018154018082558091505060019003906000526020600020016000909190919091505550565b6000600254905090565b600080600083815260200190815260200160002060000160009054906101000a900473ffffffffffffffffffffffffffffffffffffffff169050919050565b610b59610e50565b6000808381526020019081526020016000206040518060a00160405290816000820160009054906101000a900473ffffffffffffffffffffffffffffffffffffffff1673ffffffffffffffffffffffffffffffffffffffff1673ffffffffffffffffffffffffffffffffffffffff168152602001600182018054610bdc906115d1565b80601f0160208091040260200160405190810160405280929190818152602001828054610c08906115d1565b8015610c555780601f10610c2a57610100808354040283529160200191610c55565b820191906000526020600020905b815481529060010190602001808311610c3857829003601f168201915b505050505081526020016002820160009054906101000a900460ff16151515158152602001600382018054610c89906115d1565b80601f0160208091040260200160405190810160405280929190818152602001828054610cb5906115d1565b8015610d025780601f10610cd757610100808354040283529160200191610d02565b820191906000526020600020905b815481529060010190602001808311610ce557829003601f168201915b505050505081526020016004820154815250509050919050565b6000806000838152602001908152602001600020600401549050919050565b80600080848152602001908152602001600020600401819055505050565b60008060018054905011905090565b6000806001808080549050610d7d9190611603565b81548110610d8e57610d8d611637565b5b906000526020600020015490506001805480610dad57610dac611666565b5b600190038181906000526020600020016000905590558091505090565b828054610dd6906115d1565b90600052602060002090601f016020900481019282610df85760008555610e3f565b82601f10610e1157805160ff1916838001178555610e3f565b82800160010185558215610e3f579182015b82811115610e3e578251825591602001919060010190610e23565b5b509050610e4c9190610ed7565b5090565b6040518060a00160405280600073ffffffffffffffffffffffffffffffffffffffff1681526020016060815260200160001515815260200160608152602001600081525090565b508054610ea3906115d1565b6000825580601f10610eb55750610ed4565b601f016020900490600052602060002090810190610ed39190610ed7565b5b50565b5b80821115610ef0576000816000905550600101610ed8565b5090565b6000604051905090565b600080fd5b600080fd5b6000819050919050565b610f1b81610f08565b8114610f2657600080fd5b50565b600081359050610f3881610f12565b92915050565b60008115159050919050565b610f5381610f3e565b8114610f5e57600080fd5b50565b600081359050610f7081610f4a565b92915050565b60008060408385031215610f8d57610f8c610efe565b5b6000610f9b85828601610f29565b9250506020610fac85828601610f61565b9150509250929050565b600080fd5b600080fd5b6000601f19601f8301169050919050565b7f4e487b7100000000000000000000000000000000000000000000000000000000600052604160045260246000fd5b61100982610fc0565b810181811067ffffffffffffffff8211171561102857611027610fd1565b5b80604052505050565b600061103b610ef4565b90506110478282611000565b919050565b600067ffffffffffffffff82111561106757611066610fd1565b5b61107082610fc0565b9050602081019050919050565b82818337600083830152505050565b600061109f61109a8461104c565b611031565b9050828152602081018484840111156110bb576110ba610fbb565b5b6110c684828561107d565b509392505050565b600082601f8301126110e3576110e2610fb6565b5b81356110f384826020860161108c565b91505092915050565b6000806040838503121561111357611112610efe565b5b600061112185828601610f29565b925050602083013567ffffffffffffffff81111561114257611141610f03565b5b61114e858286016110ce565b9150509250929050565b600073ffffffffffffffffffffffffffffffffffffffff82169050919050565b600061118382611158565b9050919050565b61119381611178565b811461119e57600080fd5b50565b6000813590506111b08161118a565b92915050565b600080600080600060a086880312156111d2576111d1610efe565b5b60006111e0888289016111a1565b955050602086013567ffffffffffffffff81111561120157611200610f03565b5b61120d888289016110ce565b945050604061121e88828901610f61565b935050606086013567ffffffffffffffff81111561123f5761123e610f03565b5b61124b888289016110ce565b925050608061125c88828901610f29565b9150509295509295909350565b60006020828403121561127f5761127e610efe565b5b600061128d84828501610f29565b91505092915050565b600081519050919050565b600082825260208201905092915050565b60005b838110156112d05780820151818401526020810190506112b5565b838111156112df576000848401525b50505050565b60006112f082611296565b6112fa81856112a1565b935061130a8185602086016112b2565b61131381610fc0565b840191505092915050565b6000602082019050818103600083015261133881846112e5565b905092915050565b6000806040838503121561135757611356610efe565b5b600061136585828601610f29565b9250506020611376858286016111a1565b9150509250929050565b61138981610f08565b82525050565b60006020820190506113a46000830184611380565b92915050565b6113b381611178565b82525050565b60006020820190506113ce60008301846113aa565b92915050565b6113dd81611178565b82525050565b600082825260208201905092915050565b60006113ff82611296565b61140981856113e3565b93506114198185602086016112b2565b61142281610fc0565b840191505092915050565b61143681610f3e565b82525050565b61144581610f08565b82525050565b600060a08301600083015161146360008601826113d4565b506020830151848203602086015261147b82826113f4565b9150506040830151611490604086018261142d565b50606083015184820360608601526114a882826113f4565b91505060808301516114bd608086018261143c565b508091505092915050565b600060208201905081810360008301526114e2818461144b565b905092915050565b6000806040838503121561150157611500610efe565b5b600061150f85828601610f29565b925050602061152085828601610f29565b9150509250929050565b7f4e487b7100000000000000000000000000000000000000000000000000000000600052601160045260246000fd5b600061156482610f08565b91507fffffffffffffffffffffffffffffffffffffffffffffffffffffffffffffffff8214156115975761159661152a565b5b600182019050919050565b7f4e487b7100000000000000000000000000000000000000000000000000000000600052602260045260246000fd5b600060028204905060018216806115e957607f821691505b602082108114156115fd576115fc6115a2565b5b50919050565b600061160e82610f08565b915061161983610f08565b92508282101561162c5761162b61152a565b5b828203905092915050565b7f4e487b7100000000000000000000000000000000000000000000000000000000600052603260045260246000fd5b7f4e487b7100000000000000000000000000000000000000000000000000000000600052603160045260246000fdfea2646970667358221220485e71b500d9a314669b97d0fdc4c7478d24c008ba7761b50b20b124a70be49864736f6c634300080a0033",
  "immutableReferences": {},
  "source": "// SPDX-License-Identifier: MIT\npragma solidity >=0.8.3 <0.9.0;\nimport \"./Escrow.sol\";\n// import \"./Book.sol\";\n\n// contract to handle an entire transaction and to execute the escrow\ncontract BookArbiter{\n    \n    //Model a Book\n    struct Book{\n        address payable seller; //seller wallet id\n        string title; //book Title\n        bool physical; // 0 = no, 1 = yes\n        string hash;\n        uint price; // price of the book\n    }\n\n    ///////////////////////\n    // Set-Get Fxns for book\n        // Set seller variable\n    function setSeller(uint index, address payable _seller) external{\n        books[index].seller = _seller;\n    }\n\n    function getSeller(uint index) external view returns(address payable){\n        return books[index].seller;\n    }\n\n    // Set title variable\n    function setTitle(uint index, string memory _title) external{\n        books[index].title = _title;\n    }\n\n    // Set Hash variable\n    function setHash(uint index, string memory _hash) external{\n        books[index].hash = _hash;\n    }\n\n\n    // Get physical variable\n    function getHash(uint index) external view returns(string memory){\n        return books[index].hash;\n    }\n\n    // Set physical variable\n    function setPhysical(uint index, bool _phys) external{\n        books[index].physical = _phys;\n    }\n\n    // Set price variables\n    function setPrice(uint index, uint _price) external{\n        books[index].price = _price;\n    }\n\n    function getPrice(uint index) external view returns(uint){\n        return books[index].price;\n    }\n\n    ///////////////////////\n\n    // two one-to-one maps to hold books and their prices\n    mapping(uint => Book) private books; // mapping of book id to book\n\n    uint[] private emptyIds; // array of book prices for easy iteration\n\n    uint private bookCount = 0; // number of books in the contract\n\n    constructor () public {\n        // make stuff happen\n        //bookCount = 0;\n    }\n\n    function checkEmptyIds() private view returns (bool) {\n        return emptyIds.length > 0;\n    }\n\n    function getEmptyId() private returns (uint) {\n        uint temp = emptyIds[emptyIds.length - 1];\n        emptyIds.pop();\n        return temp;\n    }\n\n    function addBook(address payable _seller, string memory _bookTitle, bool ePfd, string memory _hash, uint _price) public {\n        // construct and initialize new book\n        Book memory newBook;\n        \n        // use set fxns to fill out struct object\n        newBook.seller = _seller;\n        newBook.title = _bookTitle;\n        newBook.physical = ePfd;\n        newBook.hash = _hash;\n        newBook.price = _price;\n\n        // newBook.uploadBook(_hash, 0); // get fil from given hash, will need to be integrated with js to upload to IPFS\n\n        // check existing mapping to find any empty indexes for use before pushing\n        if (checkEmptyIds()) {\n            uint temp = getEmptyId(); // get empty ID index and remove it from array\n            // Use index to set place for a new book\n            books[temp] = newBook;\n        } else { // if no new spots, then add fresh book to the mappings\n            books[bookCount] = newBook;\n            bookCount ++; //increment amount of books in the contract\n        }\n    }\n\n    // returns a book struct object\n    function getBook(uint _id) public view returns (Book memory) {\n        return books[_id];\n    }\n\n    // returns amount of books in list\n    function getAmount() external view returns (uint) {\n        return bookCount;\n    }\n\n    function removeBook(uint _id) public {\n        delete books[_id]; // zero out index in mapping\n        emptyIds.push(_id);  // add index to emptyIds array\n    }\n\n    // check age of a contract, use to push command to and from the Escrow contract of a purchase\n\n    function Transaction(uint _id) public payable {\n        require(msg.sender != books[_id].seller); // make sure that the seller is the one who is sending the funds\n\n        // create escrow contract, books[_id].price is the price of the book for the transaction\n        Escrow escrow; // create escrow contract\n\n        // initialize escrow contract\n        escrow.setSeller(books[_id].seller);\n        escrow.setBuyer(payable(msg.sender));\n        escrow.setArbiter(payable(address(this)));\n        escrow.setPrice(books[_id].price);\n\n        // send funds to escrow contract and begin execution\n        // escrow.init();\n        escrow.fund();\n        escrow.payoutToSeller(); // pay item to seller\n        books[_id].seller = payable(msg.sender); // change ownership of book item\n\n        //remove book from item list\n        removeBook(_id);\n    }\n\n}\n\n// It may be possible to use Django and cut out book arbiter\n// create a basice website that would handle transactions\n// and carry out contracts with their ID's\n// it would technically be centralized though, so unpreferred",
  "sourcePath": "/home/june/Documents/UNT/CSCE 4575/project files/Blockchain_bookstore/contracts/BookArbiter.sol",
  "compiler": {
    "name": "solc",
    "version": "0.8.10+commit.fc410830.Emscripten.clang"
  },
  "schemaVersion": "3.4.3",
  "updatedAt": "2021-11-20T03:45:33.189Z",
  "networkType": "ethereum",
  "devdoc": {
    "kind": "dev",
    "methods": {},
    "version": 1
  },
  "userdoc": {
    "kind": "user",
    "methods": {},
    "version": 1
  }
}