{
  "contractName": "BookArbiter",
  "abi": [
    {
      "inputs": [],
      "stateMutability": "nonpayable",
      "type": "constructor"
    },
    {
      "anonymous": false,
      "inputs": [
        {
          "indexed": false,
          "internalType": "address",
          "name": "newAddress",
          "type": "address"
        }
      ],
      "name": "ContractCreated",
      "type": "event"
    },
    {
      "anonymous": false,
      "inputs": [
        {
          "indexed": false,
          "internalType": "uint256",
          "name": "_timestamp",
          "type": "uint256"
        }
      ],
      "name": "NewOwnership",
      "type": "event"
    },
    {
      "anonymous": false,
      "inputs": [
        {
          "indexed": false,
          "internalType": "uint256",
          "name": "_timestamp",
          "type": "uint256"
        }
      ],
      "name": "TransactionCreated",
      "type": "event"
    },
    {
      "anonymous": false,
      "inputs": [
        {
          "indexed": false,
          "internalType": "uint256",
          "name": "_amount",
          "type": "uint256"
        }
      ],
      "name": "TransactionFunded",
      "type": "event"
    },
    {
      "stateMutability": "payable",
      "type": "fallback",
      "payable": true
    },
    {
      "stateMutability": "payable",
      "type": "receive",
      "payable": true
    },
    {
      "inputs": [
        {
          "internalType": "address payable",
          "name": "_seller",
          "type": "address"
        },
        {
          "internalType": "string",
          "name": "_bookTitle",
          "type": "string"
        },
        {
          "internalType": "bool",
          "name": "ePfd",
          "type": "bool"
        },
        {
          "internalType": "string",
          "name": "_hash",
          "type": "string"
        },
        {
          "internalType": "uint256",
          "name": "_price",
          "type": "uint256"
        }
      ],
      "name": "addBook",
      "outputs": [],
      "stateMutability": "nonpayable",
      "type": "function"
    },
    {
      "inputs": [
        {
          "internalType": "uint256",
          "name": "_id",
          "type": "uint256"
        }
      ],
      "name": "getBook",
      "outputs": [
        {
          "internalType": "address payable",
          "name": "",
          "type": "address"
        }
      ],
      "stateMutability": "view",
      "type": "function",
      "constant": true
    },
    {
      "inputs": [],
      "name": "getCount",
      "outputs": [
        {
          "internalType": "uint256",
          "name": "",
          "type": "uint256"
        }
      ],
      "stateMutability": "view",
      "type": "function",
      "constant": true
    },
    {
      "inputs": [
        {
          "internalType": "uint256",
          "name": "_id",
          "type": "uint256"
        }
      ],
      "name": "removeBook",
      "outputs": [],
      "stateMutability": "nonpayable",
      "type": "function"
    },
    {
      "inputs": [
        {
          "internalType": "uint256",
          "name": "_id",
          "type": "uint256"
        },
        {
          "internalType": "address",
          "name": "_buyer",
          "type": "address"
        }
      ],
      "name": "createTxn",
      "outputs": [
        {
          "internalType": "bool",
          "name": "",
          "type": "bool"
        }
      ],
      "stateMutability": "payable",
      "type": "function",
      "payable": true
    },
    {
      "inputs": [
        {
          "internalType": "uint256",
          "name": "_id",
          "type": "uint256"
        }
      ],
      "name": "fundTxn",
      "outputs": [],
      "stateMutability": "payable",
      "type": "function",
      "payable": true
    },
    {
      "inputs": [
        {
          "internalType": "uint256",
          "name": "_id",
          "type": "uint256"
        }
      ],
      "name": "validateTxn",
      "outputs": [],
      "stateMutability": "payable",
      "type": "function",
      "payable": true
    }
  ],
  "bytecode": "0x608060405234801561001057600080fd5b506000600281905550612c6d806100286000396000f3fe6080604052600436106200007f5760003560e01c8063493b0e6e1162000055578063493b0e6e1462000171578063a87d942c146200019f578063bec0d79914620001cf578063e0ff5b8b14620001fd57620000c0565b806310873eac14620000fb57806324d56a6c14620001315780632eb3b6e9146200015157620000c0565b36620000c0577fd590970add269340933b9f3e16c250fc8490304d321ae34e32b9270373ba37e242604051620000b6919062000a03565b60405180910390a1005b7f20249019acac6e99959366f842671611cd943aa8071804678030725f38bc787e42604051620000f1919062000a03565b60405180910390a1005b62000119600480360381019062000113919062000aca565b62000241565b60405162000128919062000b2e565b60405180910390f35b6200014f600480360381019062000149919062000b4b565b6200047f565b005b6200016f600480360381019062000169919062000b4b565b620005c4565b005b3480156200017e57600080fd5b506200019d600480360381019062000197919062000d55565b62000789565b005b348015620001ac57600080fd5b50620001b7620008ba565b604051620001c6919062000a03565b60405180910390f35b348015620001dc57600080fd5b50620001fb6004803603810190620001f5919062000b4b565b620008c4565b005b3480156200020a57600080fd5b5062000229600480360381019062000223919062000b4b565b62000925565b60405162000238919062000e2c565b60405180910390f35b60008060008085815260200190815260200160002060009054906101000a900473ffffffffffffffffffffffffffffffffffffffff1690507f20249019acac6e99959366f842671611cd943aa8071804678030725f38bc787e42604051620002aa919062000a03565b60405180910390a17fcf78cf0d6f3d8371e1075c69c492ab4ec5d8cf23a1a239b6a51a1d00be7ca31281604051620002e3919062000e5a565b60405180910390a18073ffffffffffffffffffffffffffffffffffffffff1663dbd0e1b66040518163ffffffff1660e01b8152600401602060405180830381865afa15801562000337573d6000803e3d6000fd5b505050506040513d601f19601f820116820180604052508101906200035d919062000e8e565b73ffffffffffffffffffffffffffffffffffffffff163373ffffffffffffffffffffffffffffffffffffffff1614156200039657600080fd5b8073ffffffffffffffffffffffffffffffffffffffff1663a3f09ad6846040518263ffffffff1660e01b8152600401620003d1919062000e2c565b600060405180830381600087803b158015620003ec57600080fd5b505af115801562000401573d6000803e3d6000fd5b505050508073ffffffffffffffffffffffffffffffffffffffff16631c9c088a306040518263ffffffff1660e01b815260040162000440919062000e2c565b600060405180830381600087803b1580156200045b57600080fd5b505af115801562000470573d6000803e3d6000fd5b50505050600191505092915050565b600080600083815260200190815260200160002060009054906101000a900473ffffffffffffffffffffffffffffffffffffffff1690508073ffffffffffffffffffffffffffffffffffffffff16636901f6686040518163ffffffff1660e01b8152600401600060405180830381600087803b158015620004ff57600080fd5b505af115801562000514573d6000803e3d6000fd5b505050508073ffffffffffffffffffffffffffffffffffffffff1663e99d2866336040518263ffffffff1660e01b815260040162000553919062000e2c565b600060405180830381600087803b1580156200056e57600080fd5b505af115801562000583573d6000803e3d6000fd5b505050507fc6b2a45324207354b059e55a92bc00eab257f8a10da1a4505368f4d79c7fb85242604051620005b8919062000a03565b60405180910390a15050565b600080600083815260200190815260200160002060009054906101000a900473ffffffffffffffffffffffffffffffffffffffff1690508073ffffffffffffffffffffffffffffffffffffffff166398d5fdca6040518163ffffffff1660e01b8152600401602060405180830381865afa15801562000647573d6000803e3d6000fd5b505050506040513d601f19601f820116820180604052508101906200066d919062000ed7565b34146200067957600080fd5b8073ffffffffffffffffffffffffffffffffffffffff1663b60d42886040518163ffffffff1660e01b8152600401600060405180830381600087803b158015620006c257600080fd5b505af1158015620006d7573d6000803e3d6000fd5b505050507fd590970add269340933b9f3e16c250fc8490304d321ae34e32b9270373ba37e28173ffffffffffffffffffffffffffffffffffffffff166398d5fdca6040518163ffffffff1660e01b8152600401602060405180830381865afa15801562000748573d6000803e3d6000fd5b505050506040513d601f19601f820116820180604052508101906200076e919062000ed7565b6040516200077d919062000a03565b60405180910390a15050565b600085858585856040516200079e90620009da565b620007ae95949392919062000f9c565b604051809103906000f080158015620007cb573d6000803e3d6000fd5b509050620007d862000961565b1562000844576000620007ea62000970565b90508160008083815260200190815260200160002060006101000a81548173ffffffffffffffffffffffffffffffffffffffff021916908373ffffffffffffffffffffffffffffffffffffffff16021790555050620008b2565b80600080600254815260200190815260200160002060006101000a81548173ffffffffffffffffffffffffffffffffffffffff021916908373ffffffffffffffffffffffffffffffffffffffff16021790555060026000815480929190620008ac9062001036565b91905055505b505050505050565b6000600254905090565b60008082815260200190815260200160002060006101000a81549073ffffffffffffffffffffffffffffffffffffffff0219169055600181908060018154018082558091505060019003906000526020600020016000909190919091505550565b600080600083815260200190815260200160002060009054906101000a900473ffffffffffffffffffffffffffffffffffffffff169050919050565b60008060018054905011905090565b600080600180808054905062000987919062001084565b815481106200099b576200099a620010bf565b5b906000526020600020015490506001805480620009bd57620009bc620010ee565b5b600190038181906000526020600020016000905590558091505090565b611b1a806200111e83390190565b6000819050919050565b620009fd81620009e8565b82525050565b600060208201905062000a1a6000830184620009f2565b92915050565b6000604051905090565b600080fd5b600080fd5b62000a3f81620009e8565b811462000a4b57600080fd5b50565b60008135905062000a5f8162000a34565b92915050565b600073ffffffffffffffffffffffffffffffffffffffff82169050919050565b600062000a928262000a65565b9050919050565b62000aa48162000a85565b811462000ab057600080fd5b50565b60008135905062000ac48162000a99565b92915050565b6000806040838503121562000ae45762000ae362000a2a565b5b600062000af48582860162000a4e565b925050602062000b078582860162000ab3565b9150509250929050565b60008115159050919050565b62000b288162000b11565b82525050565b600060208201905062000b45600083018462000b1d565b92915050565b60006020828403121562000b645762000b6362000a2a565b5b600062000b748482850162000a4e565b91505092915050565b600062000b8a8262000a65565b9050919050565b62000b9c8162000b7d565b811462000ba857600080fd5b50565b60008135905062000bbc8162000b91565b92915050565b600080fd5b600080fd5b6000601f19601f8301169050919050565b7f4e487b7100000000000000000000000000000000000000000000000000000000600052604160045260246000fd5b62000c178262000bcc565b810181811067ffffffffffffffff8211171562000c395762000c3862000bdd565b5b80604052505050565b600062000c4e62000a20565b905062000c5c828262000c0c565b919050565b600067ffffffffffffffff82111562000c7f5762000c7e62000bdd565b5b62000c8a8262000bcc565b9050602081019050919050565b82818337600083830152505050565b600062000cbd62000cb78462000c61565b62000c42565b90508281526020810184848401111562000cdc5762000cdb62000bc7565b5b62000ce984828562000c97565b509392505050565b600082601f83011262000d095762000d0862000bc2565b5b813562000d1b84826020860162000ca6565b91505092915050565b62000d2f8162000b11565b811462000d3b57600080fd5b50565b60008135905062000d4f8162000d24565b92915050565b600080600080600060a0868803121562000d745762000d7362000a2a565b5b600062000d848882890162000bab565b955050602086013567ffffffffffffffff81111562000da85762000da762000a2f565b5b62000db68882890162000cf1565b945050604062000dc98882890162000d3e565b935050606086013567ffffffffffffffff81111562000ded5762000dec62000a2f565b5b62000dfb8882890162000cf1565b925050608062000e0e8882890162000a4e565b9150509295509295909350565b62000e268162000b7d565b82525050565b600060208201905062000e43600083018462000e1b565b92915050565b62000e548162000a85565b82525050565b600060208201905062000e71600083018462000e49565b92915050565b60008151905062000e888162000a99565b92915050565b60006020828403121562000ea75762000ea662000a2a565b5b600062000eb78482850162000e77565b91505092915050565b60008151905062000ed18162000a34565b92915050565b60006020828403121562000ef05762000eef62000a2a565b5b600062000f008482850162000ec0565b91505092915050565b600081519050919050565b600082825260208201905092915050565b60005b8381101562000f4557808201518184015260208101905062000f28565b8381111562000f55576000848401525b50505050565b600062000f688262000f09565b62000f74818562000f14565b935062000f8681856020860162000f25565b62000f918162000bcc565b840191505092915050565b600060a08201905062000fb3600083018862000e1b565b818103602083015262000fc7818762000f5b565b905062000fd8604083018662000b1d565b818103606083015262000fec818562000f5b565b905062000ffd6080830184620009f2565b9695505050505050565b7f4e487b7100000000000000000000000000000000000000000000000000000000600052601160045260246000fd5b60006200104382620009e8565b91507fffffffffffffffffffffffffffffffffffffffffffffffffffffffffffffffff82141562001079576200107862001007565b5b600182019050919050565b60006200109182620009e8565b91506200109e83620009e8565b925082821015620010b457620010b362001007565b5b828203905092915050565b7f4e487b7100000000000000000000000000000000000000000000000000000000600052603260045260246000fd5b7f4e487b7100000000000000000000000000000000000000000000000000000000600052603160045260246000fdfe6080604052633b9aca00600555633b9aca006006556001600755600060085560006009553480156200003057600080fd5b5060405162001b1a38038062001b1a83398181016040528101906200005691906200043c565b84600160006101000a81548173ffffffffffffffffffffffffffffffffffffffff021916908373ffffffffffffffffffffffffffffffffffffffff16021790555083600a6000019080519060200190620000b292919062000112565b5082600a60010160006101000a81548160ff02191690831515021790555081600a6002019080519060200190620000eb92919062000112565b5066038d7ea4c680008162000101919062000531565b6003819055505050505050620005f7565b8280546200012090620005c1565b90600052602060002090601f01602090048101928262000144576000855562000190565b82601f106200015f57805160ff191683800117855562000190565b8280016001018555821562000190579182015b828111156200018f57825182559160200191906001019062000172565b5b5090506200019f9190620001a3565b5090565b5b80821115620001be576000816000905550600101620001a4565b5090565b6000604051905090565b600080fd5b600080fd5b600073ffffffffffffffffffffffffffffffffffffffff82169050919050565b60006200020382620001d6565b9050919050565b6200021581620001f6565b81146200022157600080fd5b50565b60008151905062000235816200020a565b92915050565b600080fd5b600080fd5b6000601f19601f8301169050919050565b7f4e487b7100000000000000000000000000000000000000000000000000000000600052604160045260246000fd5b620002908262000245565b810181811067ffffffffffffffff82111715620002b257620002b162000256565b5b80604052505050565b6000620002c7620001c2565b9050620002d5828262000285565b919050565b600067ffffffffffffffff821115620002f857620002f762000256565b5b620003038262000245565b9050602081019050919050565b60005b838110156200033057808201518184015260208101905062000313565b8381111562000340576000848401525b50505050565b60006200035d6200035784620002da565b620002bb565b9050828152602081018484840111156200037c576200037b62000240565b5b6200038984828562000310565b509392505050565b600082601f830112620003a957620003a86200023b565b5b8151620003bb84826020860162000346565b91505092915050565b60008115159050919050565b620003db81620003c4565b8114620003e757600080fd5b50565b600081519050620003fb81620003d0565b92915050565b6000819050919050565b620004168162000401565b81146200042257600080fd5b50565b60008151905062000436816200040b565b92915050565b600080600080600060a086880312156200045b576200045a620001cc565b5b60006200046b8882890162000224565b955050602086015167ffffffffffffffff8111156200048f576200048e620001d1565b5b6200049d8882890162000391565b9450506040620004b088828901620003ea565b935050606086015167ffffffffffffffff811115620004d457620004d3620001d1565b5b620004e28882890162000391565b9250506080620004f58882890162000425565b9150509295509295909350565b7f4e487b7100000000000000000000000000000000000000000000000000000000600052601160045260246000fd5b60006200053e8262000401565b91506200054b8362000401565b9250817fffffffffffffffffffffffffffffffffffffffffffffffffffffffffffffffff048311821515161562000587576200058662000502565b5b828202905092915050565b7f4e487b7100000000000000000000000000000000000000000000000000000000600052602260045260246000fd5b60006002820490506001821680620005da57607f821691505b60208210811415620005f157620005f062000592565b5b50919050565b61151380620006076000396000f3fe6080604052600436106101435760003560e01c806398d5fdca116100b6578063dbd0e1b61161006f578063dbd0e1b614610443578063e0c6190d1461046e578063e8a61cc814610499578063e99d2866146104b0578063ea495842146104d9578063ff3c1a8f1461050457610181565b806398d5fdca14610366578063a3f09ad614610391578063b60d4288146103ba578063b69ef8a8146103c4578063c83dc3a3146103ef578063d13319c41461041857610181565b80631ed83fd4116101085780631ed83fd41461029f57806341c0e1b5146102c85780636901f668146102df57806372910be0146102e95780638c4799251461031257806391b7f5ed1461033d57610181565b80622bc52e146101ba578063039aec2d146101e3578063149bf50e14610220578063162433561461024b5780631c9c088a1461027657610181565b36610181577fe455499c2acd509bdadebaf5a8fd54c083da31dbe98e785f2a72cdff04e32e00426040516101779190610f52565b60405180910390a1005b7fe455499c2acd509bdadebaf5a8fd54c083da31dbe98e785f2a72cdff04e32e00426040516101b09190610f52565b60405180910390a1005b3480156101c657600080fd5b506101e160048036038101906101dc9190610fb9565b61052f565b005b3480156101ef57600080fd5b5061020a60048036038101906102059190611012565b61054f565b6040516102179190610f52565b60405180910390f35b34801561022c57600080fd5b5061023561056b565b6040516102429190611080565b60405180910390f35b34801561025757600080fd5b50610260610594565b60405161026d9190610f52565b60405180910390f35b34801561028257600080fd5b5061029d600480360381019061029891906110d9565b61059a565b005b3480156102ab57600080fd5b506102c660048036038101906102c1919061124c565b6105de565b005b3480156102d457600080fd5b506102dd6105fb565b005b6102e761066c565b005b3480156102f557600080fd5b50610310600480360381019061030b919061124c565b6108d4565b005b34801561031e57600080fd5b506103276108f1565b6040516103349190610f52565b60405180910390f35b34801561034957600080fd5b50610364600480360381019061035f9190611012565b6108f7565b005b34801561037257600080fd5b5061037b610901565b6040516103889190610f52565b60405180910390f35b34801561039d57600080fd5b506103b860048036038101906103b391906110d9565b61090b565b005b6103c261094e565b005b3480156103d057600080fd5b506103d9610a07565b6040516103e69190610f52565b60405180910390f35b3480156103fb57600080fd5b5061041660048036038101906104119190611012565b610a0d565b005b34801561042457600080fd5b5061042d610b60565b60405161043a919061131d565b60405180910390f35b34801561044f57600080fd5b50610458610bf5565b6040516104659190611080565b60405180910390f35b34801561047a57600080fd5b50610483610c1f565b604051610490919061134e565b60405180910390f35b3480156104a557600080fd5b506104ae610c51565b005b3480156104bc57600080fd5b506104d760048036038101906104d291906110d9565b610da3565b005b3480156104e557600080fd5b506104ee610de7565b6040516104fb919061134e565b60405180910390f35b34801561051057600080fd5b50610519610e01565b604051610526919061131d565b60405180910390f35b80600a60010160006101000a81548160ff02191690831515021790555050565b600066038d7ea4c68000826105649190611398565b9050919050565b60008060009054906101000a900473ffffffffffffffffffffffffffffffffffffffff16905090565b60095481565b80600260006101000a81548173ffffffffffffffffffffffffffffffffffffffff021916908373ffffffffffffffffffffffffffffffffffffffff16021790555050565b80600a60020190805190602001906105f7929190610e96565b5050565b600260009054906101000a900473ffffffffffffffffffffffffffffffffffffffff1673ffffffffffffffffffffffffffffffffffffffff163373ffffffffffffffffffffffffffffffffffffffff16141561066a573073ffffffffffffffffffffffffffffffffffffffff16ff5b565b6000600454106108d257600354600454111561079557600060035460045461069491906113f2565b905060008054906101000a900473ffffffffffffffffffffffffffffffffffffffff1673ffffffffffffffffffffffffffffffffffffffff166108fc829081150290604051600060405180830381858888f193505050501580156106fc573d6000803e3d6000fd5b50806004600082825461070f91906113f2565b92505081905550610721600454610a0d565b7ff484d07f255ad864671e45ca713ac3a9b593f61fc7df18a1930cdd13977a744c426040516107509190610f52565b60405180910390a17f9496273f5a13d097a94eeecc2fcbcb6a8d26132fa9db01849d964521307dccc5426040516107879190610f52565b60405180910390a1506108d1565b60035460045414156107f0576107ac600454610a0d565b60006004819055507ff484d07f255ad864671e45ca713ac3a9b593f61fc7df18a1930cdd13977a744c426040516107e39190610f52565b60405180910390a16108d0565b60008054906101000a900473ffffffffffffffffffffffffffffffffffffffff1673ffffffffffffffffffffffffffffffffffffffff166108fc6004549081150290604051600060405180830381858888f19350505050158015610858573d6000803e3d6000fd5b5060006004819055507f9496273f5a13d097a94eeecc2fcbcb6a8d26132fa9db01849d964521307dccc5426040516108909190610f52565b60405180910390a17fd018531c788764333726fda058e746c7b3af36700a8f1cfe4a074b2eb283d654426040516108c79190610f52565b60405180910390a15b5b5b565b80600a60000190805190602001906108ed929190610e96565b5050565b60035481565b8060038190555050565b6000600354905090565b806000806101000a81548173ffffffffffffffffffffffffffffffffffffffff021916908373ffffffffffffffffffffffffffffffffffffffff16021790555050565b600260009054906101000a900473ffffffffffffffffffffffffffffffffffffffff1673ffffffffffffffffffffffffffffffffffffffff163373ffffffffffffffffffffffffffffffffffffffff161480156109ac575060035434145b6109b557600080fd5b34600460008282546109c79190611426565b925050819055507fe455499c2acd509bdadebaf5a8fd54c083da31dbe98e785f2a72cdff04e32e00426040516109fd9190610f52565b60405180910390a1565b60045481565b60008054906101000a900473ffffffffffffffffffffffffffffffffffffffff1673ffffffffffffffffffffffffffffffffffffffff163373ffffffffffffffffffffffffffffffffffffffff161480610ab45750600260009054906101000a900473ffffffffffffffffffffffffffffffffffffffff1673ffffffffffffffffffffffffffffffffffffffff163373ffffffffffffffffffffffffffffffffffffffff16145b610abd57600080fd5b600160009054906101000a900473ffffffffffffffffffffffffffffffffffffffff1673ffffffffffffffffffffffffffffffffffffffff166108fc829081150290604051600060405180830381858888f19350505050158015610b25573d6000803e3d6000fd5b507ff484d07f255ad864671e45ca713ac3a9b593f61fc7df18a1930cdd13977a744c42604051610b559190610f52565b60405180910390a150565b6060600a6002018054610b72906114ab565b80601f0160208091040260200160405190810160405280929190818152602001828054610b9e906114ab565b8015610beb5780601f10610bc057610100808354040283529160200191610beb565b820191906000526020600020905b815481529060010190602001808311610bce57829003601f168201915b5050505050905090565b6000600160009054906101000a900473ffffffffffffffffffffffffffffffffffffffff16905090565b6000600754600854610c319190611426565b421015610c415760019050610c4e565b610c49610c51565b600090505b90565b600160009054906101000a900473ffffffffffffffffffffffffffffffffffffffff1673ffffffffffffffffffffffffffffffffffffffff163373ffffffffffffffffffffffffffffffffffffffff161480610cfa5750600260009054906101000a900473ffffffffffffffffffffffffffffffffffffffff1673ffffffffffffffffffffffffffffffffffffffff163373ffffffffffffffffffffffffffffffffffffffff16145b610d0357600080fd5b60008054906101000a900473ffffffffffffffffffffffffffffffffffffffff1673ffffffffffffffffffffffffffffffffffffffff166108fc479081150290604051600060405180830381858888f19350505050158015610d69573d6000803e3d6000fd5b507f9496273f5a13d097a94eeecc2fcbcb6a8d26132fa9db01849d964521307dccc542604051610d999190610f52565b60405180910390a1565b80600160006101000a81548173ffffffffffffffffffffffffffffffffffffffff021916908373ffffffffffffffffffffffffffffffffffffffff16021790555050565b6000600a60010160009054906101000a900460ff16905090565b6060600a6000018054610e13906114ab565b80601f0160208091040260200160405190810160405280929190818152602001828054610e3f906114ab565b8015610e8c5780601f10610e6157610100808354040283529160200191610e8c565b820191906000526020600020905b815481529060010190602001808311610e6f57829003601f168201915b5050505050905090565b828054610ea2906114ab565b90600052602060002090601f016020900481019282610ec45760008555610f0b565b82601f10610edd57805160ff1916838001178555610f0b565b82800160010185558215610f0b579182015b82811115610f0a578251825591602001919060010190610eef565b5b509050610f189190610f1c565b5090565b5b80821115610f35576000816000905550600101610f1d565b5090565b6000819050919050565b610f4c81610f39565b82525050565b6000602082019050610f676000830184610f43565b92915050565b6000604051905090565b600080fd5b600080fd5b60008115159050919050565b610f9681610f81565b8114610fa157600080fd5b50565b600081359050610fb381610f8d565b92915050565b600060208284031215610fcf57610fce610f77565b5b6000610fdd84828501610fa4565b91505092915050565b610fef81610f39565b8114610ffa57600080fd5b50565b60008135905061100c81610fe6565b92915050565b60006020828403121561102857611027610f77565b5b600061103684828501610ffd565b91505092915050565b600073ffffffffffffffffffffffffffffffffffffffff82169050919050565b600061106a8261103f565b9050919050565b61107a8161105f565b82525050565b60006020820190506110956000830184611071565b92915050565b60006110a68261103f565b9050919050565b6110b68161109b565b81146110c157600080fd5b50565b6000813590506110d3816110ad565b92915050565b6000602082840312156110ef576110ee610f77565b5b60006110fd848285016110c4565b91505092915050565b600080fd5b600080fd5b6000601f19601f8301169050919050565b7f4e487b7100000000000000000000000000000000000000000000000000000000600052604160045260246000fd5b61115982611110565b810181811067ffffffffffffffff8211171561117857611177611121565b5b80604052505050565b600061118b610f6d565b90506111978282611150565b919050565b600067ffffffffffffffff8211156111b7576111b6611121565b5b6111c082611110565b9050602081019050919050565b82818337600083830152505050565b60006111ef6111ea8461119c565b611181565b90508281526020810184848401111561120b5761120a61110b565b5b6112168482856111cd565b509392505050565b600082601f83011261123357611232611106565b5b81356112438482602086016111dc565b91505092915050565b60006020828403121561126257611261610f77565b5b600082013567ffffffffffffffff8111156112805761127f610f7c565b5b61128c8482850161121e565b91505092915050565b600081519050919050565b600082825260208201905092915050565b60005b838110156112cf5780820151818401526020810190506112b4565b838111156112de576000848401525b50505050565b60006112ef82611295565b6112f981856112a0565b93506113098185602086016112b1565b61131281611110565b840191505092915050565b6000602082019050818103600083015261133781846112e4565b905092915050565b61134881610f81565b82525050565b6000602082019050611363600083018461133f565b92915050565b7f4e487b7100000000000000000000000000000000000000000000000000000000600052601160045260246000fd5b60006113a382610f39565b91506113ae83610f39565b9250817fffffffffffffffffffffffffffffffffffffffffffffffffffffffffffffffff04831182151516156113e7576113e6611369565b5b828202905092915050565b60006113fd82610f39565b915061140883610f39565b92508282101561141b5761141a611369565b5b828203905092915050565b600061143182610f39565b915061143c83610f39565b9250827fffffffffffffffffffffffffffffffffffffffffffffffffffffffffffffffff0382111561147157611470611369565b5b828201905092915050565b7f4e487b7100000000000000000000000000000000000000000000000000000000600052602260045260246000fd5b600060028204905060018216806114c357607f821691505b602082108114156114d7576114d661147c565b5b5091905056fea26469706673582212202e1086dbc67f594d0fdc8671421de640c1c7224403bf8e0210739af54ad0a07964736f6c634300080a0033a264697066735822122095a7f8ab7990ab3a72fde9c524f8a759bd55fa9e33758ceb1d7acea533f273fc64736f6c634300080a0033",
  "immutableReferences": {},
  "source": "// SPDX-License-Identifier: MIT\npragma solidity >=0.8.3 <0.9.0;\nimport \"./Book.sol\";\n\n// contract to handle an entire transaction and to execute the escrow\ncontract BookArbiter{\n\n    // allow contract to use ETH\n    fallback() external payable {\n        // do nothing\n        emit TransactionCreated(block.timestamp);\n    }\n\n    // allow contract to hold ETH\n    receive() external payable {\n        // do nothing\n        emit TransactionFunded(block.timestamp);\n    }\n\n    // event\n    event TransactionCreated(uint _timestamp);\n    event TransactionFunded(uint _amount);\n    event NewOwnership(uint _timestamp);\n    event ContractCreated(address newAddress);\n    \n    /*\n    //Model a Book\n    struct Book{\n        address payable seller; //seller wallet id\n        string title; //book Title\n        bool physical; // 0 = no, 1 = yes\n        string hash;\n        uint price; // price of the book\n    }\n    */\n\n    ////////////////////////////\n    //////////////////////////\n    // two one-to-one maps to hold books and their prices\n    mapping(uint => address payable) private books; // mapping of book id to book\n\n    uint[] private emptyIds; // array of book prices for easy iteration\n\n    uint private bookCount; // number of books in the contract\n\n    constructor() public {\n        // make stuff happen\n        bookCount = 0;\n    }\n\n    function checkEmptyIds() private view returns (bool) {\n        return emptyIds.length > 0;\n    }\n\n    function getEmptyId() private returns (uint) {\n        uint temp = emptyIds[emptyIds.length - 1];\n        emptyIds.pop();\n        return temp;\n    }\n\n    function addBook(address payable _seller, string memory _bookTitle, bool ePfd, string memory _hash, uint _price) public {\n        // construct and initialize new book\n        Book newBook = new Book(_seller, _bookTitle, ePfd, _hash, _price);\n\n        // check existing mapping to find any empty indexes for use before pushing\n        if (checkEmptyIds()) {\n            uint temp = getEmptyId(); // get empty ID index and remove it from array\n            // Use index to set place for a new book\n            books[temp] = payable(address(newBook));\n        } else { // if no new spots, then add fresh book to the mappings\n            books[bookCount] = payable(address(newBook));\n            bookCount ++; //increment amount of books in the contract\n        }\n    }\n\n    // returns a book struct object\n    function getBook(uint _id) public view returns (address payable) {\n        return books[_id];\n    }\n\n    // returns amount of books in list\n    function getCount() external view returns (uint) {\n        return bookCount;\n    }\n\n    function removeBook(uint _id) public {\n        delete books[_id]; // zero out index in mapping\n        emptyIds.push(_id);  // add index to emptyIds array\n    }\n\n    ///// TRANSACTION FXNS /////\n    ////////////////////////////\n    function createTxn(uint _id, address _buyer) public payable returns (bool){\n        // create escrow contract\n        Book tome = Book(books[_id]); // get contract from address list\n        emit TransactionCreated(block.timestamp);\n        emit ContractCreated(address(tome));\n\n        // set price in Gwei and check requirements\n        require(msg.sender != tome.getSeller()); // make sure that the seller is the one who is sending the funds\n        // initialize txn contract extras\n        tome.setBuyer(payable(_buyer));\n        tome.setArbiter(payable(address(this)));\n\n         return true;\n    }\n\n    function fundTxn(uint _id) external payable {\n        Book tome = Book(books[_id]); // get contract from address list\n        require(msg.value == tome.getPrice());\n        tome.fund();\n        emit TransactionFunded(tome.getPrice());\n    }\n\n    function validateTxn(uint _id) external payable {\n        Book tome = Book(books[_id]); // get contract from\n        tome.validate();\n        tome.setSeller(payable(msg.sender)); // change ownership of book item\n        emit NewOwnership(block.timestamp);\n    }\n    ///////////////////////////////\n    //////////////////////////////\n\n}\n\n// It may be possible to use Django and cut out book arbiter\n// create a basice website that would handle transactions\n// and carry out contracts with their ID's\n// it would technically be centralized though, so unpreferred",
  "sourcePath": "/home/june/Documents/UNT/CSCE 4575/project files/Blockchain_bookstore/contracts/BookArbiter.sol",
  "compiler": {
    "name": "solc",
    "version": "0.8.10+commit.fc410830.Emscripten.clang"
  },
  "schemaVersion": "3.4.3",
  "updatedAt": "2021-11-29T03:33:09.531Z",
  "networkType": "ethereum",
  "devdoc": {
    "kind": "dev",
    "methods": {},
    "version": 1
  },
  "userdoc": {
    "kind": "user",
    "methods": {},
    "version": 1
  }
}