{
  "contractName": "Book",
  "abi": [
    {
      "inputs": [
        {
          "internalType": "address payable",
          "name": "_arbiter",
          "type": "address"
        },
        {
          "internalType": "address payable",
          "name": "_seller",
          "type": "address"
        },
        {
          "internalType": "string",
          "name": "_bookTitle",
          "type": "string"
        },
        {
          "internalType": "bool",
          "name": "ePfd",
          "type": "bool"
        },
        {
          "internalType": "string",
          "name": "_hash",
          "type": "string"
        },
        {
          "internalType": "uint256",
          "name": "_price",
          "type": "uint256"
        }
      ],
      "stateMutability": "nonpayable",
      "type": "constructor"
    },
    {
      "anonymous": false,
      "inputs": [
        {
          "indexed": false,
          "internalType": "uint256",
          "name": "_amount",
          "type": "uint256"
        }
      ],
      "name": "BuyerRefunded",
      "type": "event"
    },
    {
      "anonymous": false,
      "inputs": [
        {
          "indexed": false,
          "internalType": "uint256",
          "name": "_timestamp",
          "type": "uint256"
        }
      ],
      "name": "ContractNull",
      "type": "event"
    },
    {
      "anonymous": false,
      "inputs": [
        {
          "indexed": false,
          "internalType": "uint256",
          "name": "_amount",
          "type": "uint256"
        }
      ],
      "name": "FundingReceived",
      "type": "event"
    },
    {
      "anonymous": false,
      "inputs": [
        {
          "indexed": false,
          "internalType": "uint256",
          "name": "_amount",
          "type": "uint256"
        }
      ],
      "name": "SellerPaid",
      "type": "event"
    },
    {
      "stateMutability": "payable",
      "type": "fallback"
    },
    {
      "inputs": [],
      "name": "amountInEth",
      "outputs": [
        {
          "internalType": "uint256",
          "name": "",
          "type": "uint256"
        }
      ],
      "stateMutability": "view",
      "type": "function"
    },
    {
      "inputs": [],
      "name": "balance",
      "outputs": [
        {
          "internalType": "uint256",
          "name": "",
          "type": "uint256"
        }
      ],
      "stateMutability": "view",
      "type": "function"
    },
    {
      "inputs": [],
      "name": "checkTime",
      "outputs": [
        {
          "internalType": "bool",
          "name": "",
          "type": "bool"
        }
      ],
      "stateMutability": "nonpayable",
      "type": "function"
    },
    {
      "inputs": [
        {
          "internalType": "uint256",
          "name": "_amount",
          "type": "uint256"
        }
      ],
      "name": "convertAmount",
      "outputs": [
        {
          "internalType": "uint256",
          "name": "",
          "type": "uint256"
        }
      ],
      "stateMutability": "pure",
      "type": "function"
    },
    {
      "inputs": [],
      "name": "end_time",
      "outputs": [
        {
          "internalType": "uint256",
          "name": "",
          "type": "uint256"
        }
      ],
      "stateMutability": "view",
      "type": "function"
    },
    {
      "inputs": [],
      "name": "fund",
      "outputs": [],
      "stateMutability": "payable",
      "type": "function"
    },
    {
      "inputs": [],
      "name": "getPrice",
      "outputs": [
        {
          "internalType": "uint256",
          "name": "",
          "type": "uint256"
        }
      ],
      "stateMutability": "view",
      "type": "function"
    },
    {
      "inputs": [],
      "name": "getSeller",
      "outputs": [
        {
          "internalType": "address",
          "name": "",
          "type": "address"
        }
      ],
      "stateMutability": "view",
      "type": "function"
    },
    {
      "inputs": [],
      "name": "getbuyer",
      "outputs": [
        {
          "internalType": "address",
          "name": "",
          "type": "address"
        }
      ],
      "stateMutability": "view",
      "type": "function"
    },
    {
      "inputs": [],
      "name": "kill",
      "outputs": [],
      "stateMutability": "nonpayable",
      "type": "function"
    },
    {
      "inputs": [
        {
          "internalType": "uint256",
          "name": "_amount",
          "type": "uint256"
        }
      ],
      "name": "payoutToSeller",
      "outputs": [],
      "stateMutability": "nonpayable",
      "type": "function"
    },
    {
      "inputs": [],
      "name": "refundBuyer",
      "outputs": [],
      "stateMutability": "nonpayable",
      "type": "function"
    },
    {
      "inputs": [
        {
          "internalType": "address payable",
          "name": "_buyer",
          "type": "address"
        }
      ],
      "name": "setBuyer",
      "outputs": [],
      "stateMutability": "nonpayable",
      "type": "function"
    },
    {
      "inputs": [
        {
          "internalType": "uint256",
          "name": "_amountInWei",
          "type": "uint256"
        }
      ],
      "name": "setPrice",
      "outputs": [],
      "stateMutability": "nonpayable",
      "type": "function"
    },
    {
      "inputs": [
        {
          "internalType": "address payable",
          "name": "_seller",
          "type": "address"
        }
      ],
      "name": "setSeller",
      "outputs": [],
      "stateMutability": "nonpayable",
      "type": "function"
    },
    {
      "inputs": [],
      "name": "validate",
      "outputs": [],
      "stateMutability": "payable",
      "type": "function"
    },
    {
      "stateMutability": "payable",
      "type": "receive"
    },
    {
      "inputs": [
        {
          "internalType": "string",
          "name": "_title",
          "type": "string"
        }
      ],
      "name": "setTitle",
      "outputs": [],
      "stateMutability": "nonpayable",
      "type": "function"
    },
    {
      "inputs": [],
      "name": "getTitle",
      "outputs": [
        {
          "internalType": "string",
          "name": "",
          "type": "string"
        }
      ],
      "stateMutability": "view",
      "type": "function"
    },
    {
      "inputs": [
        {
          "internalType": "string",
          "name": "_hash",
          "type": "string"
        }
      ],
      "name": "setHash",
      "outputs": [],
      "stateMutability": "nonpayable",
      "type": "function"
    },
    {
      "inputs": [],
      "name": "getHash",
      "outputs": [
        {
          "internalType": "string",
          "name": "",
          "type": "string"
        }
      ],
      "stateMutability": "view",
      "type": "function"
    },
    {
      "inputs": [
        {
          "internalType": "bool",
          "name": "_phys",
          "type": "bool"
        }
      ],
      "name": "setPhysical",
      "outputs": [],
      "stateMutability": "nonpayable",
      "type": "function"
    },
    {
      "inputs": [],
      "name": "getPhysical",
      "outputs": [
        {
          "internalType": "bool",
          "name": "",
          "type": "bool"
        }
      ],
      "stateMutability": "view",
      "type": "function"
    }
  ],
  "bytecode": "0x6080604052633b9aca00600555633b9aca006006556001600755600060085560006009553480156200003057600080fd5b5060405162001d7538038062001d75833981810160405281019062000056919062000475565b85600260006101000a81548173ffffffffffffffffffffffffffffffffffffffff021916908373ffffffffffffffffffffffffffffffffffffffff16021790555084600160006101000a81548173ffffffffffffffffffffffffffffffffffffffff021916908373ffffffffffffffffffffffffffffffffffffffff16021790555083600a9080519060200190620000f09291906200014b565b5082600b60006101000a81548160ff02191690831515021790555081600c9080519060200190620001239291906200014b565b50662386f26fc10000816200013991906200057e565b60038190555050505050505062000644565b82805462000159906200060e565b90600052602060002090601f0160209004810192826200017d5760008555620001c9565b82601f106200019857805160ff1916838001178555620001c9565b82800160010185558215620001c9579182015b82811115620001c8578251825591602001919060010190620001ab565b5b509050620001d89190620001dc565b5090565b5b80821115620001f7576000816000905550600101620001dd565b5090565b6000604051905090565b600080fd5b600080fd5b600073ffffffffffffffffffffffffffffffffffffffff82169050919050565b60006200023c826200020f565b9050919050565b6200024e816200022f565b81146200025a57600080fd5b50565b6000815190506200026e8162000243565b92915050565b600080fd5b600080fd5b6000601f19601f8301169050919050565b7f4e487b7100000000000000000000000000000000000000000000000000000000600052604160045260246000fd5b620002c9826200027e565b810181811067ffffffffffffffff82111715620002eb57620002ea6200028f565b5b80604052505050565b600062000300620001fb565b90506200030e8282620002be565b919050565b600067ffffffffffffffff8211156200033157620003306200028f565b5b6200033c826200027e565b9050602081019050919050565b60005b83811015620003695780820151818401526020810190506200034c565b8381111562000379576000848401525b50505050565b600062000396620003908462000313565b620002f4565b905082815260208101848484011115620003b557620003b462000279565b5b620003c284828562000349565b509392505050565b600082601f830112620003e257620003e162000274565b5b8151620003f48482602086016200037f565b91505092915050565b60008115159050919050565b6200041481620003fd565b81146200042057600080fd5b50565b600081519050620004348162000409565b92915050565b6000819050919050565b6200044f816200043a565b81146200045b57600080fd5b50565b6000815190506200046f8162000444565b92915050565b60008060008060008060c0878903121562000495576200049462000205565b5b6000620004a589828a016200025d565b9650506020620004b889828a016200025d565b955050604087015167ffffffffffffffff811115620004dc57620004db6200020a565b5b620004ea89828a01620003ca565b9450506060620004fd89828a0162000423565b935050608087015167ffffffffffffffff8111156200052157620005206200020a565b5b6200052f89828a01620003ca565b92505060a06200054289828a016200045e565b9150509295509295509295565b7f4e487b7100000000000000000000000000000000000000000000000000000000600052601160045260246000fd5b60006200058b826200043a565b915062000598836200043a565b9250817fffffffffffffffffffffffffffffffffffffffffffffffffffffffffffffffff0483118215151615620005d457620005d36200054f565b5b828202905092915050565b7f4e487b7100000000000000000000000000000000000000000000000000000000600052602260045260246000fd5b600060028204905060018216806200062757607f821691505b602082108114156200063e576200063d620005df565b5b50919050565b61172180620006546000396000f3fe6080604052600436106101385760003560e01c8063a3f09ad6116100ab578063dbd0e1b61161006f578063dbd0e1b61461040f578063e0c6190d1461043a578063e8a61cc814610465578063e99d28661461047c578063ea495842146104a5578063ff3c1a8f146104d057610176565b8063a3f09ad61461035d578063b60d428814610386578063b69ef8a814610390578063c83dc3a3146103bb578063d13319c4146103e457610176565b806341c0e1b5116100fd57806341c0e1b5146102945780636901f668146102ab57806372910be0146102b55780638c479925146102de57806391b7f5ed1461030957806398d5fdca1461033257610176565b80622bc52e146101af578063039aec2d146101d8578063149bf50e1461021557806316243356146102405780631ed83fd41461026b57610176565b36610176577fe455499c2acd509bdadebaf5a8fd54c083da31dbe98e785f2a72cdff04e32e004260405161016c9190611160565b60405180910390a1005b7fe455499c2acd509bdadebaf5a8fd54c083da31dbe98e785f2a72cdff04e32e00426040516101a59190611160565b60405180910390a1005b3480156101bb57600080fd5b506101d660048036038101906101d191906111c7565b6104fb565b005b3480156101e457600080fd5b506101ff60048036038101906101fa9190611220565b6105ca565b60405161020c9190611160565b60405180910390f35b34801561022157600080fd5b5061022a6105e6565b604051610237919061128e565b60405180910390f35b34801561024c57600080fd5b5061025561060f565b6040516102629190611160565b60405180910390f35b34801561027757600080fd5b50610292600480360381019061028d91906113ef565b610615565b005b3480156102a057600080fd5b506102a96106e1565b005b6102b3610752565b005b3480156102c157600080fd5b506102dc60048036038101906102d791906113ef565b610916565b005b3480156102ea57600080fd5b506102f36109e2565b6040516103009190611160565b60405180910390f35b34801561031557600080fd5b50610330600480360381019061032b9190611220565b6109e8565b005b34801561033e57600080fd5b50610347610aa4565b6040516103549190611160565b60405180910390f35b34801561036957600080fd5b50610384600480360381019061037f9190611476565b610aae565b005b61038e610b4b565b005b34801561039c57600080fd5b506103a5610c06565b6040516103b29190611160565b60405180910390f35b3480156103c757600080fd5b506103e260048036038101906103dd9190611220565b610c0c565b005b3480156103f057600080fd5b506103f9610d11565b604051610406919061152b565b60405180910390f35b34801561041b57600080fd5b50610424610da3565b604051610431919061128e565b60405180910390f35b34801561044657600080fd5b5061044f610dcd565b60405161045c919061155c565b60405180910390f35b34801561047157600080fd5b5061047a610dff565b005b34801561048857600080fd5b506104a3600480360381019061049e9190611476565b610f05565b005b3480156104b157600080fd5b506104ba610ffb565b6040516104c7919061155c565b60405180910390f35b3480156104dc57600080fd5b506104e5611012565b6040516104f2919061152b565b60405180910390f35b600260009054906101000a900473ffffffffffffffffffffffffffffffffffffffff1673ffffffffffffffffffffffffffffffffffffffff163373ffffffffffffffffffffffffffffffffffffffff1614806105a45750600160009054906101000a900473ffffffffffffffffffffffffffffffffffffffff1673ffffffffffffffffffffffffffffffffffffffff163373ffffffffffffffffffffffffffffffffffffffff16145b6105ad57600080fd5b80600b60006101000a81548160ff02191690831515021790555050565b6000662386f26fc10000826105df91906115a6565b9050919050565b60008060009054906101000a900473ffffffffffffffffffffffffffffffffffffffff16905090565b60095481565b600260009054906101000a900473ffffffffffffffffffffffffffffffffffffffff1673ffffffffffffffffffffffffffffffffffffffff163373ffffffffffffffffffffffffffffffffffffffff1614806106be5750600160009054906101000a900473ffffffffffffffffffffffffffffffffffffffff1673ffffffffffffffffffffffffffffffffffffffff163373ffffffffffffffffffffffffffffffffffffffff16145b6106c757600080fd5b80600c90805190602001906106dd9291906110a4565b5050565b600260009054906101000a900473ffffffffffffffffffffffffffffffffffffffff1673ffffffffffffffffffffffffffffffffffffffff163373ffffffffffffffffffffffffffffffffffffffff161415610750573073ffffffffffffffffffffffffffffffffffffffff16ff5b565b600260009054906101000a900473ffffffffffffffffffffffffffffffffffffffff1673ffffffffffffffffffffffffffffffffffffffff163373ffffffffffffffffffffffffffffffffffffffff16146107ac57600080fd5b6000600454106109145760035460045411156108a65760006003546004546107d49190611600565b905060008054906101000a900473ffffffffffffffffffffffffffffffffffffffff1673ffffffffffffffffffffffffffffffffffffffff166108fc829081150290604051600060405180830381858888f1935050505015801561083c573d6000803e3d6000fd5b507f9496273f5a13d097a94eeecc2fcbcb6a8d26132fa9db01849d964521307dccc54260405161086c9190611160565b60405180910390a180600460008282546108869190611600565b92505081905550610898600454610c0c565b600060048190555050610913565b60035460045414156108ca576108bd600454610c0c565b6000600481905550610912565b6108d2610dff565b60006004819055507fd018531c788764333726fda058e746c7b3af36700a8f1cfe4a074b2eb283d654426040516109099190611160565b60405180910390a15b5b5b565b600260009054906101000a900473ffffffffffffffffffffffffffffffffffffffff1673ffffffffffffffffffffffffffffffffffffffff163373ffffffffffffffffffffffffffffffffffffffff1614806109bf5750600160009054906101000a900473ffffffffffffffffffffffffffffffffffffffff1673ffffffffffffffffffffffffffffffffffffffff163373ffffffffffffffffffffffffffffffffffffffff16145b6109c857600080fd5b80600a90805190602001906109de9291906110a4565b5050565b60035481565b600260009054906101000a900473ffffffffffffffffffffffffffffffffffffffff1673ffffffffffffffffffffffffffffffffffffffff163373ffffffffffffffffffffffffffffffffffffffff161480610a915750600160009054906101000a900473ffffffffffffffffffffffffffffffffffffffff1673ffffffffffffffffffffffffffffffffffffffff163373ffffffffffffffffffffffffffffffffffffffff16145b610a9a57600080fd5b8060038190555050565b6000600354905090565b600260009054906101000a900473ffffffffffffffffffffffffffffffffffffffff1673ffffffffffffffffffffffffffffffffffffffff163373ffffffffffffffffffffffffffffffffffffffff1614610b0857600080fd5b806000806101000a81548173ffffffffffffffffffffffffffffffffffffffff021916908373ffffffffffffffffffffffffffffffffffffffff16021790555050565b600260009054906101000a900473ffffffffffffffffffffffffffffffffffffffff1673ffffffffffffffffffffffffffffffffffffffff163373ffffffffffffffffffffffffffffffffffffffff16148015610ba9575060035434145b610bb257600080fd5b3460046000828254610bc49190611634565b925050819055507fe455499c2acd509bdadebaf5a8fd54c083da31dbe98e785f2a72cdff04e32e00600454604051610bfc9190611160565b60405180910390a1565b60045481565b600260009054906101000a900473ffffffffffffffffffffffffffffffffffffffff1673ffffffffffffffffffffffffffffffffffffffff163373ffffffffffffffffffffffffffffffffffffffff1614610c6657600080fd5b600160009054906101000a900473ffffffffffffffffffffffffffffffffffffffff1673ffffffffffffffffffffffffffffffffffffffff166108fc829081150290604051600060405180830381858888f19350505050158015610cce573d6000803e3d6000fd5b507ff484d07f255ad864671e45ca713ac3a9b593f61fc7df18a1930cdd13977a744c81604051610cfe9190611160565b60405180910390a1600060048190555050565b6060600c8054610d20906116b9565b80601f0160208091040260200160405190810160405280929190818152602001828054610d4c906116b9565b8015610d995780601f10610d6e57610100808354040283529160200191610d99565b820191906000526020600020905b815481529060010190602001808311610d7c57829003601f168201915b5050505050905090565b6000600160009054906101000a900473ffffffffffffffffffffffffffffffffffffffff16905090565b6000600754600854610ddf9190611634565b421015610def5760019050610dfc565b610df7610dff565b600090505b90565b600260009054906101000a900473ffffffffffffffffffffffffffffffffffffffff1673ffffffffffffffffffffffffffffffffffffffff163373ffffffffffffffffffffffffffffffffffffffff1614610e5957600080fd5b7f9496273f5a13d097a94eeecc2fcbcb6a8d26132fa9db01849d964521307dccc5600454604051610e8a9190611160565b60405180910390a160008054906101000a900473ffffffffffffffffffffffffffffffffffffffff1673ffffffffffffffffffffffffffffffffffffffff166108fc6004549081150290604051600060405180830381858888f19350505050158015610efa573d6000803e3d6000fd5b506000600481905550565b600260009054906101000a900473ffffffffffffffffffffffffffffffffffffffff1673ffffffffffffffffffffffffffffffffffffffff163373ffffffffffffffffffffffffffffffffffffffff161480610fae5750600160009054906101000a900473ffffffffffffffffffffffffffffffffffffffff1673ffffffffffffffffffffffffffffffffffffffff163373ffffffffffffffffffffffffffffffffffffffff16145b610fb757600080fd5b80600160006101000a81548173ffffffffffffffffffffffffffffffffffffffff021916908373ffffffffffffffffffffffffffffffffffffffff16021790555050565b6000600b60009054906101000a900460ff16905090565b6060600a8054611021906116b9565b80601f016020809104026020016040519081016040528092919081815260200182805461104d906116b9565b801561109a5780601f1061106f5761010080835404028352916020019161109a565b820191906000526020600020905b81548152906001019060200180831161107d57829003601f168201915b5050505050905090565b8280546110b0906116b9565b90600052602060002090601f0160209004810192826110d25760008555611119565b82601f106110eb57805160ff1916838001178555611119565b82800160010185558215611119579182015b828111156111185782518255916020019190600101906110fd565b5b509050611126919061112a565b5090565b5b8082111561114357600081600090555060010161112b565b5090565b6000819050919050565b61115a81611147565b82525050565b60006020820190506111756000830184611151565b92915050565b6000604051905090565b600080fd5b600080fd5b60008115159050919050565b6111a48161118f565b81146111af57600080fd5b50565b6000813590506111c18161119b565b92915050565b6000602082840312156111dd576111dc611185565b5b60006111eb848285016111b2565b91505092915050565b6111fd81611147565b811461120857600080fd5b50565b60008135905061121a816111f4565b92915050565b60006020828403121561123657611235611185565b5b60006112448482850161120b565b91505092915050565b600073ffffffffffffffffffffffffffffffffffffffff82169050919050565b60006112788261124d565b9050919050565b6112888161126d565b82525050565b60006020820190506112a3600083018461127f565b92915050565b600080fd5b600080fd5b6000601f19601f8301169050919050565b7f4e487b7100000000000000000000000000000000000000000000000000000000600052604160045260246000fd5b6112fc826112b3565b810181811067ffffffffffffffff8211171561131b5761131a6112c4565b5b80604052505050565b600061132e61117b565b905061133a82826112f3565b919050565b600067ffffffffffffffff82111561135a576113596112c4565b5b611363826112b3565b9050602081019050919050565b82818337600083830152505050565b600061139261138d8461133f565b611324565b9050828152602081018484840111156113ae576113ad6112ae565b5b6113b9848285611370565b509392505050565b600082601f8301126113d6576113d56112a9565b5b81356113e684826020860161137f565b91505092915050565b60006020828403121561140557611404611185565b5b600082013567ffffffffffffffff8111156114235761142261118a565b5b61142f848285016113c1565b91505092915050565b60006114438261124d565b9050919050565b61145381611438565b811461145e57600080fd5b50565b6000813590506114708161144a565b92915050565b60006020828403121561148c5761148b611185565b5b600061149a84828501611461565b91505092915050565b600081519050919050565b600082825260208201905092915050565b60005b838110156114dd5780820151818401526020810190506114c2565b838111156114ec576000848401525b50505050565b60006114fd826114a3565b61150781856114ae565b93506115178185602086016114bf565b611520816112b3565b840191505092915050565b6000602082019050818103600083015261154581846114f2565b905092915050565b6115568161118f565b82525050565b6000602082019050611571600083018461154d565b92915050565b7f4e487b7100000000000000000000000000000000000000000000000000000000600052601160045260246000fd5b60006115b182611147565b91506115bc83611147565b9250817fffffffffffffffffffffffffffffffffffffffffffffffffffffffffffffffff04831182151516156115f5576115f4611577565b5b828202905092915050565b600061160b82611147565b915061161683611147565b92508282101561162957611628611577565b5b828203905092915050565b600061163f82611147565b915061164a83611147565b9250827fffffffffffffffffffffffffffffffffffffffffffffffffffffffffffffffff0382111561167f5761167e611577565b5b828201905092915050565b7f4e487b7100000000000000000000000000000000000000000000000000000000600052602260045260246000fd5b600060028204905060018216806116d157607f821691505b602082108114156116e5576116e461168a565b5b5091905056fea264697066735822122086c137541ff196c03b2efe3abddbc24f3787e04994fc12d290d44f850fa13a8964736f6c634300080a0033",
  "immutableReferences": {},
  "source": "// SPDX-License-Identifier: MIT\npragma solidity >=0.8.3 <0.9.0;\nimport \"./Escrow.sol\";\n\n// need to create javascript to interface with the IPFS daemon \ncontract Book is Escrow{ // Books are all contracts, whether or not they're completed yet\n    //Model a Book\n    string private title; //book Title\n    bool private physical; // 0 = no, 1 = yes\n    string private hash;\n\n    //variables and functions to set an amount an item is for sale\n\n    //rewrite addBook as constructor for a single book\n    constructor(address payable _arbiter, address payable _seller, string memory _bookTitle, bool ePfd, string memory _hash, uint _price) public {\n        arbiter = _arbiter;\n        seller = _seller;\n        title = _bookTitle;\n        physical = ePfd;\n        hash = _hash; // if the book is a pdf or ebook\n        amountInEth = _price * (1 ether / 100); // EXPENSIVE, but necessary for quick ganache testing\n    }\n\n    //Set-Get fxns\n\n    // Set title variable\n    function setTitle(string memory _title) external{\n        require (msg.sender == arbiter || msg.sender == seller);\n        title = _title;\n    }\n\n    // Set title variable\n    function getTitle() external view returns(string memory){\n        return title;\n    }\n\n    // Set Hash variable\n    function setHash(string memory _hash) external{\n        require (msg.sender == arbiter || msg.sender == seller);\n        hash = _hash;\n    }\n\n    // Get physical variable\n    function getHash() external view returns(string memory){\n        return hash;\n    }\n\n    // Set physical variable\n    function setPhysical(bool _phys) external{\n        require (msg.sender == arbiter || msg.sender == seller);\n        physical = _phys;\n    }\n\n    // Set physical variable\n    function getPhysical() external view returns (bool){\n        return physical;\n    }\n\n}",
  "sourcePath": "/home/june/Documents/UNT/CSCE 4575/project files/Blockchain_bookstore/contracts/Book.sol",
  "compiler": {
    "name": "solc",
    "version": "0.8.10+commit.fc410830.Emscripten.clang"
  },
  "schemaVersion": "3.4.3",
  "updatedAt": "2021-12-03T20:45:08.310Z",
  "networkType": "ethereum",
  "devdoc": {
    "kind": "dev",
    "methods": {},
    "version": 1
  },
  "userdoc": {
    "kind": "user",
    "methods": {},
    "version": 1
  }
}