{
  "contractName": "BookArbiter",
  "abi": [
    {
      "inputs": [],
      "stateMutability": "nonpayable",
      "type": "constructor"
    },
    {
      "anonymous": false,
      "inputs": [
        {
          "indexed": false,
          "internalType": "address",
          "name": "newAddress",
          "type": "address"
        }
      ],
      "name": "ContractCreated",
      "type": "event"
    },
    {
      "anonymous": false,
      "inputs": [
        {
          "indexed": false,
          "internalType": "uint256",
          "name": "_timestamp",
          "type": "uint256"
        }
      ],
      "name": "NewOwnership",
      "type": "event"
    },
    {
      "anonymous": false,
      "inputs": [
        {
          "indexed": false,
          "internalType": "uint256",
          "name": "_timestamp",
          "type": "uint256"
        }
      ],
      "name": "TransactionCreated",
      "type": "event"
    },
    {
      "anonymous": false,
      "inputs": [
        {
          "indexed": false,
          "internalType": "uint256",
          "name": "_amount",
          "type": "uint256"
        },
        {
          "indexed": false,
          "internalType": "bool",
          "name": "success",
          "type": "bool"
        }
      ],
      "name": "TransactionFunded",
      "type": "event"
    },
    {
      "stateMutability": "payable",
      "type": "fallback",
      "payable": true
    },
    {
      "stateMutability": "payable",
      "type": "receive",
      "payable": true
    },
    {
      "inputs": [
        {
          "internalType": "address payable",
          "name": "_seller",
          "type": "address"
        },
        {
          "internalType": "string",
          "name": "_bookTitle",
          "type": "string"
        },
        {
          "internalType": "bool",
          "name": "ePfd",
          "type": "bool"
        },
        {
          "internalType": "string",
          "name": "_hash",
          "type": "string"
        },
        {
          "internalType": "uint256",
          "name": "_price",
          "type": "uint256"
        }
      ],
      "name": "addBook",
      "outputs": [],
      "stateMutability": "nonpayable",
      "type": "function"
    },
    {
      "inputs": [
        {
          "internalType": "uint256",
          "name": "_id",
          "type": "uint256"
        }
      ],
      "name": "getBook",
      "outputs": [
        {
          "internalType": "address payable",
          "name": "",
          "type": "address"
        }
      ],
      "stateMutability": "view",
      "type": "function",
      "constant": true
    },
    {
      "inputs": [],
      "name": "getCount",
      "outputs": [
        {
          "internalType": "uint256",
          "name": "",
          "type": "uint256"
        }
      ],
      "stateMutability": "view",
      "type": "function",
      "constant": true
    },
    {
      "inputs": [
        {
          "internalType": "uint256",
          "name": "_id",
          "type": "uint256"
        }
      ],
      "name": "removeBook",
      "outputs": [],
      "stateMutability": "nonpayable",
      "type": "function"
    },
    {
      "inputs": [
        {
          "internalType": "uint256",
          "name": "_id",
          "type": "uint256"
        },
        {
          "internalType": "address",
          "name": "_buyer",
          "type": "address"
        }
      ],
      "name": "createTxn",
      "outputs": [
        {
          "internalType": "bool",
          "name": "",
          "type": "bool"
        }
      ],
      "stateMutability": "payable",
      "type": "function",
      "payable": true
    },
    {
      "inputs": [
        {
          "internalType": "uint256",
          "name": "_id",
          "type": "uint256"
        }
      ],
      "name": "fundTxn",
      "outputs": [],
      "stateMutability": "payable",
      "type": "function",
      "payable": true
    },
    {
      "inputs": [
        {
          "internalType": "uint256",
          "name": "_id",
          "type": "uint256"
        }
      ],
      "name": "validateTxn",
      "outputs": [],
      "stateMutability": "payable",
      "type": "function",
      "payable": true
    }
  ],
  "bytecode": "0x608060405234801561001057600080fd5b506000600281905550612f9f806100286000396000f3fe6080604052600436106200007f5760003560e01c8063493b0e6e1162000055578063493b0e6e1462000174578063a87d942c14620001a2578063bec0d79914620001d2578063e0ff5b8b146200020057620000c3565b806310873eac14620000fe57806324d56a6c14620001345780632eb3b6e9146200015457620000c3565b36620000c3577fefd8b332c6690b0b7808a6193ddc1aeb623c9520e2d4e227d3228329d155c93c426001604051620000b9929190620009fa565b60405180910390a1005b7f20249019acac6e99959366f842671611cd943aa8071804678030725f38bc787e42604051620000f4919062000a27565b60405180910390a1005b6200011c600480360381019062000116919062000aee565b62000244565b6040516200012b919062000b35565b60405180910390f35b6200015260048036038101906200014c919062000b52565b62000413565b005b6200017260048036038101906200016c919062000b52565b62000558565b005b3480156200018157600080fd5b50620001a060048036038101906200019a919062000d5c565b62000761565b005b348015620001af57600080fd5b50620001ba62000894565b604051620001c9919062000a27565b60405180910390f35b348015620001df57600080fd5b50620001fe6004803603810190620001f8919062000b52565b6200089e565b005b3480156200020d57600080fd5b506200022c600480360381019062000226919062000b52565b620008ff565b6040516200023b919062000e33565b60405180910390f35b60008060008085815260200190815260200160002060009054906101000a900473ffffffffffffffffffffffffffffffffffffffff1690507f20249019acac6e99959366f842671611cd943aa8071804678030725f38bc787e42604051620002ad919062000a27565b60405180910390a17fcf78cf0d6f3d8371e1075c69c492ab4ec5d8cf23a1a239b6a51a1d00be7ca31281604051620002e6919062000e61565b60405180910390a18073ffffffffffffffffffffffffffffffffffffffff1663dbd0e1b66040518163ffffffff1660e01b8152600401602060405180830381865afa1580156200033a573d6000803e3d6000fd5b505050506040513d601f19601f8201168201806040525081019062000360919062000e95565b73ffffffffffffffffffffffffffffffffffffffff163373ffffffffffffffffffffffffffffffffffffffff1614156200039957600080fd5b8073ffffffffffffffffffffffffffffffffffffffff1663a3f09ad6846040518263ffffffff1660e01b8152600401620003d4919062000e33565b600060405180830381600087803b158015620003ef57600080fd5b505af115801562000404573d6000803e3d6000fd5b50505050600191505092915050565b600080600083815260200190815260200160002060009054906101000a900473ffffffffffffffffffffffffffffffffffffffff1690508073ffffffffffffffffffffffffffffffffffffffff16636901f6686040518163ffffffff1660e01b8152600401600060405180830381600087803b1580156200049357600080fd5b505af1158015620004a8573d6000803e3d6000fd5b505050508073ffffffffffffffffffffffffffffffffffffffff1663e99d2866336040518263ffffffff1660e01b8152600401620004e7919062000e33565b600060405180830381600087803b1580156200050257600080fd5b505af115801562000517573d6000803e3d6000fd5b505050507fc6b2a45324207354b059e55a92bc00eab257f8a10da1a4505368f4d79c7fb852426040516200054c919062000a27565b60405180910390a15050565b600080600083815260200190815260200160002060009054906101000a900473ffffffffffffffffffffffffffffffffffffffff16905060008190508073ffffffffffffffffffffffffffffffffffffffff166398d5fdca6040518163ffffffff1660e01b8152600401602060405180830381865afa158015620005e0573d6000803e3d6000fd5b505050506040513d601f19601f8201168201806040525081019062000606919062000ede565b34146200061257600080fd5b6000808273ffffffffffffffffffffffffffffffffffffffff163463b60d428860e01b60405160200162000647919062000f4d565b60405160208183030381529060405260405162000665919062000fed565b60006040518083038185875af1925050503d8060008114620006a4576040519150601f19603f3d011682016040523d82523d6000602084013e620006a9565b606091505b50915091507fefd8b332c6690b0b7808a6193ddc1aeb623c9520e2d4e227d3228329d155c93c8373ffffffffffffffffffffffffffffffffffffffff166398d5fdca6040518163ffffffff1660e01b8152600401602060405180830381865afa1580156200071b573d6000803e3d6000fd5b505050506040513d601f19601f8201168201806040525081019062000741919062000ede565b8360405162000752929190620009fa565b60405180910390a15050505050565b60003086868686866040516200077790620009b4565b620007889695949392919062001063565b604051809103906000f080158015620007a5573d6000803e3d6000fd5b509050620007b26200093b565b156200081e576000620007c46200094a565b90508160008083815260200190815260200160002060006101000a81548173ffffffffffffffffffffffffffffffffffffffff021916908373ffffffffffffffffffffffffffffffffffffffff160217905550506200088c565b80600080600254815260200190815260200160002060006101000a81548173ffffffffffffffffffffffffffffffffffffffff021916908373ffffffffffffffffffffffffffffffffffffffff1602179055506002600081548092919062000886906200110d565b91905055505b505050505050565b6000600254905090565b60008082815260200190815260200160002060006101000a81549073ffffffffffffffffffffffffffffffffffffffff0219169055600181908060018154018082558091505060019003906000526020600020016000909190919091505550565b600080600083815260200190815260200160002060009054906101000a900473ffffffffffffffffffffffffffffffffffffffff169050919050565b60008060018054905011905090565b60008060018080805490506200096191906200115b565b8154811062000975576200097462001196565b5b906000526020600020015490506001805480620009975762000996620011c5565b5b600190038181906000526020600020016000905590558091505090565b611d7580620011f583390190565b6000819050919050565b620009d781620009c2565b82525050565b60008115159050919050565b620009f481620009dd565b82525050565b600060408201905062000a116000830185620009cc565b62000a206020830184620009e9565b9392505050565b600060208201905062000a3e6000830184620009cc565b92915050565b6000604051905090565b600080fd5b600080fd5b62000a6381620009c2565b811462000a6f57600080fd5b50565b60008135905062000a838162000a58565b92915050565b600073ffffffffffffffffffffffffffffffffffffffff82169050919050565b600062000ab68262000a89565b9050919050565b62000ac88162000aa9565b811462000ad457600080fd5b50565b60008135905062000ae88162000abd565b92915050565b6000806040838503121562000b085762000b0762000a4e565b5b600062000b188582860162000a72565b925050602062000b2b8582860162000ad7565b9150509250929050565b600060208201905062000b4c6000830184620009e9565b92915050565b60006020828403121562000b6b5762000b6a62000a4e565b5b600062000b7b8482850162000a72565b91505092915050565b600062000b918262000a89565b9050919050565b62000ba38162000b84565b811462000baf57600080fd5b50565b60008135905062000bc38162000b98565b92915050565b600080fd5b600080fd5b6000601f19601f8301169050919050565b7f4e487b7100000000000000000000000000000000000000000000000000000000600052604160045260246000fd5b62000c1e8262000bd3565b810181811067ffffffffffffffff8211171562000c405762000c3f62000be4565b5b80604052505050565b600062000c5562000a44565b905062000c63828262000c13565b919050565b600067ffffffffffffffff82111562000c865762000c8562000be4565b5b62000c918262000bd3565b9050602081019050919050565b82818337600083830152505050565b600062000cc462000cbe8462000c68565b62000c49565b90508281526020810184848401111562000ce35762000ce262000bce565b5b62000cf084828562000c9e565b509392505050565b600082601f83011262000d105762000d0f62000bc9565b5b813562000d2284826020860162000cad565b91505092915050565b62000d3681620009dd565b811462000d4257600080fd5b50565b60008135905062000d568162000d2b565b92915050565b600080600080600060a0868803121562000d7b5762000d7a62000a4e565b5b600062000d8b8882890162000bb2565b955050602086013567ffffffffffffffff81111562000daf5762000dae62000a53565b5b62000dbd8882890162000cf8565b945050604062000dd08882890162000d45565b935050606086013567ffffffffffffffff81111562000df45762000df362000a53565b5b62000e028882890162000cf8565b925050608062000e158882890162000a72565b9150509295509295909350565b62000e2d8162000b84565b82525050565b600060208201905062000e4a600083018462000e22565b92915050565b62000e5b8162000aa9565b82525050565b600060208201905062000e78600083018462000e50565b92915050565b60008151905062000e8f8162000abd565b92915050565b60006020828403121562000eae5762000ead62000a4e565b5b600062000ebe8482850162000e7e565b91505092915050565b60008151905062000ed88162000a58565b92915050565b60006020828403121562000ef75762000ef662000a4e565b5b600062000f078482850162000ec7565b91505092915050565b60007fffffffff0000000000000000000000000000000000000000000000000000000082169050919050565b62000f478162000f10565b82525050565b600060208201905062000f64600083018462000f3c565b92915050565b600081519050919050565b600081905092915050565b60005b8381101562000fa057808201518184015260208101905062000f83565b8381111562000fb0576000848401525b50505050565b600062000fc38262000f6a565b62000fcf818562000f75565b935062000fe181856020860162000f80565b80840191505092915050565b600062000ffb828462000fb6565b915081905092915050565b600081519050919050565b600082825260208201905092915050565b60006200102f8262001006565b6200103b818562001011565b93506200104d81856020860162000f80565b620010588162000bd3565b840191505092915050565b600060c0820190506200107a600083018962000e22565b62001089602083018862000e22565b81810360408301526200109d818762001022565b9050620010ae6060830186620009e9565b8181036080830152620010c2818562001022565b9050620010d360a0830184620009cc565b979650505050505050565b7f4e487b7100000000000000000000000000000000000000000000000000000000600052601160045260246000fd5b60006200111a82620009c2565b91507fffffffffffffffffffffffffffffffffffffffffffffffffffffffffffffffff82141562001150576200114f620010de565b5b600182019050919050565b60006200116882620009c2565b91506200117583620009c2565b9250828210156200118b576200118a620010de565b5b828203905092915050565b7f4e487b7100000000000000000000000000000000000000000000000000000000600052603260045260246000fd5b7f4e487b7100000000000000000000000000000000000000000000000000000000600052603160045260246000fdfe6080604052633b9aca00600555633b9aca006006556001600755600060085560006009553480156200003057600080fd5b5060405162001d7538038062001d75833981810160405281019062000056919062000475565b85600260006101000a81548173ffffffffffffffffffffffffffffffffffffffff021916908373ffffffffffffffffffffffffffffffffffffffff16021790555084600160006101000a81548173ffffffffffffffffffffffffffffffffffffffff021916908373ffffffffffffffffffffffffffffffffffffffff16021790555083600a9080519060200190620000f09291906200014b565b5082600b60006101000a81548160ff02191690831515021790555081600c9080519060200190620001239291906200014b565b50662386f26fc10000816200013991906200057e565b60038190555050505050505062000644565b82805462000159906200060e565b90600052602060002090601f0160209004810192826200017d5760008555620001c9565b82601f106200019857805160ff1916838001178555620001c9565b82800160010185558215620001c9579182015b82811115620001c8578251825591602001919060010190620001ab565b5b509050620001d89190620001dc565b5090565b5b80821115620001f7576000816000905550600101620001dd565b5090565b6000604051905090565b600080fd5b600080fd5b600073ffffffffffffffffffffffffffffffffffffffff82169050919050565b60006200023c826200020f565b9050919050565b6200024e816200022f565b81146200025a57600080fd5b50565b6000815190506200026e8162000243565b92915050565b600080fd5b600080fd5b6000601f19601f8301169050919050565b7f4e487b7100000000000000000000000000000000000000000000000000000000600052604160045260246000fd5b620002c9826200027e565b810181811067ffffffffffffffff82111715620002eb57620002ea6200028f565b5b80604052505050565b600062000300620001fb565b90506200030e8282620002be565b919050565b600067ffffffffffffffff8211156200033157620003306200028f565b5b6200033c826200027e565b9050602081019050919050565b60005b83811015620003695780820151818401526020810190506200034c565b8381111562000379576000848401525b50505050565b600062000396620003908462000313565b620002f4565b905082815260208101848484011115620003b557620003b462000279565b5b620003c284828562000349565b509392505050565b600082601f830112620003e257620003e162000274565b5b8151620003f48482602086016200037f565b91505092915050565b60008115159050919050565b6200041481620003fd565b81146200042057600080fd5b50565b600081519050620004348162000409565b92915050565b6000819050919050565b6200044f816200043a565b81146200045b57600080fd5b50565b6000815190506200046f8162000444565b92915050565b60008060008060008060c0878903121562000495576200049462000205565b5b6000620004a589828a016200025d565b9650506020620004b889828a016200025d565b955050604087015167ffffffffffffffff811115620004dc57620004db6200020a565b5b620004ea89828a01620003ca565b9450506060620004fd89828a0162000423565b935050608087015167ffffffffffffffff8111156200052157620005206200020a565b5b6200052f89828a01620003ca565b92505060a06200054289828a016200045e565b9150509295509295509295565b7f4e487b7100000000000000000000000000000000000000000000000000000000600052601160045260246000fd5b60006200058b826200043a565b915062000598836200043a565b9250817fffffffffffffffffffffffffffffffffffffffffffffffffffffffffffffffff0483118215151615620005d457620005d36200054f565b5b828202905092915050565b7f4e487b7100000000000000000000000000000000000000000000000000000000600052602260045260246000fd5b600060028204905060018216806200062757607f821691505b602082108114156200063e576200063d620005df565b5b50919050565b61172180620006546000396000f3fe6080604052600436106101385760003560e01c8063a3f09ad6116100ab578063dbd0e1b61161006f578063dbd0e1b61461040f578063e0c6190d1461043a578063e8a61cc814610465578063e99d28661461047c578063ea495842146104a5578063ff3c1a8f146104d057610176565b8063a3f09ad61461035d578063b60d428814610386578063b69ef8a814610390578063c83dc3a3146103bb578063d13319c4146103e457610176565b806341c0e1b5116100fd57806341c0e1b5146102945780636901f668146102ab57806372910be0146102b55780638c479925146102de57806391b7f5ed1461030957806398d5fdca1461033257610176565b80622bc52e146101af578063039aec2d146101d8578063149bf50e1461021557806316243356146102405780631ed83fd41461026b57610176565b36610176577fe455499c2acd509bdadebaf5a8fd54c083da31dbe98e785f2a72cdff04e32e004260405161016c9190611160565b60405180910390a1005b7fe455499c2acd509bdadebaf5a8fd54c083da31dbe98e785f2a72cdff04e32e00426040516101a59190611160565b60405180910390a1005b3480156101bb57600080fd5b506101d660048036038101906101d191906111c7565b6104fb565b005b3480156101e457600080fd5b506101ff60048036038101906101fa9190611220565b6105ca565b60405161020c9190611160565b60405180910390f35b34801561022157600080fd5b5061022a6105e6565b604051610237919061128e565b60405180910390f35b34801561024c57600080fd5b5061025561060f565b6040516102629190611160565b60405180910390f35b34801561027757600080fd5b50610292600480360381019061028d91906113ef565b610615565b005b3480156102a057600080fd5b506102a96106e1565b005b6102b3610752565b005b3480156102c157600080fd5b506102dc60048036038101906102d791906113ef565b610916565b005b3480156102ea57600080fd5b506102f36109e2565b6040516103009190611160565b60405180910390f35b34801561031557600080fd5b50610330600480360381019061032b9190611220565b6109e8565b005b34801561033e57600080fd5b50610347610aa4565b6040516103549190611160565b60405180910390f35b34801561036957600080fd5b50610384600480360381019061037f9190611476565b610aae565b005b61038e610b4b565b005b34801561039c57600080fd5b506103a5610c06565b6040516103b29190611160565b60405180910390f35b3480156103c757600080fd5b506103e260048036038101906103dd9190611220565b610c0c565b005b3480156103f057600080fd5b506103f9610d11565b604051610406919061152b565b60405180910390f35b34801561041b57600080fd5b50610424610da3565b604051610431919061128e565b60405180910390f35b34801561044657600080fd5b5061044f610dcd565b60405161045c919061155c565b60405180910390f35b34801561047157600080fd5b5061047a610dff565b005b34801561048857600080fd5b506104a3600480360381019061049e9190611476565b610f05565b005b3480156104b157600080fd5b506104ba610ffb565b6040516104c7919061155c565b60405180910390f35b3480156104dc57600080fd5b506104e5611012565b6040516104f2919061152b565b60405180910390f35b600260009054906101000a900473ffffffffffffffffffffffffffffffffffffffff1673ffffffffffffffffffffffffffffffffffffffff163373ffffffffffffffffffffffffffffffffffffffff1614806105a45750600160009054906101000a900473ffffffffffffffffffffffffffffffffffffffff1673ffffffffffffffffffffffffffffffffffffffff163373ffffffffffffffffffffffffffffffffffffffff16145b6105ad57600080fd5b80600b60006101000a81548160ff02191690831515021790555050565b6000662386f26fc10000826105df91906115a6565b9050919050565b60008060009054906101000a900473ffffffffffffffffffffffffffffffffffffffff16905090565b60095481565b600260009054906101000a900473ffffffffffffffffffffffffffffffffffffffff1673ffffffffffffffffffffffffffffffffffffffff163373ffffffffffffffffffffffffffffffffffffffff1614806106be5750600160009054906101000a900473ffffffffffffffffffffffffffffffffffffffff1673ffffffffffffffffffffffffffffffffffffffff163373ffffffffffffffffffffffffffffffffffffffff16145b6106c757600080fd5b80600c90805190602001906106dd9291906110a4565b5050565b600260009054906101000a900473ffffffffffffffffffffffffffffffffffffffff1673ffffffffffffffffffffffffffffffffffffffff163373ffffffffffffffffffffffffffffffffffffffff161415610750573073ffffffffffffffffffffffffffffffffffffffff16ff5b565b600260009054906101000a900473ffffffffffffffffffffffffffffffffffffffff1673ffffffffffffffffffffffffffffffffffffffff163373ffffffffffffffffffffffffffffffffffffffff16146107ac57600080fd5b6000600454106109145760035460045411156108a65760006003546004546107d49190611600565b905060008054906101000a900473ffffffffffffffffffffffffffffffffffffffff1673ffffffffffffffffffffffffffffffffffffffff166108fc829081150290604051600060405180830381858888f1935050505015801561083c573d6000803e3d6000fd5b507f9496273f5a13d097a94eeecc2fcbcb6a8d26132fa9db01849d964521307dccc54260405161086c9190611160565b60405180910390a180600460008282546108869190611600565b92505081905550610898600454610c0c565b600060048190555050610913565b60035460045414156108ca576108bd600454610c0c565b6000600481905550610912565b6108d2610dff565b60006004819055507fd018531c788764333726fda058e746c7b3af36700a8f1cfe4a074b2eb283d654426040516109099190611160565b60405180910390a15b5b5b565b600260009054906101000a900473ffffffffffffffffffffffffffffffffffffffff1673ffffffffffffffffffffffffffffffffffffffff163373ffffffffffffffffffffffffffffffffffffffff1614806109bf5750600160009054906101000a900473ffffffffffffffffffffffffffffffffffffffff1673ffffffffffffffffffffffffffffffffffffffff163373ffffffffffffffffffffffffffffffffffffffff16145b6109c857600080fd5b80600a90805190602001906109de9291906110a4565b5050565b60035481565b600260009054906101000a900473ffffffffffffffffffffffffffffffffffffffff1673ffffffffffffffffffffffffffffffffffffffff163373ffffffffffffffffffffffffffffffffffffffff161480610a915750600160009054906101000a900473ffffffffffffffffffffffffffffffffffffffff1673ffffffffffffffffffffffffffffffffffffffff163373ffffffffffffffffffffffffffffffffffffffff16145b610a9a57600080fd5b8060038190555050565b6000600354905090565b600260009054906101000a900473ffffffffffffffffffffffffffffffffffffffff1673ffffffffffffffffffffffffffffffffffffffff163373ffffffffffffffffffffffffffffffffffffffff1614610b0857600080fd5b806000806101000a81548173ffffffffffffffffffffffffffffffffffffffff021916908373ffffffffffffffffffffffffffffffffffffffff16021790555050565b600260009054906101000a900473ffffffffffffffffffffffffffffffffffffffff1673ffffffffffffffffffffffffffffffffffffffff163373ffffffffffffffffffffffffffffffffffffffff16148015610ba9575060035434145b610bb257600080fd5b3460046000828254610bc49190611634565b925050819055507fe455499c2acd509bdadebaf5a8fd54c083da31dbe98e785f2a72cdff04e32e00600454604051610bfc9190611160565b60405180910390a1565b60045481565b600260009054906101000a900473ffffffffffffffffffffffffffffffffffffffff1673ffffffffffffffffffffffffffffffffffffffff163373ffffffffffffffffffffffffffffffffffffffff1614610c6657600080fd5b600160009054906101000a900473ffffffffffffffffffffffffffffffffffffffff1673ffffffffffffffffffffffffffffffffffffffff166108fc829081150290604051600060405180830381858888f19350505050158015610cce573d6000803e3d6000fd5b507ff484d07f255ad864671e45ca713ac3a9b593f61fc7df18a1930cdd13977a744c81604051610cfe9190611160565b60405180910390a1600060048190555050565b6060600c8054610d20906116b9565b80601f0160208091040260200160405190810160405280929190818152602001828054610d4c906116b9565b8015610d995780601f10610d6e57610100808354040283529160200191610d99565b820191906000526020600020905b815481529060010190602001808311610d7c57829003601f168201915b5050505050905090565b6000600160009054906101000a900473ffffffffffffffffffffffffffffffffffffffff16905090565b6000600754600854610ddf9190611634565b421015610def5760019050610dfc565b610df7610dff565b600090505b90565b600260009054906101000a900473ffffffffffffffffffffffffffffffffffffffff1673ffffffffffffffffffffffffffffffffffffffff163373ffffffffffffffffffffffffffffffffffffffff1614610e5957600080fd5b7f9496273f5a13d097a94eeecc2fcbcb6a8d26132fa9db01849d964521307dccc5600454604051610e8a9190611160565b60405180910390a160008054906101000a900473ffffffffffffffffffffffffffffffffffffffff1673ffffffffffffffffffffffffffffffffffffffff166108fc6004549081150290604051600060405180830381858888f19350505050158015610efa573d6000803e3d6000fd5b506000600481905550565b600260009054906101000a900473ffffffffffffffffffffffffffffffffffffffff1673ffffffffffffffffffffffffffffffffffffffff163373ffffffffffffffffffffffffffffffffffffffff161480610fae5750600160009054906101000a900473ffffffffffffffffffffffffffffffffffffffff1673ffffffffffffffffffffffffffffffffffffffff163373ffffffffffffffffffffffffffffffffffffffff16145b610fb757600080fd5b80600160006101000a81548173ffffffffffffffffffffffffffffffffffffffff021916908373ffffffffffffffffffffffffffffffffffffffff16021790555050565b6000600b60009054906101000a900460ff16905090565b6060600a8054611021906116b9565b80601f016020809104026020016040519081016040528092919081815260200182805461104d906116b9565b801561109a5780601f1061106f5761010080835404028352916020019161109a565b820191906000526020600020905b81548152906001019060200180831161107d57829003601f168201915b5050505050905090565b8280546110b0906116b9565b90600052602060002090601f0160209004810192826110d25760008555611119565b82601f106110eb57805160ff1916838001178555611119565b82800160010185558215611119579182015b828111156111185782518255916020019190600101906110fd565b5b509050611126919061112a565b5090565b5b8082111561114357600081600090555060010161112b565b5090565b6000819050919050565b61115a81611147565b82525050565b60006020820190506111756000830184611151565b92915050565b6000604051905090565b600080fd5b600080fd5b60008115159050919050565b6111a48161118f565b81146111af57600080fd5b50565b6000813590506111c18161119b565b92915050565b6000602082840312156111dd576111dc611185565b5b60006111eb848285016111b2565b91505092915050565b6111fd81611147565b811461120857600080fd5b50565b60008135905061121a816111f4565b92915050565b60006020828403121561123657611235611185565b5b60006112448482850161120b565b91505092915050565b600073ffffffffffffffffffffffffffffffffffffffff82169050919050565b60006112788261124d565b9050919050565b6112888161126d565b82525050565b60006020820190506112a3600083018461127f565b92915050565b600080fd5b600080fd5b6000601f19601f8301169050919050565b7f4e487b7100000000000000000000000000000000000000000000000000000000600052604160045260246000fd5b6112fc826112b3565b810181811067ffffffffffffffff8211171561131b5761131a6112c4565b5b80604052505050565b600061132e61117b565b905061133a82826112f3565b919050565b600067ffffffffffffffff82111561135a576113596112c4565b5b611363826112b3565b9050602081019050919050565b82818337600083830152505050565b600061139261138d8461133f565b611324565b9050828152602081018484840111156113ae576113ad6112ae565b5b6113b9848285611370565b509392505050565b600082601f8301126113d6576113d56112a9565b5b81356113e684826020860161137f565b91505092915050565b60006020828403121561140557611404611185565b5b600082013567ffffffffffffffff8111156114235761142261118a565b5b61142f848285016113c1565b91505092915050565b60006114438261124d565b9050919050565b61145381611438565b811461145e57600080fd5b50565b6000813590506114708161144a565b92915050565b60006020828403121561148c5761148b611185565b5b600061149a84828501611461565b91505092915050565b600081519050919050565b600082825260208201905092915050565b60005b838110156114dd5780820151818401526020810190506114c2565b838111156114ec576000848401525b50505050565b60006114fd826114a3565b61150781856114ae565b93506115178185602086016114bf565b611520816112b3565b840191505092915050565b6000602082019050818103600083015261154581846114f2565b905092915050565b6115568161118f565b82525050565b6000602082019050611571600083018461154d565b92915050565b7f4e487b7100000000000000000000000000000000000000000000000000000000600052601160045260246000fd5b60006115b182611147565b91506115bc83611147565b9250817fffffffffffffffffffffffffffffffffffffffffffffffffffffffffffffffff04831182151516156115f5576115f4611577565b5b828202905092915050565b600061160b82611147565b915061161683611147565b92508282101561162957611628611577565b5b828203905092915050565b600061163f82611147565b915061164a83611147565b9250827fffffffffffffffffffffffffffffffffffffffffffffffffffffffffffffffff0382111561167f5761167e611577565b5b828201905092915050565b7f4e487b7100000000000000000000000000000000000000000000000000000000600052602260045260246000fd5b600060028204905060018216806116d157607f821691505b602082108114156116e5576116e461168a565b5b5091905056fea264697066735822122086c137541ff196c03b2efe3abddbc24f3787e04994fc12d290d44f850fa13a8964736f6c634300080a0033a26469706673582212207e9e65ef1b9cf3629f4fc5091e949bcae03c6894b14fc585e907d53df82ea1ac64736f6c634300080a0033",
  "immutableReferences": {},
  "source": "// SPDX-License-Identifier: MIT\npragma solidity >=0.8.3 <0.9.0;\nimport \"./Book.sol\";\n\n// contract to handle an entire transaction and to execute the escrow\ncontract BookArbiter{\n\n    // allow contract to use ETH\n    fallback() external payable {\n        // do nothing\n        emit TransactionCreated(block.timestamp);\n    }\n\n    // allow contract to hold ETH\n    receive() external payable {\n        // do nothing\n        emit TransactionFunded(block.timestamp, true);\n    }\n\n    // event\n    event TransactionCreated(uint _timestamp);\n    event TransactionFunded(uint _amount, bool success);\n    event NewOwnership(uint _timestamp);\n    event ContractCreated(address newAddress);\n    \n    /*\n    //Model a Book\n    struct Book{\n        address payable seller; //seller wallet id\n        string title; //book Title\n        bool physical; // 0 = no, 1 = yes\n        string hash;\n        uint price; // price of the book\n    }\n    */\n\n    ////////////////////////////\n    //////////////////////////\n    // two one-to-one maps to hold books and their prices\n    mapping(uint => address payable) private books; // mapping of book id to book\n\n    uint[] private emptyIds; // array of book prices for easy iteration\n\n    uint private bookCount; // number of books in the contract\n\n    constructor() public {\n        // make stuff happen\n        bookCount = 0;\n    }\n\n    function checkEmptyIds() private view returns (bool) {\n        return emptyIds.length > 0;\n    }\n\n    function getEmptyId() private returns (uint) {\n        uint temp = emptyIds[emptyIds.length - 1];\n        emptyIds.pop();\n        return temp;\n    }\n\n    function addBook(address payable _seller, string memory _bookTitle, bool ePfd, string memory _hash, uint _price) public {\n        // construct and initialize new book\n        Book newBook = new Book(payable(address(this)),_seller, _bookTitle, ePfd, _hash, _price);\n\n        // check existing mapping to find any empty indexes for use before pushing\n        if (checkEmptyIds()) {\n            uint temp = getEmptyId(); // get empty ID index and remove it from array\n            // Use index to set place for a new book\n            books[temp] = payable(address(newBook));\n        } else { // if no new spots, then add fresh book to the mappings\n            books[bookCount] = payable(address(newBook));\n            bookCount ++; //increment amount of books in the contract\n        }\n    }\n\n    // returns a book struct object\n    function getBook(uint _id) public view returns (address payable) {\n        return books[_id];\n    }\n\n    // returns amount of books in list\n    function getCount() external view returns (uint) {\n        return bookCount;\n    }\n\n    // Needs to be set to be only operable by the arbiter or seller\n    function removeBook(uint _id) public {\n        delete books[_id]; // zero out index in mapping\n        emptyIds.push(_id);  // add index to emptyIds array\n    }\n\n    ///// TRANSACTION FXNS /////\n    ////////////////////////////\n    function createTxn(uint _id, address _buyer) public payable returns (bool){\n        // create escrow contract\n        Book tome = Book(books[_id]); // get contract from address list\n        emit TransactionCreated(block.timestamp);\n        emit ContractCreated(address(tome));\n\n        // set price in Gwei and check requirements\n        require(msg.sender != tome.getSeller()); // make sure that the seller is the one who is sending the funds\n        // initialize txn contract extras\n        tome.setBuyer(payable(_buyer)); // get buyer address and set it in the Escrow\n\n        return true;\n    }\n\n    function fundTxn(uint _id) external payable {\n        address payable addr = books[_id]; // variable to hold book address\n        Book tome = Book(addr); // get contract from address list\n\n        require(msg.value == tome.getPrice());\n\n        // call function to fund escrow and set value to incoming message amount\n        (bool success, bytes memory returnedData) = address(tome).call{value: msg.value}(abi.encode(tome.fund.selector));\n\n        emit TransactionFunded(tome.getPrice(), success);\n    }\n\n    function validateTxn(uint _id) external payable {\n        Book tome = Book(books[_id]); // get contract from\n        tome.validate();\n        tome.setSeller(payable(msg.sender)); // change ownership of book item\n        emit NewOwnership(block.timestamp);\n    }\n    ///////////////////////////////\n    //////////////////////////////\n\n}\n\n// It may be possible to use Django and cut out book arbiter\n// create a basice website that would handle transactions\n// and carry out contracts with their ID's\n// it would technically be centralized though, so unpreferred",
  "sourcePath": "/home/june/Documents/UNT/CSCE 4575/project files/Blockchain_bookstore/contracts/BookArbiter.sol",
  "compiler": {
    "name": "solc",
    "version": "0.8.10+commit.fc410830.Emscripten.clang"
  },
  "schemaVersion": "3.4.3",
  "updatedAt": "2021-12-03T20:45:08.344Z",
  "networkType": "ethereum",
  "devdoc": {
    "kind": "dev",
    "methods": {},
    "version": 1
  },
  "userdoc": {
    "kind": "user",
    "methods": {},
    "version": 1
  }
}