{
  "contractName": "Book",
  "abi": [
    {
      "inputs": [
        {
          "internalType": "address payable",
          "name": "_seller",
          "type": "address"
        },
        {
          "internalType": "string",
          "name": "_bookTitle",
          "type": "string"
        },
        {
          "internalType": "bool",
          "name": "ePfd",
          "type": "bool"
        },
        {
          "internalType": "string",
          "name": "_hash",
          "type": "string"
        },
        {
          "internalType": "uint256",
          "name": "_price",
          "type": "uint256"
        }
      ],
      "stateMutability": "nonpayable",
      "type": "constructor"
    },
    {
      "anonymous": false,
      "inputs": [
        {
          "indexed": false,
          "internalType": "uint256",
          "name": "_timestamp",
          "type": "uint256"
        }
      ],
      "name": "BuyerRefunded",
      "type": "event"
    },
    {
      "anonymous": false,
      "inputs": [
        {
          "indexed": false,
          "internalType": "uint256",
          "name": "_timestamp",
          "type": "uint256"
        }
      ],
      "name": "ContractNull",
      "type": "event"
    },
    {
      "anonymous": false,
      "inputs": [
        {
          "indexed": false,
          "internalType": "uint256",
          "name": "_timestamp",
          "type": "uint256"
        }
      ],
      "name": "FundingReceived",
      "type": "event"
    },
    {
      "anonymous": false,
      "inputs": [
        {
          "indexed": false,
          "internalType": "uint256",
          "name": "_timestamp",
          "type": "uint256"
        }
      ],
      "name": "SellerPaid",
      "type": "event"
    },
    {
      "stateMutability": "payable",
      "type": "fallback"
    },
    {
      "inputs": [],
      "name": "amountInEth",
      "outputs": [
        {
          "internalType": "uint256",
          "name": "",
          "type": "uint256"
        }
      ],
      "stateMutability": "view",
      "type": "function"
    },
    {
      "inputs": [],
      "name": "balance",
      "outputs": [
        {
          "internalType": "uint256",
          "name": "",
          "type": "uint256"
        }
      ],
      "stateMutability": "view",
      "type": "function"
    },
    {
      "inputs": [],
      "name": "checkTime",
      "outputs": [
        {
          "internalType": "bool",
          "name": "",
          "type": "bool"
        }
      ],
      "stateMutability": "nonpayable",
      "type": "function"
    },
    {
      "inputs": [
        {
          "internalType": "uint256",
          "name": "_amount",
          "type": "uint256"
        }
      ],
      "name": "convertAmount",
      "outputs": [
        {
          "internalType": "uint256",
          "name": "",
          "type": "uint256"
        }
      ],
      "stateMutability": "pure",
      "type": "function"
    },
    {
      "inputs": [],
      "name": "end_time",
      "outputs": [
        {
          "internalType": "uint256",
          "name": "",
          "type": "uint256"
        }
      ],
      "stateMutability": "view",
      "type": "function"
    },
    {
      "inputs": [],
      "name": "fund",
      "outputs": [],
      "stateMutability": "payable",
      "type": "function"
    },
    {
      "inputs": [],
      "name": "getPrice",
      "outputs": [
        {
          "internalType": "uint256",
          "name": "",
          "type": "uint256"
        }
      ],
      "stateMutability": "view",
      "type": "function"
    },
    {
      "inputs": [],
      "name": "getSeller",
      "outputs": [
        {
          "internalType": "address",
          "name": "",
          "type": "address"
        }
      ],
      "stateMutability": "view",
      "type": "function"
    },
    {
      "inputs": [],
      "name": "getbuyer",
      "outputs": [
        {
          "internalType": "address",
          "name": "",
          "type": "address"
        }
      ],
      "stateMutability": "view",
      "type": "function"
    },
    {
      "inputs": [],
      "name": "kill",
      "outputs": [],
      "stateMutability": "nonpayable",
      "type": "function"
    },
    {
      "inputs": [
        {
          "internalType": "uint256",
          "name": "_amount",
          "type": "uint256"
        }
      ],
      "name": "payoutToSeller",
      "outputs": [],
      "stateMutability": "nonpayable",
      "type": "function"
    },
    {
      "inputs": [],
      "name": "refundBuyer",
      "outputs": [],
      "stateMutability": "nonpayable",
      "type": "function"
    },
    {
      "inputs": [
        {
          "internalType": "address payable",
          "name": "_arbiter",
          "type": "address"
        }
      ],
      "name": "setArbiter",
      "outputs": [],
      "stateMutability": "nonpayable",
      "type": "function"
    },
    {
      "inputs": [
        {
          "internalType": "address payable",
          "name": "_buyer",
          "type": "address"
        }
      ],
      "name": "setBuyer",
      "outputs": [],
      "stateMutability": "nonpayable",
      "type": "function"
    },
    {
      "inputs": [
        {
          "internalType": "uint256",
          "name": "_amountInWei",
          "type": "uint256"
        }
      ],
      "name": "setPrice",
      "outputs": [],
      "stateMutability": "nonpayable",
      "type": "function"
    },
    {
      "inputs": [
        {
          "internalType": "address payable",
          "name": "_seller",
          "type": "address"
        }
      ],
      "name": "setSeller",
      "outputs": [],
      "stateMutability": "nonpayable",
      "type": "function"
    },
    {
      "inputs": [],
      "name": "validate",
      "outputs": [],
      "stateMutability": "payable",
      "type": "function"
    },
    {
      "stateMutability": "payable",
      "type": "receive"
    },
    {
      "inputs": [
        {
          "internalType": "string",
          "name": "_title",
          "type": "string"
        }
      ],
      "name": "setTitle",
      "outputs": [],
      "stateMutability": "nonpayable",
      "type": "function"
    },
    {
      "inputs": [],
      "name": "getTitle",
      "outputs": [
        {
          "internalType": "string",
          "name": "",
          "type": "string"
        }
      ],
      "stateMutability": "view",
      "type": "function"
    },
    {
      "inputs": [
        {
          "internalType": "string",
          "name": "_hash",
          "type": "string"
        }
      ],
      "name": "setHash",
      "outputs": [],
      "stateMutability": "nonpayable",
      "type": "function"
    },
    {
      "inputs": [],
      "name": "getHash",
      "outputs": [
        {
          "internalType": "string",
          "name": "",
          "type": "string"
        }
      ],
      "stateMutability": "view",
      "type": "function"
    },
    {
      "inputs": [
        {
          "internalType": "bool",
          "name": "_phys",
          "type": "bool"
        }
      ],
      "name": "setPhysical",
      "outputs": [],
      "stateMutability": "nonpayable",
      "type": "function"
    },
    {
      "inputs": [],
      "name": "getPhysical",
      "outputs": [
        {
          "internalType": "bool",
          "name": "",
          "type": "bool"
        }
      ],
      "stateMutability": "view",
      "type": "function"
    }
  ],
  "bytecode": "0x6080604052633b9aca00600555633b9aca006006556001600755600060085560006009553480156200003057600080fd5b5060405162001b1a38038062001b1a83398181016040528101906200005691906200043c565b84600160006101000a81548173ffffffffffffffffffffffffffffffffffffffff021916908373ffffffffffffffffffffffffffffffffffffffff16021790555083600a6000019080519060200190620000b292919062000112565b5082600a60010160006101000a81548160ff02191690831515021790555081600a6002019080519060200190620000eb92919062000112565b5066038d7ea4c680008162000101919062000531565b6003819055505050505050620005f7565b8280546200012090620005c1565b90600052602060002090601f01602090048101928262000144576000855562000190565b82601f106200015f57805160ff191683800117855562000190565b8280016001018555821562000190579182015b828111156200018f57825182559160200191906001019062000172565b5b5090506200019f9190620001a3565b5090565b5b80821115620001be576000816000905550600101620001a4565b5090565b6000604051905090565b600080fd5b600080fd5b600073ffffffffffffffffffffffffffffffffffffffff82169050919050565b60006200020382620001d6565b9050919050565b6200021581620001f6565b81146200022157600080fd5b50565b60008151905062000235816200020a565b92915050565b600080fd5b600080fd5b6000601f19601f8301169050919050565b7f4e487b7100000000000000000000000000000000000000000000000000000000600052604160045260246000fd5b620002908262000245565b810181811067ffffffffffffffff82111715620002b257620002b162000256565b5b80604052505050565b6000620002c7620001c2565b9050620002d5828262000285565b919050565b600067ffffffffffffffff821115620002f857620002f762000256565b5b620003038262000245565b9050602081019050919050565b60005b838110156200033057808201518184015260208101905062000313565b8381111562000340576000848401525b50505050565b60006200035d6200035784620002da565b620002bb565b9050828152602081018484840111156200037c576200037b62000240565b5b6200038984828562000310565b509392505050565b600082601f830112620003a957620003a86200023b565b5b8151620003bb84826020860162000346565b91505092915050565b60008115159050919050565b620003db81620003c4565b8114620003e757600080fd5b50565b600081519050620003fb81620003d0565b92915050565b6000819050919050565b620004168162000401565b81146200042257600080fd5b50565b60008151905062000436816200040b565b92915050565b600080600080600060a086880312156200045b576200045a620001cc565b5b60006200046b8882890162000224565b955050602086015167ffffffffffffffff8111156200048f576200048e620001d1565b5b6200049d8882890162000391565b9450506040620004b088828901620003ea565b935050606086015167ffffffffffffffff811115620004d457620004d3620001d1565b5b620004e28882890162000391565b9250506080620004f58882890162000425565b9150509295509295909350565b7f4e487b7100000000000000000000000000000000000000000000000000000000600052601160045260246000fd5b60006200053e8262000401565b91506200054b8362000401565b9250817fffffffffffffffffffffffffffffffffffffffffffffffffffffffffffffffff048311821515161562000587576200058662000502565b5b828202905092915050565b7f4e487b7100000000000000000000000000000000000000000000000000000000600052602260045260246000fd5b60006002820490506001821680620005da57607f821691505b60208210811415620005f157620005f062000592565b5b50919050565b61151380620006076000396000f3fe6080604052600436106101435760003560e01c806398d5fdca116100b6578063dbd0e1b61161006f578063dbd0e1b614610443578063e0c6190d1461046e578063e8a61cc814610499578063e99d2866146104b0578063ea495842146104d9578063ff3c1a8f1461050457610181565b806398d5fdca14610366578063a3f09ad614610391578063b60d4288146103ba578063b69ef8a8146103c4578063c83dc3a3146103ef578063d13319c41461041857610181565b80631ed83fd4116101085780631ed83fd41461029f57806341c0e1b5146102c85780636901f668146102df57806372910be0146102e95780638c4799251461031257806391b7f5ed1461033d57610181565b80622bc52e146101ba578063039aec2d146101e3578063149bf50e14610220578063162433561461024b5780631c9c088a1461027657610181565b36610181577fe455499c2acd509bdadebaf5a8fd54c083da31dbe98e785f2a72cdff04e32e00426040516101779190610f52565b60405180910390a1005b7fe455499c2acd509bdadebaf5a8fd54c083da31dbe98e785f2a72cdff04e32e00426040516101b09190610f52565b60405180910390a1005b3480156101c657600080fd5b506101e160048036038101906101dc9190610fb9565b61052f565b005b3480156101ef57600080fd5b5061020a60048036038101906102059190611012565b61054f565b6040516102179190610f52565b60405180910390f35b34801561022c57600080fd5b5061023561056b565b6040516102429190611080565b60405180910390f35b34801561025757600080fd5b50610260610594565b60405161026d9190610f52565b60405180910390f35b34801561028257600080fd5b5061029d600480360381019061029891906110d9565b61059a565b005b3480156102ab57600080fd5b506102c660048036038101906102c1919061124c565b6105de565b005b3480156102d457600080fd5b506102dd6105fb565b005b6102e761066c565b005b3480156102f557600080fd5b50610310600480360381019061030b919061124c565b6108d4565b005b34801561031e57600080fd5b506103276108f1565b6040516103349190610f52565b60405180910390f35b34801561034957600080fd5b50610364600480360381019061035f9190611012565b6108f7565b005b34801561037257600080fd5b5061037b610901565b6040516103889190610f52565b60405180910390f35b34801561039d57600080fd5b506103b860048036038101906103b391906110d9565b61090b565b005b6103c261094e565b005b3480156103d057600080fd5b506103d9610a07565b6040516103e69190610f52565b60405180910390f35b3480156103fb57600080fd5b5061041660048036038101906104119190611012565b610a0d565b005b34801561042457600080fd5b5061042d610b60565b60405161043a919061131d565b60405180910390f35b34801561044f57600080fd5b50610458610bf5565b6040516104659190611080565b60405180910390f35b34801561047a57600080fd5b50610483610c1f565b604051610490919061134e565b60405180910390f35b3480156104a557600080fd5b506104ae610c51565b005b3480156104bc57600080fd5b506104d760048036038101906104d291906110d9565b610da3565b005b3480156104e557600080fd5b506104ee610de7565b6040516104fb919061134e565b60405180910390f35b34801561051057600080fd5b50610519610e01565b604051610526919061131d565b60405180910390f35b80600a60010160006101000a81548160ff02191690831515021790555050565b600066038d7ea4c68000826105649190611398565b9050919050565b60008060009054906101000a900473ffffffffffffffffffffffffffffffffffffffff16905090565b60095481565b80600260006101000a81548173ffffffffffffffffffffffffffffffffffffffff021916908373ffffffffffffffffffffffffffffffffffffffff16021790555050565b80600a60020190805190602001906105f7929190610e96565b5050565b600260009054906101000a900473ffffffffffffffffffffffffffffffffffffffff1673ffffffffffffffffffffffffffffffffffffffff163373ffffffffffffffffffffffffffffffffffffffff16141561066a573073ffffffffffffffffffffffffffffffffffffffff16ff5b565b6000600454106108d257600354600454111561079557600060035460045461069491906113f2565b905060008054906101000a900473ffffffffffffffffffffffffffffffffffffffff1673ffffffffffffffffffffffffffffffffffffffff166108fc829081150290604051600060405180830381858888f193505050501580156106fc573d6000803e3d6000fd5b50806004600082825461070f91906113f2565b92505081905550610721600454610a0d565b7ff484d07f255ad864671e45ca713ac3a9b593f61fc7df18a1930cdd13977a744c426040516107509190610f52565b60405180910390a17f9496273f5a13d097a94eeecc2fcbcb6a8d26132fa9db01849d964521307dccc5426040516107879190610f52565b60405180910390a1506108d1565b60035460045414156107f0576107ac600454610a0d565b60006004819055507ff484d07f255ad864671e45ca713ac3a9b593f61fc7df18a1930cdd13977a744c426040516107e39190610f52565b60405180910390a16108d0565b60008054906101000a900473ffffffffffffffffffffffffffffffffffffffff1673ffffffffffffffffffffffffffffffffffffffff166108fc6004549081150290604051600060405180830381858888f19350505050158015610858573d6000803e3d6000fd5b5060006004819055507f9496273f5a13d097a94eeecc2fcbcb6a8d26132fa9db01849d964521307dccc5426040516108909190610f52565b60405180910390a17fd018531c788764333726fda058e746c7b3af36700a8f1cfe4a074b2eb283d654426040516108c79190610f52565b60405180910390a15b5b5b565b80600a60000190805190602001906108ed929190610e96565b5050565b60035481565b8060038190555050565b6000600354905090565b806000806101000a81548173ffffffffffffffffffffffffffffffffffffffff021916908373ffffffffffffffffffffffffffffffffffffffff16021790555050565b600260009054906101000a900473ffffffffffffffffffffffffffffffffffffffff1673ffffffffffffffffffffffffffffffffffffffff163373ffffffffffffffffffffffffffffffffffffffff161480156109ac575060035434145b6109b557600080fd5b34600460008282546109c79190611426565b925050819055507fe455499c2acd509bdadebaf5a8fd54c083da31dbe98e785f2a72cdff04e32e00426040516109fd9190610f52565b60405180910390a1565b60045481565b60008054906101000a900473ffffffffffffffffffffffffffffffffffffffff1673ffffffffffffffffffffffffffffffffffffffff163373ffffffffffffffffffffffffffffffffffffffff161480610ab45750600260009054906101000a900473ffffffffffffffffffffffffffffffffffffffff1673ffffffffffffffffffffffffffffffffffffffff163373ffffffffffffffffffffffffffffffffffffffff16145b610abd57600080fd5b600160009054906101000a900473ffffffffffffffffffffffffffffffffffffffff1673ffffffffffffffffffffffffffffffffffffffff166108fc829081150290604051600060405180830381858888f19350505050158015610b25573d6000803e3d6000fd5b507ff484d07f255ad864671e45ca713ac3a9b593f61fc7df18a1930cdd13977a744c42604051610b559190610f52565b60405180910390a150565b6060600a6002018054610b72906114ab565b80601f0160208091040260200160405190810160405280929190818152602001828054610b9e906114ab565b8015610beb5780601f10610bc057610100808354040283529160200191610beb565b820191906000526020600020905b815481529060010190602001808311610bce57829003601f168201915b5050505050905090565b6000600160009054906101000a900473ffffffffffffffffffffffffffffffffffffffff16905090565b6000600754600854610c319190611426565b421015610c415760019050610c4e565b610c49610c51565b600090505b90565b600160009054906101000a900473ffffffffffffffffffffffffffffffffffffffff1673ffffffffffffffffffffffffffffffffffffffff163373ffffffffffffffffffffffffffffffffffffffff161480610cfa5750600260009054906101000a900473ffffffffffffffffffffffffffffffffffffffff1673ffffffffffffffffffffffffffffffffffffffff163373ffffffffffffffffffffffffffffffffffffffff16145b610d0357600080fd5b60008054906101000a900473ffffffffffffffffffffffffffffffffffffffff1673ffffffffffffffffffffffffffffffffffffffff166108fc479081150290604051600060405180830381858888f19350505050158015610d69573d6000803e3d6000fd5b507f9496273f5a13d097a94eeecc2fcbcb6a8d26132fa9db01849d964521307dccc542604051610d999190610f52565b60405180910390a1565b80600160006101000a81548173ffffffffffffffffffffffffffffffffffffffff021916908373ffffffffffffffffffffffffffffffffffffffff16021790555050565b6000600a60010160009054906101000a900460ff16905090565b6060600a6000018054610e13906114ab565b80601f0160208091040260200160405190810160405280929190818152602001828054610e3f906114ab565b8015610e8c5780601f10610e6157610100808354040283529160200191610e8c565b820191906000526020600020905b815481529060010190602001808311610e6f57829003601f168201915b5050505050905090565b828054610ea2906114ab565b90600052602060002090601f016020900481019282610ec45760008555610f0b565b82601f10610edd57805160ff1916838001178555610f0b565b82800160010185558215610f0b579182015b82811115610f0a578251825591602001919060010190610eef565b5b509050610f189190610f1c565b5090565b5b80821115610f35576000816000905550600101610f1d565b5090565b6000819050919050565b610f4c81610f39565b82525050565b6000602082019050610f676000830184610f43565b92915050565b6000604051905090565b600080fd5b600080fd5b60008115159050919050565b610f9681610f81565b8114610fa157600080fd5b50565b600081359050610fb381610f8d565b92915050565b600060208284031215610fcf57610fce610f77565b5b6000610fdd84828501610fa4565b91505092915050565b610fef81610f39565b8114610ffa57600080fd5b50565b60008135905061100c81610fe6565b92915050565b60006020828403121561102857611027610f77565b5b600061103684828501610ffd565b91505092915050565b600073ffffffffffffffffffffffffffffffffffffffff82169050919050565b600061106a8261103f565b9050919050565b61107a8161105f565b82525050565b60006020820190506110956000830184611071565b92915050565b60006110a68261103f565b9050919050565b6110b68161109b565b81146110c157600080fd5b50565b6000813590506110d3816110ad565b92915050565b6000602082840312156110ef576110ee610f77565b5b60006110fd848285016110c4565b91505092915050565b600080fd5b600080fd5b6000601f19601f8301169050919050565b7f4e487b7100000000000000000000000000000000000000000000000000000000600052604160045260246000fd5b61115982611110565b810181811067ffffffffffffffff8211171561117857611177611121565b5b80604052505050565b600061118b610f6d565b90506111978282611150565b919050565b600067ffffffffffffffff8211156111b7576111b6611121565b5b6111c082611110565b9050602081019050919050565b82818337600083830152505050565b60006111ef6111ea8461119c565b611181565b90508281526020810184848401111561120b5761120a61110b565b5b6112168482856111cd565b509392505050565b600082601f83011261123357611232611106565b5b81356112438482602086016111dc565b91505092915050565b60006020828403121561126257611261610f77565b5b600082013567ffffffffffffffff8111156112805761127f610f7c565b5b61128c8482850161121e565b91505092915050565b600081519050919050565b600082825260208201905092915050565b60005b838110156112cf5780820151818401526020810190506112b4565b838111156112de576000848401525b50505050565b60006112ef82611295565b6112f981856112a0565b93506113098185602086016112b1565b61131281611110565b840191505092915050565b6000602082019050818103600083015261133781846112e4565b905092915050565b61134881610f81565b82525050565b6000602082019050611363600083018461133f565b92915050565b7f4e487b7100000000000000000000000000000000000000000000000000000000600052601160045260246000fd5b60006113a382610f39565b91506113ae83610f39565b9250817fffffffffffffffffffffffffffffffffffffffffffffffffffffffffffffffff04831182151516156113e7576113e6611369565b5b828202905092915050565b60006113fd82610f39565b915061140883610f39565b92508282101561141b5761141a611369565b5b828203905092915050565b600061143182610f39565b915061143c83610f39565b9250827fffffffffffffffffffffffffffffffffffffffffffffffffffffffffffffffff0382111561147157611470611369565b5b828201905092915050565b7f4e487b7100000000000000000000000000000000000000000000000000000000600052602260045260246000fd5b600060028204905060018216806114c357607f821691505b602082108114156114d7576114d661147c565b5b5091905056fea26469706673582212202e1086dbc67f594d0fdc8671421de640c1c7224403bf8e0210739af54ad0a07964736f6c634300080a0033",
  "immutableReferences": {},
  "source": "// SPDX-License-Identifier: MIT\npragma solidity >=0.8.3 <0.9.0;\nimport \"./Escrow.sol\";\n\n//IPFS contract to hold any pdf's and ebooks\n// need to create javascript to interface with the IPFS daemon \ncontract Book is Escrow{ // Books are all contracts, whether or not they're completed yet\n    //Model a Book\n    struct book{\n        string title; //book Title\n        bool physical; // 0 = no, 1 = yes\n        string hash;\n    }\n\n    //state variables/ contracts\n    book item;\n    //variables and functions to set an amount an item is for sale\n\n    //rewrite addBook as constructor for a single book\n    constructor(address payable _seller, string memory _bookTitle, bool ePfd, string memory _hash, uint _price) public {\n        seller = _seller;\n        item.title = _bookTitle;\n        item.physical = ePfd;\n        item.hash = _hash;\n        amountInEth = _price * (1 ether / 1000);\n    }\n\n    //Set-Get fxns\n\n    // Set title variable\n    function setTitle(string memory _title) external{\n        item.title = _title;\n    }\n\n    // Set title variable\n    function getTitle() external view returns(string memory){\n        return item.title;\n    }\n\n    // Set Hash variable\n    function setHash(string memory _hash) external{\n        item.hash = _hash;\n    }\n\n    // Get physical variable\n    function getHash() external view returns(string memory){\n        return item.hash;\n    }\n\n    // Set physical variable\n    function setPhysical(bool _phys) external{\n        item.physical = _phys;\n    }\n\n    // Set physical variable\n    function getPhysical() external view returns (bool){\n        return item.physical;\n    }\n\n    //the book contract could handle the IPFS transfers and security if needed\n\n\n    // check for how to do security\n}",
  "sourcePath": "/home/june/Documents/UNT/CSCE 4575/project files/Blockchain_bookstore/contracts/Book.sol",
  "compiler": {
    "name": "solc",
    "version": "0.8.10+commit.fc410830.Emscripten.clang"
  },
  "schemaVersion": "3.4.3",
  "updatedAt": "2021-12-01T00:11:47.004Z",
  "networkType": "ethereum",
  "devdoc": {
    "kind": "dev",
    "methods": {},
    "version": 1
  },
  "userdoc": {
    "kind": "user",
    "methods": {},
    "version": 1
  }
}