{
  "contractName": "Escrow",
  "abi": [
    {
      "anonymous": false,
      "inputs": [
        {
          "indexed": false,
          "internalType": "uint256",
          "name": "_timestamp",
          "type": "uint256"
        }
      ],
      "name": "BuyerRefunded",
      "type": "event"
    },
    {
      "anonymous": false,
      "inputs": [
        {
          "indexed": false,
          "internalType": "uint256",
          "name": "_timestamp",
          "type": "uint256"
        }
      ],
      "name": "ContractNull",
      "type": "event"
    },
    {
      "anonymous": false,
      "inputs": [
        {
          "indexed": false,
          "internalType": "uint256",
          "name": "_timestamp",
          "type": "uint256"
        }
      ],
      "name": "FundingReceived",
      "type": "event"
    },
    {
      "anonymous": false,
      "inputs": [
        {
          "indexed": false,
          "internalType": "uint256",
          "name": "_timestamp",
          "type": "uint256"
        }
      ],
      "name": "SellerPaid",
      "type": "event"
    },
    {
      "stateMutability": "payable",
      "type": "fallback"
    },
    {
      "inputs": [],
      "name": "amountInEth",
      "outputs": [
        {
          "internalType": "uint256",
          "name": "",
          "type": "uint256"
        }
      ],
      "stateMutability": "view",
      "type": "function"
    },
    {
      "inputs": [],
      "name": "balance",
      "outputs": [
        {
          "internalType": "uint256",
          "name": "",
          "type": "uint256"
        }
      ],
      "stateMutability": "view",
      "type": "function"
    },
    {
      "inputs": [],
      "name": "end_time",
      "outputs": [
        {
          "internalType": "uint256",
          "name": "",
          "type": "uint256"
        }
      ],
      "stateMutability": "view",
      "type": "function"
    },
    {
      "stateMutability": "payable",
      "type": "receive"
    },
    {
      "inputs": [],
      "name": "kill",
      "outputs": [],
      "stateMutability": "nonpayable",
      "type": "function"
    },
    {
      "inputs": [],
      "name": "validate",
      "outputs": [],
      "stateMutability": "payable",
      "type": "function"
    },
    {
      "inputs": [
        {
          "internalType": "uint256",
          "name": "_amount",
          "type": "uint256"
        }
      ],
      "name": "convertAmount",
      "outputs": [
        {
          "internalType": "uint256",
          "name": "",
          "type": "uint256"
        }
      ],
      "stateMutability": "pure",
      "type": "function"
    },
    {
      "inputs": [],
      "name": "fund",
      "outputs": [],
      "stateMutability": "payable",
      "type": "function"
    },
    {
      "inputs": [
        {
          "internalType": "uint256",
          "name": "_amount",
          "type": "uint256"
        }
      ],
      "name": "payoutToSeller",
      "outputs": [],
      "stateMutability": "nonpayable",
      "type": "function"
    },
    {
      "inputs": [],
      "name": "refundBuyer",
      "outputs": [],
      "stateMutability": "nonpayable",
      "type": "function"
    },
    {
      "inputs": [],
      "name": "checkTime",
      "outputs": [
        {
          "internalType": "bool",
          "name": "",
          "type": "bool"
        }
      ],
      "stateMutability": "nonpayable",
      "type": "function"
    },
    {
      "inputs": [
        {
          "internalType": "address payable",
          "name": "_seller",
          "type": "address"
        }
      ],
      "name": "setSeller",
      "outputs": [],
      "stateMutability": "nonpayable",
      "type": "function"
    },
    {
      "inputs": [],
      "name": "getSeller",
      "outputs": [
        {
          "internalType": "address",
          "name": "",
          "type": "address"
        }
      ],
      "stateMutability": "view",
      "type": "function"
    },
    {
      "inputs": [
        {
          "internalType": "address payable",
          "name": "_buyer",
          "type": "address"
        }
      ],
      "name": "setBuyer",
      "outputs": [],
      "stateMutability": "nonpayable",
      "type": "function"
    },
    {
      "inputs": [],
      "name": "getbuyer",
      "outputs": [
        {
          "internalType": "address",
          "name": "",
          "type": "address"
        }
      ],
      "stateMutability": "view",
      "type": "function"
    },
    {
      "inputs": [
        {
          "internalType": "address payable",
          "name": "_arbiter",
          "type": "address"
        }
      ],
      "name": "setArbiter",
      "outputs": [],
      "stateMutability": "nonpayable",
      "type": "function"
    },
    {
      "inputs": [
        {
          "internalType": "uint256",
          "name": "_amountInWei",
          "type": "uint256"
        }
      ],
      "name": "setPrice",
      "outputs": [],
      "stateMutability": "nonpayable",
      "type": "function"
    },
    {
      "inputs": [],
      "name": "getPrice",
      "outputs": [
        {
          "internalType": "uint256",
          "name": "",
          "type": "uint256"
        }
      ],
      "stateMutability": "view",
      "type": "function"
    }
  ],
  "bytecode": "0x6080604052633b9aca00600555633b9aca0060065560016007556000600855600060095534801561002f57600080fd5b50610e938061003f6000396000f3fe6080604052600436106101025760003560e01c806398d5fdca11610095578063c83dc3a311610064578063c83dc3a314610333578063dbd0e1b61461035c578063e0c6190d14610387578063e8a61cc8146103b2578063e99d2866146103c957610140565b806398d5fdca146102aa578063a3f09ad6146102d5578063b60d4288146102fe578063b69ef8a81461030857610140565b806341c0e1b5116100d157806341c0e1b5146102355780636901f6681461024c5780638c4799251461025657806391b7f5ed1461028157610140565b8063039aec2d14610179578063149bf50e146101b657806316243356146101e15780631c9c088a1461020c57610140565b36610140577fe455499c2acd509bdadebaf5a8fd54c083da31dbe98e785f2a72cdff04e32e00426040516101369190610bd4565b60405180910390a1005b7fe455499c2acd509bdadebaf5a8fd54c083da31dbe98e785f2a72cdff04e32e004260405161016f9190610bd4565b60405180910390a1005b34801561018557600080fd5b506101a0600480360381019061019b9190610c20565b6103f2565b6040516101ad9190610bd4565b60405180910390f35b3480156101c257600080fd5b506101cb61040e565b6040516101d89190610c8e565b60405180910390f35b3480156101ed57600080fd5b506101f6610437565b6040516102039190610bd4565b60405180910390f35b34801561021857600080fd5b50610233600480360381019061022e9190610ce7565b61043d565b005b34801561024157600080fd5b5061024a610481565b005b6102546104f2565b005b34801561026257600080fd5b5061026b61075a565b6040516102789190610bd4565b60405180910390f35b34801561028d57600080fd5b506102a860048036038101906102a39190610c20565b610760565b005b3480156102b657600080fd5b506102bf61076a565b6040516102cc9190610bd4565b60405180910390f35b3480156102e157600080fd5b506102fc60048036038101906102f79190610ce7565b610774565b005b6103066107b7565b005b34801561031457600080fd5b5061031d610870565b60405161032a9190610bd4565b60405180910390f35b34801561033f57600080fd5b5061035a60048036038101906103559190610c20565b610876565b005b34801561036857600080fd5b506103716109c9565b60405161037e9190610c8e565b60405180910390f35b34801561039357600080fd5b5061039c6109f3565b6040516103a99190610d2f565b60405180910390f35b3480156103be57600080fd5b506103c7610a25565b005b3480156103d557600080fd5b506103f060048036038101906103eb9190610ce7565b610b77565b005b600066038d7ea4c68000826104079190610d79565b9050919050565b60008060009054906101000a900473ffffffffffffffffffffffffffffffffffffffff16905090565b60095481565b80600260006101000a81548173ffffffffffffffffffffffffffffffffffffffff021916908373ffffffffffffffffffffffffffffffffffffffff16021790555050565b600260009054906101000a900473ffffffffffffffffffffffffffffffffffffffff1673ffffffffffffffffffffffffffffffffffffffff163373ffffffffffffffffffffffffffffffffffffffff1614156104f0573073ffffffffffffffffffffffffffffffffffffffff16ff5b565b60006004541061075857600354600454111561061b57600060035460045461051a9190610dd3565b905060008054906101000a900473ffffffffffffffffffffffffffffffffffffffff1673ffffffffffffffffffffffffffffffffffffffff166108fc829081150290604051600060405180830381858888f19350505050158015610582573d6000803e3d6000fd5b5080600460008282546105959190610dd3565b925050819055506105a7600454610876565b7ff484d07f255ad864671e45ca713ac3a9b593f61fc7df18a1930cdd13977a744c426040516105d69190610bd4565b60405180910390a17f9496273f5a13d097a94eeecc2fcbcb6a8d26132fa9db01849d964521307dccc54260405161060d9190610bd4565b60405180910390a150610757565b600354600454141561067657610632600454610876565b60006004819055507ff484d07f255ad864671e45ca713ac3a9b593f61fc7df18a1930cdd13977a744c426040516106699190610bd4565b60405180910390a1610756565b60008054906101000a900473ffffffffffffffffffffffffffffffffffffffff1673ffffffffffffffffffffffffffffffffffffffff166108fc6004549081150290604051600060405180830381858888f193505050501580156106de573d6000803e3d6000fd5b5060006004819055507f9496273f5a13d097a94eeecc2fcbcb6a8d26132fa9db01849d964521307dccc5426040516107169190610bd4565b60405180910390a17fd018531c788764333726fda058e746c7b3af36700a8f1cfe4a074b2eb283d6544260405161074d9190610bd4565b60405180910390a15b5b5b565b60035481565b8060038190555050565b6000600354905090565b806000806101000a81548173ffffffffffffffffffffffffffffffffffffffff021916908373ffffffffffffffffffffffffffffffffffffffff16021790555050565b600260009054906101000a900473ffffffffffffffffffffffffffffffffffffffff1673ffffffffffffffffffffffffffffffffffffffff163373ffffffffffffffffffffffffffffffffffffffff16148015610815575060035434145b61081e57600080fd5b34600460008282546108309190610e07565b925050819055507fe455499c2acd509bdadebaf5a8fd54c083da31dbe98e785f2a72cdff04e32e00426040516108669190610bd4565b60405180910390a1565b60045481565b60008054906101000a900473ffffffffffffffffffffffffffffffffffffffff1673ffffffffffffffffffffffffffffffffffffffff163373ffffffffffffffffffffffffffffffffffffffff16148061091d5750600260009054906101000a900473ffffffffffffffffffffffffffffffffffffffff1673ffffffffffffffffffffffffffffffffffffffff163373ffffffffffffffffffffffffffffffffffffffff16145b61092657600080fd5b600160009054906101000a900473ffffffffffffffffffffffffffffffffffffffff1673ffffffffffffffffffffffffffffffffffffffff166108fc829081150290604051600060405180830381858888f1935050505015801561098e573d6000803e3d6000fd5b507ff484d07f255ad864671e45ca713ac3a9b593f61fc7df18a1930cdd13977a744c426040516109be9190610bd4565b60405180910390a150565b6000600160009054906101000a900473ffffffffffffffffffffffffffffffffffffffff16905090565b6000600754600854610a059190610e07565b421015610a155760019050610a22565b610a1d610a25565b600090505b90565b600160009054906101000a900473ffffffffffffffffffffffffffffffffffffffff1673ffffffffffffffffffffffffffffffffffffffff163373ffffffffffffffffffffffffffffffffffffffff161480610ace5750600260009054906101000a900473ffffffffffffffffffffffffffffffffffffffff1673ffffffffffffffffffffffffffffffffffffffff163373ffffffffffffffffffffffffffffffffffffffff16145b610ad757600080fd5b60008054906101000a900473ffffffffffffffffffffffffffffffffffffffff1673ffffffffffffffffffffffffffffffffffffffff166108fc479081150290604051600060405180830381858888f19350505050158015610b3d573d6000803e3d6000fd5b507f9496273f5a13d097a94eeecc2fcbcb6a8d26132fa9db01849d964521307dccc542604051610b6d9190610bd4565b60405180910390a1565b80600160006101000a81548173ffffffffffffffffffffffffffffffffffffffff021916908373ffffffffffffffffffffffffffffffffffffffff16021790555050565b6000819050919050565b610bce81610bbb565b82525050565b6000602082019050610be96000830184610bc5565b92915050565b600080fd5b610bfd81610bbb565b8114610c0857600080fd5b50565b600081359050610c1a81610bf4565b92915050565b600060208284031215610c3657610c35610bef565b5b6000610c4484828501610c0b565b91505092915050565b600073ffffffffffffffffffffffffffffffffffffffff82169050919050565b6000610c7882610c4d565b9050919050565b610c8881610c6d565b82525050565b6000602082019050610ca36000830184610c7f565b92915050565b6000610cb482610c4d565b9050919050565b610cc481610ca9565b8114610ccf57600080fd5b50565b600081359050610ce181610cbb565b92915050565b600060208284031215610cfd57610cfc610bef565b5b6000610d0b84828501610cd2565b91505092915050565b60008115159050919050565b610d2981610d14565b82525050565b6000602082019050610d446000830184610d20565b92915050565b7f4e487b7100000000000000000000000000000000000000000000000000000000600052601160045260246000fd5b6000610d8482610bbb565b9150610d8f83610bbb565b9250817fffffffffffffffffffffffffffffffffffffffffffffffffffffffffffffffff0483118215151615610dc857610dc7610d4a565b5b828202905092915050565b6000610dde82610bbb565b9150610de983610bbb565b925082821015610dfc57610dfb610d4a565b5b828203905092915050565b6000610e1282610bbb565b9150610e1d83610bbb565b9250827fffffffffffffffffffffffffffffffffffffffffffffffffffffffffffffffff03821115610e5257610e51610d4a565b5b82820190509291505056fea26469706673582212209b0278642cd79c3d8f3a5e6d104254202e8d1e61f376fb95c2743978a466222564736f6c634300080a0033",
  "immutableReferences": {},
  "source": "// SPDX-License-Identifier: MIT\npragma solidity >=0.8.3 <0.9.0;\n\n// the base outline for the escrow contract was taken from github\n// need to edit and change it to fit the needs of the project\ncontract Escrow {    // think about adding a USD => WEI converter for easier purchase legibility\n    //state variables\n    address payable buyer;\n    address payable seller;\n    address payable arbiter;\n    uint public amountInEth;\n    uint public balance;\n    uint Gwei = 1000000000; // 1 ETH = 1000000000 GWEI;\n    uint Wei = 1000000000; // 1 Gwei = 1000000000 WEI;\n\n    // variables for time tracking\n    // 259200 is 3 days\n    uint private limit = 1; //  1 second\n    uint private begin = 0; // variable for beginning of contract\n    uint public end_time = 0; // variable for end of contract\n\n    // Define a function 'kill' if required to cancel contract\n    function kill() external {\n        if (msg.sender == arbiter) {\n            selfdestruct(payable(address(this)));\n        }\n    }\n\n    //solidity events\n    event FundingReceived(uint _timestamp);\n    event SellerPaid(uint _timestamp);\n    event BuyerRefunded(uint _timestamp);\n    event ContractNull(uint _timestamp);\n\n    // allow contract to use ETH\n    fallback() external payable {\n        // do nothing\n        emit FundingReceived(block.timestamp);\n    }\n\n    // allow contract to hold ETH\n    receive() external payable {\n        // do nothing\n        emit FundingReceived(block.timestamp);\n    }\n    \n    \n\n    //function that confirms/validates success of transaction\n    function validate() public payable {\n        //if the buyer has paid\n        if (balance >= 0) {\n            //if the buyer has paid more than the amount in the contract\n            if (balance > amountInEth) {\n                //refund the buyer\n                uint difference = balance - amountInEth;\n                buyer.transfer(difference);\n\n                // re-adjust balance and pay seller\n                balance -= difference;\n                payoutToSeller(balance);\n\n                //emit the event\n                emit SellerPaid(block.timestamp);\n                emit BuyerRefunded(block.timestamp);\n\n                //selfdestruct(payable(address(this))); // kill the contract\n            }\n            else if (balance == amountInEth)\n            { // if correct amount has been input\n                payoutToSeller(balance);\n                balance = 0;\n                emit SellerPaid(block.timestamp);\n                //selfdestruct(payable(address(this))); // kill the contract\n            }\n            //if the buyer has paid less than the amount in the contract\n            else{ // INVALID CONTRACT\n                // refund to the buyer and cancel the contract\n                buyer.transfer(balance);\n                balance = 0;\n                //emit the event\n                emit BuyerRefunded(block.timestamp);\n                emit ContractNull(block.timestamp); // emit voided contract\n                //selfdestruct(payable(address(this))); // kill the contract\n\n            }\n        }\n    }\n\n    function convertAmount(uint256 _amount) public pure returns (uint) {\n        return _amount * (1 ether / 1000); // return ETH amount converted roughly down to dollars\n    }\n\n    //function for buyer to fund; payable keyword must be used\n    function fund() public payable {\n        require(msg.sender == arbiter && msg.value == amountInEth);  //conditional checks to make sure only the buyer's address);\n        balance += msg.value;\n        emit FundingReceived(block.timestamp); //emit FundingReceived() event\n    }\n    \n    //function for buyer to payout seller\n    function payoutToSeller(uint _amount) public {\n        require(msg.sender == buyer || msg.sender == arbiter); //only buyer or arbiter can execute this function\n        seller.transfer(_amount); //using the solidity's built in transfer function, the funds are sent to the seller\n        emit SellerPaid(block.timestamp); //emit SellerPaid() event\n    }\n    \n    //function for seller to refund the buyer\n    function refundBuyer() public {\n        require(msg.sender == seller || msg.sender == arbiter);//only buyer or arbiter can execute this function\n        buyer.transfer(address(this).balance); //using the solidity's built in transfer function, the funds are returned to the buyer\n        emit BuyerRefunded(block.timestamp);//emit BuyerRefunded() event\n    }\n\n    /*\n    //function that creates and holds a time limit for the escrow using validator\n    function timeLimit() external payable {\n        if(checkTime())\n        {\n        }\n        else\n        {\n        }\n    }\n    */\n\n    // function checkTime() to check time status of the contract\n    // would need to be used by an exteranl script/service as ethereum does not have internal scheduling functions\n    function checkTime() public returns (bool) {\n        //if the time limit has not been reached\n        if (block.timestamp < (begin + limit)) {\n            return true;\n        }\n        //if the time limit has been reached\n        else {\n            refundBuyer();\n            return false;\n        }\n    }\n    \n    //constructor function; used to set initial state of contract\n    /*\n    constructor() public {\n        begin = block.timestamp; // set beginning of contract\n        end_time = begin + limit; // set contract limit at 3 days\n    }\n    */\n\n    //////////////////////\n    // GET-SET FXNS /////\n    function setSeller(address payable _seller) external {\n        seller = _seller;\n    }\n\n    function getSeller() external view returns (address){\n        return seller;\n    }\n\n    function setBuyer(address payable _buyer) external {\n        buyer = _buyer;\n    }\n\n    function getbuyer() external view returns (address){\n        return buyer;\n    }\n\n    function setArbiter(address payable _arbiter) external {\n        arbiter = _arbiter;\n    }\n\n    function setPrice(uint _amountInWei) external {\n        amountInEth = _amountInWei;\n    }\n\n    function getPrice() external view returns(uint) {\n        return amountInEth;\n    }\n    ///////////////////////\n\n}",
  "sourcePath": "/home/june/Documents/UNT/CSCE 4575/project files/Blockchain_bookstore/contracts/Escrow.sol",
  "compiler": {
    "name": "solc",
    "version": "0.8.10+commit.fc410830.Emscripten.clang"
  },
  "schemaVersion": "3.4.3",
  "updatedAt": "2021-12-01T00:11:46.999Z",
  "networkType": "ethereum",
  "devdoc": {
    "kind": "dev",
    "methods": {},
    "version": 1
  },
  "userdoc": {
    "kind": "user",
    "methods": {},
    "version": 1
  }
}