{
  "contractName": "Escrow",
  "abi": [
    {
      "inputs": [],
      "stateMutability": "nonpayable",
      "type": "constructor"
    },
    {
      "anonymous": false,
      "inputs": [
        {
          "indexed": false,
          "internalType": "uint256",
          "name": "_timestamp",
          "type": "uint256"
        }
      ],
      "name": "BuyerRefunded",
      "type": "event"
    },
    {
      "anonymous": false,
      "inputs": [
        {
          "indexed": false,
          "internalType": "uint256",
          "name": "_timestamp",
          "type": "uint256"
        }
      ],
      "name": "ContractNull",
      "type": "event"
    },
    {
      "anonymous": false,
      "inputs": [
        {
          "indexed": false,
          "internalType": "uint256",
          "name": "_timestamp",
          "type": "uint256"
        }
      ],
      "name": "FundingReceived",
      "type": "event"
    },
    {
      "anonymous": false,
      "inputs": [
        {
          "indexed": false,
          "internalType": "uint256",
          "name": "_timestamp",
          "type": "uint256"
        }
      ],
      "name": "SellerPaid",
      "type": "event"
    },
    {
      "inputs": [],
      "name": "amountInWei",
      "outputs": [
        {
          "internalType": "uint256",
          "name": "",
          "type": "uint256"
        }
      ],
      "stateMutability": "view",
      "type": "function",
      "constant": true
    },
    {
      "inputs": [],
      "name": "balance",
      "outputs": [
        {
          "internalType": "uint256",
          "name": "",
          "type": "uint256"
        }
      ],
      "stateMutability": "view",
      "type": "function",
      "constant": true
    },
    {
      "inputs": [],
      "name": "end_time",
      "outputs": [
        {
          "internalType": "uint256",
          "name": "",
          "type": "uint256"
        }
      ],
      "stateMutability": "view",
      "type": "function",
      "constant": true
    },
    {
      "inputs": [],
      "name": "kill",
      "outputs": [],
      "stateMutability": "nonpayable",
      "type": "function"
    },
    {
      "inputs": [],
      "name": "validate",
      "outputs": [],
      "stateMutability": "payable",
      "type": "function",
      "payable": true
    },
    {
      "inputs": [
        {
          "internalType": "uint256",
          "name": "_amount",
          "type": "uint256"
        }
      ],
      "name": "convertAmount",
      "outputs": [
        {
          "internalType": "uint256",
          "name": "",
          "type": "uint256"
        }
      ],
      "stateMutability": "pure",
      "type": "function",
      "constant": true
    },
    {
      "inputs": [],
      "name": "fund",
      "outputs": [],
      "stateMutability": "payable",
      "type": "function",
      "payable": true
    },
    {
      "inputs": [
        {
          "internalType": "uint256",
          "name": "_amount",
          "type": "uint256"
        }
      ],
      "name": "payoutToSeller",
      "outputs": [],
      "stateMutability": "nonpayable",
      "type": "function"
    },
    {
      "inputs": [],
      "name": "refundBuyer",
      "outputs": [],
      "stateMutability": "nonpayable",
      "type": "function"
    },
    {
      "inputs": [],
      "name": "timeLimit",
      "outputs": [],
      "stateMutability": "payable",
      "type": "function",
      "payable": true
    },
    {
      "inputs": [],
      "name": "checkTime",
      "outputs": [
        {
          "internalType": "bool",
          "name": "",
          "type": "bool"
        }
      ],
      "stateMutability": "nonpayable",
      "type": "function"
    },
    {
      "inputs": [
        {
          "internalType": "address payable",
          "name": "_seller",
          "type": "address"
        }
      ],
      "name": "setSeller",
      "outputs": [],
      "stateMutability": "nonpayable",
      "type": "function"
    },
    {
      "inputs": [],
      "name": "getSeller",
      "outputs": [
        {
          "internalType": "address",
          "name": "",
          "type": "address"
        }
      ],
      "stateMutability": "view",
      "type": "function",
      "constant": true
    },
    {
      "inputs": [
        {
          "internalType": "address payable",
          "name": "_buyer",
          "type": "address"
        }
      ],
      "name": "setBuyer",
      "outputs": [],
      "stateMutability": "nonpayable",
      "type": "function"
    },
    {
      "inputs": [],
      "name": "getbuyer",
      "outputs": [
        {
          "internalType": "address",
          "name": "",
          "type": "address"
        }
      ],
      "stateMutability": "view",
      "type": "function",
      "constant": true
    },
    {
      "inputs": [
        {
          "internalType": "address payable",
          "name": "_arbiter",
          "type": "address"
        }
      ],
      "name": "setArbiter",
      "outputs": [],
      "stateMutability": "nonpayable",
      "type": "function"
    },
    {
      "inputs": [
        {
          "internalType": "uint256",
          "name": "_amountInWei",
          "type": "uint256"
        }
      ],
      "name": "setPrice",
      "outputs": [],
      "stateMutability": "nonpayable",
      "type": "function"
    },
    {
      "inputs": [],
      "name": "getPrice",
      "outputs": [
        {
          "internalType": "uint256",
          "name": "",
          "type": "uint256"
        }
      ],
      "stateMutability": "view",
      "type": "function",
      "constant": true
    }
  ],
  "bytecode": "0x6080604052633b9aca00600555633b9aca0060065560016007556000600855600060095534801561002f57600080fd5b5042600881905550600754600854610047919061008b565b6009819055506100e1565b6000819050919050565b7f4e487b7100000000000000000000000000000000000000000000000000000000600052601160045260246000fd5b600061009682610052565b91506100a183610052565b9250827fffffffffffffffffffffffffffffffffffffffffffffffffffffffffffffffff038211156100d6576100d561005c565b5b828201905092915050565b610e86806100f06000396000f3fe6080604052600436106101095760003560e01c8063a3f09ad611610095578063c83dc3a311610064578063c83dc3a3146102d2578063dbd0e1b6146102fb578063e0c6190d14610326578063e8a61cc814610351578063e99d28661461036857610109565b8063a3f09ad61461026a578063b60d428814610293578063b69ef8a81461029d578063c08d1fe5146102c857610109565b80631c9c088a116100dc5780631c9c088a146101cc57806341c0e1b5146101f55780636901f6681461020c57806391b7f5ed1461021657806398d5fdca1461023f57610109565b8063039aec2d1461010e57806308ea9a801461014b578063149bf50e1461017657806316243356146101a1575b600080fd5b34801561011a57600080fd5b5061013560048036038101906101309190610be9565b610391565b6040516101429190610c25565b60405180910390f35b34801561015757600080fd5b506101606103ad565b60405161016d9190610c25565b60405180910390f35b34801561018257600080fd5b5061018b6103b3565b6040516101989190610c81565b60405180910390f35b3480156101ad57600080fd5b506101b66103dc565b6040516101c39190610c25565b60405180910390f35b3480156101d857600080fd5b506101f360048036038101906101ee9190610cda565b6103e2565b005b34801561020157600080fd5b5061020a610426565b005b610214610497565b005b34801561022257600080fd5b5061023d60048036038101906102389190610be9565b61073d565b005b34801561024b57600080fd5b50610254610747565b6040516102619190610c25565b60405180910390f35b34801561027657600080fd5b50610291600480360381019061028c9190610cda565b610751565b005b61029b610794565b005b3480156102a957600080fd5b506102b261084e565b6040516102bf9190610c25565b60405180910390f35b6102d0610854565b005b3480156102de57600080fd5b506102f960048036038101906102f49190610be9565b610869565b005b34801561030757600080fd5b506103106109bc565b60405161031d9190610c81565b60405180910390f35b34801561033257600080fd5b5061033b6109e6565b6040516103489190610d22565b60405180910390f35b34801561035d57600080fd5b50610366610a18565b005b34801561037457600080fd5b5061038f600480360381019061038a9190610cda565b610b6a565b005b600066038d7ea4c68000826103a69190610d6c565b9050919050565b60035481565b60008060009054906101000a900473ffffffffffffffffffffffffffffffffffffffff16905090565b60095481565b80600260006101000a81548173ffffffffffffffffffffffffffffffffffffffff021916908373ffffffffffffffffffffffffffffffffffffffff16021790555050565b600260009054906101000a900473ffffffffffffffffffffffffffffffffffffffff1673ffffffffffffffffffffffffffffffffffffffff163373ffffffffffffffffffffffffffffffffffffffff161415610495573073ffffffffffffffffffffffffffffffffffffffff16ff5b565b6000600454111561073b5760035460045411156105d45760006003546004546104c09190610dc6565b905060008054906101000a900473ffffffffffffffffffffffffffffffffffffffff1673ffffffffffffffffffffffffffffffffffffffff166108fc829081150290604051600060405180830381858888f19350505050158015610528573d6000803e3d6000fd5b50806004600082825461053b9190610dc6565b9250508190555061054d600454610869565b7ff484d07f255ad864671e45ca713ac3a9b593f61fc7df18a1930cdd13977a744c4260405161057c9190610c25565b60405180910390a17f9496273f5a13d097a94eeecc2fcbcb6a8d26132fa9db01849d964521307dccc5426040516105b39190610c25565b60405180910390a13073ffffffffffffffffffffffffffffffffffffffff16ff5b6003546004541415610643576105eb600454610869565b60006004819055507ff484d07f255ad864671e45ca713ac3a9b593f61fc7df18a1930cdd13977a744c426040516106229190610c25565b60405180910390a13073ffffffffffffffffffffffffffffffffffffffff16ff5b60008054906101000a900473ffffffffffffffffffffffffffffffffffffffff1673ffffffffffffffffffffffffffffffffffffffff166108fc6004549081150290604051600060405180830381858888f193505050501580156106ab573d6000803e3d6000fd5b5060006004819055507f9496273f5a13d097a94eeecc2fcbcb6a8d26132fa9db01849d964521307dccc5426040516106e39190610c25565b60405180910390a17fd018531c788764333726fda058e746c7b3af36700a8f1cfe4a074b2eb283d6544260405161071a9190610c25565b60405180910390a13073ffffffffffffffffffffffffffffffffffffffff16ff5b565b8060038190555050565b6000600354905090565b806000806101000a81548173ffffffffffffffffffffffffffffffffffffffff021916908373ffffffffffffffffffffffffffffffffffffffff16021790555050565b600260009054906101000a900473ffffffffffffffffffffffffffffffffffffffff1673ffffffffffffffffffffffffffffffffffffffff163373ffffffffffffffffffffffffffffffffffffffff161480156107f357506003543410155b6107fc57600080fd5b346004600082825461080e9190610dfa565b925050819055507fe455499c2acd509bdadebaf5a8fd54c083da31dbe98e785f2a72cdff04e32e00426040516108449190610c25565b60405180910390a1565b60045481565b61085c6109e6565b1561086657610867565b5b565b60008054906101000a900473ffffffffffffffffffffffffffffffffffffffff1673ffffffffffffffffffffffffffffffffffffffff163373ffffffffffffffffffffffffffffffffffffffff1614806109105750600260009054906101000a900473ffffffffffffffffffffffffffffffffffffffff1673ffffffffffffffffffffffffffffffffffffffff163373ffffffffffffffffffffffffffffffffffffffff16145b61091957600080fd5b600160009054906101000a900473ffffffffffffffffffffffffffffffffffffffff1673ffffffffffffffffffffffffffffffffffffffff166108fc829081150290604051600060405180830381858888f19350505050158015610981573d6000803e3d6000fd5b507ff484d07f255ad864671e45ca713ac3a9b593f61fc7df18a1930cdd13977a744c426040516109b19190610c25565b60405180910390a150565b6000600160009054906101000a900473ffffffffffffffffffffffffffffffffffffffff16905090565b60006007546008546109f89190610dfa565b421015610a085760019050610a15565b610a10610a18565b600090505b90565b600160009054906101000a900473ffffffffffffffffffffffffffffffffffffffff1673ffffffffffffffffffffffffffffffffffffffff163373ffffffffffffffffffffffffffffffffffffffff161480610ac15750600260009054906101000a900473ffffffffffffffffffffffffffffffffffffffff1673ffffffffffffffffffffffffffffffffffffffff163373ffffffffffffffffffffffffffffffffffffffff16145b610aca57600080fd5b60008054906101000a900473ffffffffffffffffffffffffffffffffffffffff1673ffffffffffffffffffffffffffffffffffffffff166108fc479081150290604051600060405180830381858888f19350505050158015610b30573d6000803e3d6000fd5b507f9496273f5a13d097a94eeecc2fcbcb6a8d26132fa9db01849d964521307dccc542604051610b609190610c25565b60405180910390a1565b80600160006101000a81548173ffffffffffffffffffffffffffffffffffffffff021916908373ffffffffffffffffffffffffffffffffffffffff16021790555050565b600080fd5b6000819050919050565b610bc681610bb3565b8114610bd157600080fd5b50565b600081359050610be381610bbd565b92915050565b600060208284031215610bff57610bfe610bae565b5b6000610c0d84828501610bd4565b91505092915050565b610c1f81610bb3565b82525050565b6000602082019050610c3a6000830184610c16565b92915050565b600073ffffffffffffffffffffffffffffffffffffffff82169050919050565b6000610c6b82610c40565b9050919050565b610c7b81610c60565b82525050565b6000602082019050610c966000830184610c72565b92915050565b6000610ca782610c40565b9050919050565b610cb781610c9c565b8114610cc257600080fd5b50565b600081359050610cd481610cae565b92915050565b600060208284031215610cf057610cef610bae565b5b6000610cfe84828501610cc5565b91505092915050565b60008115159050919050565b610d1c81610d07565b82525050565b6000602082019050610d376000830184610d13565b92915050565b7f4e487b7100000000000000000000000000000000000000000000000000000000600052601160045260246000fd5b6000610d7782610bb3565b9150610d8283610bb3565b9250817fffffffffffffffffffffffffffffffffffffffffffffffffffffffffffffffff0483118215151615610dbb57610dba610d3d565b5b828202905092915050565b6000610dd182610bb3565b9150610ddc83610bb3565b925082821015610def57610dee610d3d565b5b828203905092915050565b6000610e0582610bb3565b9150610e1083610bb3565b9250827fffffffffffffffffffffffffffffffffffffffffffffffffffffffffffffffff03821115610e4557610e44610d3d565b5b82820190509291505056fea264697066735822122079f7398472a1aac895b926c0da8554f667fb8a78a5d704c9d7df41d9a2bf5f4164736f6c634300080a0033",
  "immutableReferences": {},
  "source": "// SPDX-License-Identifier: MIT\npragma solidity >=0.8.3 <0.9.0;\n\n// the base outline for the escrow contract was taken from github\n// need to edit and change it to fit the needs of the project\ncontract Escrow {    // think about adding a USD => WEI converter for easier purchase legibility\n    //state variables\n    address payable buyer;\n    address payable seller;\n    address payable arbiter;\n    uint public amountInWei;\n    uint public balance;\n    uint Gwei = 1000000000; // 1 ETH = 1000000000 GWEI;\n    uint Wei = 1000000000; // 1 Gwei = 1000000000 WEI;\n\n    // variables for time tracking\n    // 259200 is 3 days\n    uint private limit = 1; //  1 second\n    uint private begin = 0; // variable for beginning of contract\n    uint public end_time = 0; // variable for end of contract\n\n    // Define a function 'kill' if required to cancel contract\n    function kill() external {\n        if (msg.sender == arbiter) {\n            selfdestruct(payable(address(this)));\n        }\n    }\n    \n    \n    //solidity events\n    event FundingReceived(uint _timestamp);\n    event SellerPaid(uint _timestamp);\n    event BuyerRefunded(uint _timestamp);\n    event ContractNull(uint _timestamp);\n\n    //function that confirms/validates success of transaction\n    function validate() public payable {\n        //if the buyer has paid\n        if (balance > 0) {\n            //if the buyer has paid more than the amount in the contract\n            if (balance > amountInWei) {\n                //refund the buyer\n                uint difference = balance - amountInWei;\n                buyer.transfer(difference);\n\n                // re-adjust balance and pay seller\n                balance -= difference;\n                payoutToSeller(balance);\n\n                //emit the event\n                emit SellerPaid(block.timestamp);\n                emit BuyerRefunded(block.timestamp);\n                \n                selfdestruct(payable(address(this))); // kill the contract\n            }\n            else if (balance == amountInWei)\n            { // if correct amount has been input\n                payoutToSeller(balance);\n                balance = 0;\n                emit SellerPaid(block.timestamp);\n                selfdestruct(payable(address(this))); // kill the contract\n            }\n            //if the buyer has paid less than the amount in the contract\n            else{ // INVALID CONTRACT\n                // refund to the buyer and cancel the contract\n                buyer.transfer(balance);\n                balance = 0;\n                //emit the event\n                emit BuyerRefunded(block.timestamp);\n                emit ContractNull(block.timestamp); // emit voided contract\n                selfdestruct(payable(address(this))); // kill the contract\n\n            }\n        }\n    }\n\n    function convertAmount(uint256 _amount) public pure returns (uint) {\n        return _amount * (1 ether / 1000); // return ETH amount converted roughly down to dollars\n    }\n\n    //function for buyer to fund; payable keyword must be used\n    function fund() public payable {\n        require(msg.sender == arbiter && msg.value >= amountInWei);  //conditional checks to make sure only the buyer's address);\n        balance += msg.value;\n        emit FundingReceived(block.timestamp); //emit FundingReceived() event\n    }\n    \n    //function for buyer to payout seller\n    function payoutToSeller(uint _amount) public {\n        require(msg.sender == buyer || msg.sender == arbiter); //only buyer or arbiter can execute this function\n        seller.transfer(_amount); //using the solidity's built in transfer function, the funds are sent to the seller\n        emit SellerPaid(block.timestamp); //emit SellerPaid() event\n    }\n    \n    //function for seller to refund the buyer\n    function refundBuyer() public {\n        require(msg.sender == seller || msg.sender == arbiter);//only buyer or arbiter can execute this function\n        buyer.transfer(address(this).balance); //using the solidity's built in transfer function, the funds are returned to the buyer\n        emit BuyerRefunded(block.timestamp);//emit BuyerRefunded() event\n    }\n\n\n    //function that creates and holds a time limit for the escrow using validator\n    function timeLimit() external payable {\n        if(checkTime())\n        {\n        }\n        else\n        {\n        }\n    }\n\n    // function checkTime() to check time status of the contract\n    // would need to be used by an exteranl script/service as ethereum does not have internal scheduling functions\n    function checkTime() public returns (bool) {\n        //if the time limit has not been reached\n        if (block.timestamp < (begin + limit)) {\n            return true;\n        }\n        //if the time limit has been reached\n        else {\n            refundBuyer();\n            return false;\n        }\n    }\n    \n    //constructor function; used to set initial state of contract\n    constructor() public {\n        begin = block.timestamp; // set beginning of contract\n        end_time = begin + limit; // set contract limit at 3 days\n    }\n\n    //////////////////////\n    // GET-SET FXNS /////\n    function setSeller(address payable _seller) external {\n        seller = _seller;\n    }\n\n    function getSeller() external view returns (address){\n        return seller;\n    }\n\n    function setBuyer(address payable _buyer) external {\n        buyer = _buyer;\n    }\n\n    function getbuyer() external view returns (address){\n        return buyer;\n    }\n\n    function setArbiter(address payable _arbiter) external {\n        arbiter = _arbiter;\n    }\n\n    function setPrice(uint _amountInWei) external {\n        amountInWei = _amountInWei;\n    }\n\n    function getPrice() external view returns(uint) {\n        return amountInWei;\n    }\n    ///////////////////////\n\n}",
  "sourcePath": "/home/june/Documents/UNT/CSCE 4575/project files/Blockchain_bookstore/contracts/Escrow.sol",
  "compiler": {
    "name": "solc",
    "version": "0.8.10+commit.fc410830.Emscripten.clang"
  },
  "schemaVersion": "3.4.3",
  "updatedAt": "2021-11-24T17:27:25.717Z",
  "networkType": "ethereum",
  "devdoc": {
    "kind": "dev",
    "methods": {},
    "version": 1
  },
  "userdoc": {
    "kind": "user",
    "methods": {},
    "version": 1
  }
}