{
  "contractName": "Escrow",
  "abi": [
    {
      "anonymous": false,
      "inputs": [
        {
          "indexed": false,
          "internalType": "uint256",
          "name": "_amount",
          "type": "uint256"
        }
      ],
      "name": "BuyerRefunded",
      "type": "event"
    },
    {
      "anonymous": false,
      "inputs": [
        {
          "indexed": false,
          "internalType": "uint256",
          "name": "_timestamp",
          "type": "uint256"
        }
      ],
      "name": "ContractNull",
      "type": "event"
    },
    {
      "anonymous": false,
      "inputs": [
        {
          "indexed": false,
          "internalType": "uint256",
          "name": "_amount",
          "type": "uint256"
        }
      ],
      "name": "FundingReceived",
      "type": "event"
    },
    {
      "anonymous": false,
      "inputs": [
        {
          "indexed": false,
          "internalType": "uint256",
          "name": "_amount",
          "type": "uint256"
        }
      ],
      "name": "SellerPaid",
      "type": "event"
    },
    {
      "stateMutability": "payable",
      "type": "fallback"
    },
    {
      "inputs": [],
      "name": "amountInEth",
      "outputs": [
        {
          "internalType": "uint256",
          "name": "",
          "type": "uint256"
        }
      ],
      "stateMutability": "view",
      "type": "function"
    },
    {
      "inputs": [],
      "name": "balance",
      "outputs": [
        {
          "internalType": "uint256",
          "name": "",
          "type": "uint256"
        }
      ],
      "stateMutability": "view",
      "type": "function"
    },
    {
      "inputs": [],
      "name": "end_time",
      "outputs": [
        {
          "internalType": "uint256",
          "name": "",
          "type": "uint256"
        }
      ],
      "stateMutability": "view",
      "type": "function"
    },
    {
      "stateMutability": "payable",
      "type": "receive"
    },
    {
      "inputs": [],
      "name": "kill",
      "outputs": [],
      "stateMutability": "nonpayable",
      "type": "function"
    },
    {
      "inputs": [],
      "name": "validate",
      "outputs": [],
      "stateMutability": "payable",
      "type": "function"
    },
    {
      "inputs": [
        {
          "internalType": "uint256",
          "name": "_amount",
          "type": "uint256"
        }
      ],
      "name": "convertAmount",
      "outputs": [
        {
          "internalType": "uint256",
          "name": "",
          "type": "uint256"
        }
      ],
      "stateMutability": "pure",
      "type": "function"
    },
    {
      "inputs": [],
      "name": "fund",
      "outputs": [],
      "stateMutability": "payable",
      "type": "function"
    },
    {
      "inputs": [
        {
          "internalType": "uint256",
          "name": "_amount",
          "type": "uint256"
        }
      ],
      "name": "payoutToSeller",
      "outputs": [],
      "stateMutability": "nonpayable",
      "type": "function"
    },
    {
      "inputs": [],
      "name": "refundBuyer",
      "outputs": [],
      "stateMutability": "nonpayable",
      "type": "function"
    },
    {
      "inputs": [],
      "name": "checkTime",
      "outputs": [
        {
          "internalType": "bool",
          "name": "",
          "type": "bool"
        }
      ],
      "stateMutability": "nonpayable",
      "type": "function"
    },
    {
      "inputs": [
        {
          "internalType": "address payable",
          "name": "_seller",
          "type": "address"
        }
      ],
      "name": "setSeller",
      "outputs": [],
      "stateMutability": "nonpayable",
      "type": "function"
    },
    {
      "inputs": [],
      "name": "getSeller",
      "outputs": [
        {
          "internalType": "address",
          "name": "",
          "type": "address"
        }
      ],
      "stateMutability": "view",
      "type": "function"
    },
    {
      "inputs": [
        {
          "internalType": "address payable",
          "name": "_buyer",
          "type": "address"
        }
      ],
      "name": "setBuyer",
      "outputs": [],
      "stateMutability": "nonpayable",
      "type": "function"
    },
    {
      "inputs": [],
      "name": "getbuyer",
      "outputs": [
        {
          "internalType": "address",
          "name": "",
          "type": "address"
        }
      ],
      "stateMutability": "view",
      "type": "function"
    },
    {
      "inputs": [
        {
          "internalType": "uint256",
          "name": "_amountInWei",
          "type": "uint256"
        }
      ],
      "name": "setPrice",
      "outputs": [],
      "stateMutability": "nonpayable",
      "type": "function"
    },
    {
      "inputs": [],
      "name": "getPrice",
      "outputs": [
        {
          "internalType": "uint256",
          "name": "",
          "type": "uint256"
        }
      ],
      "stateMutability": "view",
      "type": "function"
    }
  ],
  "bytecode": "0x6080604052633b9aca00600555633b9aca0060065560016007556000600855600060095534801561002f57600080fd5b50610e9d8061003f6000396000f3fe6080604052600436106100f75760003560e01c8063a3f09ad61161008a578063dbd0e1b611610059578063dbd0e1b614610328578063e0c6190d14610353578063e8a61cc81461037e578063e99d28661461039557610135565b8063a3f09ad6146102a1578063b60d4288146102ca578063b69ef8a8146102d4578063c83dc3a3146102ff57610135565b80636901f668116100c65780636901f668146102185780638c4799251461022257806391b7f5ed1461024d57806398d5fdca1461027657610135565b8063039aec2d1461016e578063149bf50e146101ab57806316243356146101d657806341c0e1b51461020157610135565b36610135577fe455499c2acd509bdadebaf5a8fd54c083da31dbe98e785f2a72cdff04e32e004260405161012b9190610bde565b60405180910390a1005b7fe455499c2acd509bdadebaf5a8fd54c083da31dbe98e785f2a72cdff04e32e00426040516101649190610bde565b60405180910390a1005b34801561017a57600080fd5b5061019560048036038101906101909190610c2a565b6103be565b6040516101a29190610bde565b60405180910390f35b3480156101b757600080fd5b506101c06103da565b6040516101cd9190610c98565b60405180910390f35b3480156101e257600080fd5b506101eb610403565b6040516101f89190610bde565b60405180910390f35b34801561020d57600080fd5b50610216610409565b005b61022061047a565b005b34801561022e57600080fd5b5061023761063e565b6040516102449190610bde565b60405180910390f35b34801561025957600080fd5b50610274600480360381019061026f9190610c2a565b610644565b005b34801561028257600080fd5b5061028b610700565b6040516102989190610bde565b60405180910390f35b3480156102ad57600080fd5b506102c860048036038101906102c39190610cf1565b61070a565b005b6102d26107a7565b005b3480156102e057600080fd5b506102e9610862565b6040516102f69190610bde565b60405180910390f35b34801561030b57600080fd5b5061032660048036038101906103219190610c2a565b610868565b005b34801561033457600080fd5b5061033d61096d565b60405161034a9190610c98565b60405180910390f35b34801561035f57600080fd5b50610368610997565b6040516103759190610d39565b60405180910390f35b34801561038a57600080fd5b506103936109c9565b005b3480156103a157600080fd5b506103bc60048036038101906103b79190610cf1565b610acf565b005b6000662386f26fc10000826103d39190610d83565b9050919050565b60008060009054906101000a900473ffffffffffffffffffffffffffffffffffffffff16905090565b60095481565b600260009054906101000a900473ffffffffffffffffffffffffffffffffffffffff1673ffffffffffffffffffffffffffffffffffffffff163373ffffffffffffffffffffffffffffffffffffffff161415610478573073ffffffffffffffffffffffffffffffffffffffff16ff5b565b600260009054906101000a900473ffffffffffffffffffffffffffffffffffffffff1673ffffffffffffffffffffffffffffffffffffffff163373ffffffffffffffffffffffffffffffffffffffff16146104d457600080fd5b60006004541061063c5760035460045411156105ce5760006003546004546104fc9190610ddd565b905060008054906101000a900473ffffffffffffffffffffffffffffffffffffffff1673ffffffffffffffffffffffffffffffffffffffff166108fc829081150290604051600060405180830381858888f19350505050158015610564573d6000803e3d6000fd5b507f9496273f5a13d097a94eeecc2fcbcb6a8d26132fa9db01849d964521307dccc5426040516105949190610bde565b60405180910390a180600460008282546105ae9190610ddd565b925050819055506105c0600454610868565b60006004819055505061063b565b60035460045414156105f2576105e5600454610868565b600060048190555061063a565b6105fa6109c9565b60006004819055507fd018531c788764333726fda058e746c7b3af36700a8f1cfe4a074b2eb283d654426040516106319190610bde565b60405180910390a15b5b5b565b60035481565b600260009054906101000a900473ffffffffffffffffffffffffffffffffffffffff1673ffffffffffffffffffffffffffffffffffffffff163373ffffffffffffffffffffffffffffffffffffffff1614806106ed5750600160009054906101000a900473ffffffffffffffffffffffffffffffffffffffff1673ffffffffffffffffffffffffffffffffffffffff163373ffffffffffffffffffffffffffffffffffffffff16145b6106f657600080fd5b8060038190555050565b6000600354905090565b600260009054906101000a900473ffffffffffffffffffffffffffffffffffffffff1673ffffffffffffffffffffffffffffffffffffffff163373ffffffffffffffffffffffffffffffffffffffff161461076457600080fd5b806000806101000a81548173ffffffffffffffffffffffffffffffffffffffff021916908373ffffffffffffffffffffffffffffffffffffffff16021790555050565b600260009054906101000a900473ffffffffffffffffffffffffffffffffffffffff1673ffffffffffffffffffffffffffffffffffffffff163373ffffffffffffffffffffffffffffffffffffffff16148015610805575060035434145b61080e57600080fd5b34600460008282546108209190610e11565b925050819055507fe455499c2acd509bdadebaf5a8fd54c083da31dbe98e785f2a72cdff04e32e006004546040516108589190610bde565b60405180910390a1565b60045481565b600260009054906101000a900473ffffffffffffffffffffffffffffffffffffffff1673ffffffffffffffffffffffffffffffffffffffff163373ffffffffffffffffffffffffffffffffffffffff16146108c257600080fd5b600160009054906101000a900473ffffffffffffffffffffffffffffffffffffffff1673ffffffffffffffffffffffffffffffffffffffff166108fc829081150290604051600060405180830381858888f1935050505015801561092a573d6000803e3d6000fd5b507ff484d07f255ad864671e45ca713ac3a9b593f61fc7df18a1930cdd13977a744c8160405161095a9190610bde565b60405180910390a1600060048190555050565b6000600160009054906101000a900473ffffffffffffffffffffffffffffffffffffffff16905090565b60006007546008546109a99190610e11565b4210156109b957600190506109c6565b6109c16109c9565b600090505b90565b600260009054906101000a900473ffffffffffffffffffffffffffffffffffffffff1673ffffffffffffffffffffffffffffffffffffffff163373ffffffffffffffffffffffffffffffffffffffff1614610a2357600080fd5b7f9496273f5a13d097a94eeecc2fcbcb6a8d26132fa9db01849d964521307dccc5600454604051610a549190610bde565b60405180910390a160008054906101000a900473ffffffffffffffffffffffffffffffffffffffff1673ffffffffffffffffffffffffffffffffffffffff166108fc6004549081150290604051600060405180830381858888f19350505050158015610ac4573d6000803e3d6000fd5b506000600481905550565b600260009054906101000a900473ffffffffffffffffffffffffffffffffffffffff1673ffffffffffffffffffffffffffffffffffffffff163373ffffffffffffffffffffffffffffffffffffffff161480610b785750600160009054906101000a900473ffffffffffffffffffffffffffffffffffffffff1673ffffffffffffffffffffffffffffffffffffffff163373ffffffffffffffffffffffffffffffffffffffff16145b610b8157600080fd5b80600160006101000a81548173ffffffffffffffffffffffffffffffffffffffff021916908373ffffffffffffffffffffffffffffffffffffffff16021790555050565b6000819050919050565b610bd881610bc5565b82525050565b6000602082019050610bf36000830184610bcf565b92915050565b600080fd5b610c0781610bc5565b8114610c1257600080fd5b50565b600081359050610c2481610bfe565b92915050565b600060208284031215610c4057610c3f610bf9565b5b6000610c4e84828501610c15565b91505092915050565b600073ffffffffffffffffffffffffffffffffffffffff82169050919050565b6000610c8282610c57565b9050919050565b610c9281610c77565b82525050565b6000602082019050610cad6000830184610c89565b92915050565b6000610cbe82610c57565b9050919050565b610cce81610cb3565b8114610cd957600080fd5b50565b600081359050610ceb81610cc5565b92915050565b600060208284031215610d0757610d06610bf9565b5b6000610d1584828501610cdc565b91505092915050565b60008115159050919050565b610d3381610d1e565b82525050565b6000602082019050610d4e6000830184610d2a565b92915050565b7f4e487b7100000000000000000000000000000000000000000000000000000000600052601160045260246000fd5b6000610d8e82610bc5565b9150610d9983610bc5565b9250817fffffffffffffffffffffffffffffffffffffffffffffffffffffffffffffffff0483118215151615610dd257610dd1610d54565b5b828202905092915050565b6000610de882610bc5565b9150610df383610bc5565b925082821015610e0657610e05610d54565b5b828203905092915050565b6000610e1c82610bc5565b9150610e2783610bc5565b9250827fffffffffffffffffffffffffffffffffffffffffffffffffffffffffffffffff03821115610e5c57610e5b610d54565b5b82820190509291505056fea26469706673582212202985b2735c58c016b3c819a0f81eb098d70547fc3ea742497fd07ed2dcc9fbd164736f6c634300080a0033",
  "immutableReferences": {},
  "source": "// SPDX-License-Identifier: MIT\npragma solidity >=0.8.3 <0.9.0;\n\ncontract Escrow {    // think about adding a USD => WEI converter for easier purchase legibility\n    //state variables\n    address payable internal buyer;\n    address payable internal seller; // owner of the item\n    address payable internal arbiter; // arbiter for the escrow\n    uint public amountInEth;\n    uint public balance;\n    uint Gwei = 1000000000; // 1 ETH = 1000000000 GWEI;\n    uint Wei = 1000000000; // 1 Gwei = 1000000000 WEI;\n\n    // variables for time tracking\n    // 259200 is 3 days\n    uint private limit = 1; //  1 second\n    uint private begin = 0; // variable for beginning of contract\n    uint public end_time = 0; // variable for end of contract\n\n    // Define a function 'kill' if required to cancel contract\n    function kill() external {\n        if (msg.sender == arbiter) {\n            selfdestruct(payable(address(this)));\n        }\n    }\n\n    //solidity events\n    event FundingReceived(uint _amount);\n    event SellerPaid(uint _amount);\n    event BuyerRefunded(uint _amount);\n    event ContractNull(uint _timestamp);\n\n    // allow contract to use ETH\n    fallback() external payable {\n        // do nothing\n        emit FundingReceived(block.timestamp);\n    }\n\n    // allow contract to hold ETH\n    receive() external payable {\n        // do nothing\n        emit FundingReceived(block.timestamp);\n    }\n\n    //function that confirms/validates success of transaction\n    function validate() public payable {\n        require(msg.sender == arbiter); //only arbiter can execute this function\n        //if the buyer has paid\n        if (balance >= 0) {\n            //if the buyer has paid more than the amount in the contract\n            if (balance > amountInEth) {\n                //refund the buyer\n                uint difference = balance - amountInEth;\n                buyer.transfer(difference);\n                emit BuyerRefunded(block.timestamp);\n\n                // re-adjust balance and pay seller\n                balance -= difference;\n                payoutToSeller(balance);\n\n                balance = 0; //set balance to 0 after transaction\n                //selfdestruct(payable(address(this))); // kill the contract\n            }\n            else if (balance == amountInEth)\n            { // if correct amount has been input\n                payoutToSeller(balance);\n                balance = 0;\n                //selfdestruct(payable(address(this))); // kill the contract\n            }\n            //if the buyer has paid less than the amount in the contract\n            else{ // INVALID CONTRACT\n                // refund to the buyer and cancel the contract\n                refundBuyer();\n\n                balance = 0;\n                emit ContractNull(block.timestamp); // emit voided contract\n                //selfdestruct(payable(address(this))); // kill the contract\n\n            }\n        }\n    }\n\n    function convertAmount(uint256 _amount) public pure returns (uint) {\n        return _amount * (1 ether / 100); // return ETH amount converted roughly down to dollars\n    }\n\n    //function for buyer to fund; payable keyword must be used\n    function fund() public payable {\n        require(msg.sender == arbiter && msg.value == amountInEth);  //conditional checks to make sure only the buyer's address);\n        balance += msg.value; // add value to the contract\n        emit FundingReceived(balance); //emit FundingReceived() event\n    }\n    \n    //function for buyer to payout seller\n    function payoutToSeller(uint _amount) public {\n        require(msg.sender == arbiter); //only arbiter can execute this function\n        seller.transfer(_amount); //using the solidity's built in transfer function, the funds are sent to the seller\n        emit SellerPaid(_amount); //emit SellerPaid() event\n        balance = 0; //set balance to 0 after transaction\n    }\n    \n    //function for seller to refund the buyer\n    function refundBuyer() public {\n        require(msg.sender == arbiter);//only arbiter can execute this function\n        emit BuyerRefunded(balance);//emit BuyerRefunded() event\n        buyer.transfer(balance); //using the solidity's built in transfer function, the funds are returned to the buyer\n        balance = 0;\n    }\n\n    /*\n    //function that creates and holds a time limit for the escrow using validator\n    function timeLimit() external payable {\n        if(checkTime())\n        {\n        }\n        else\n        {\n        }\n    }\n    */\n\n    // function checkTime() to check time status of the contract\n    // would need to be used by an exteranl script/service as ethereum does not have internal scheduling functions\n    function checkTime() public returns (bool) {\n        //if the time limit has not been reached\n        if (block.timestamp < (begin + limit)) {\n            return true;\n        }\n        //if the time limit has been reached\n        else {\n            refundBuyer();\n            return false;\n        }\n    }\n    \n    //constructor function; used to set initial state of contract\n    /*\n    constructor(address payable arbiter) public {\n        begin = block.timestamp; // set beginning of contract\n        end_time = begin + limit; // set contract limit at 3 days\n    }\n    */\n\n    //////////////////////\n    // GET-SET FXNS /////\n    function setSeller(address payable _seller) external {\n        require(msg.sender == arbiter || msg.sender == seller); //only arbiter can execute this function\n        seller = _seller;\n    }\n\n    function getSeller() external view returns (address){\n        return seller;\n    }\n\n    function setBuyer(address payable _buyer) external {\n        require(msg.sender == arbiter); //only arbiter can execute this function\n        buyer = _buyer;\n    }\n\n    function getbuyer() external view returns (address){\n        return buyer;\n    }\n\n    // internal so as to avoid shenanigans\n    function setArbiter(address payable _arbiter) internal {\n        arbiter = _arbiter;\n    }\n\n    function setPrice(uint _amountInWei) external {\n        require(msg.sender == arbiter || msg.sender == seller); //only arbiter can execute this function\n        amountInEth = _amountInWei;\n    }\n\n    function getPrice() external view returns(uint) {\n        return amountInEth;\n    }\n    ///////////////////////\n\n}",
  "sourcePath": "/home/june/Documents/UNT/CSCE 4575/project files/Blockchain_bookstore/contracts/Escrow.sol",
  "compiler": {
    "name": "solc",
    "version": "0.8.10+commit.fc410830.Emscripten.clang"
  },
  "schemaVersion": "3.4.3",
  "updatedAt": "2021-12-03T20:45:08.258Z",
  "networkType": "ethereum",
  "devdoc": {
    "kind": "dev",
    "methods": {},
    "version": 1
  },
  "userdoc": {
    "kind": "user",
    "methods": {},
    "version": 1
  }
}