{
  "contractName": "Escrow",
  "abi": [
    {
      "inputs": [],
      "stateMutability": "nonpayable",
      "type": "constructor"
    },
    {
      "anonymous": false,
      "inputs": [
        {
          "indexed": false,
          "internalType": "uint256",
          "name": "_timestamp",
          "type": "uint256"
        }
      ],
      "name": "BuyerRefunded",
      "type": "event"
    },
    {
      "anonymous": false,
      "inputs": [
        {
          "indexed": false,
          "internalType": "uint256",
          "name": "_timestamp",
          "type": "uint256"
        }
      ],
      "name": "FundingReceived",
      "type": "event"
    },
    {
      "anonymous": false,
      "inputs": [
        {
          "indexed": false,
          "internalType": "uint256",
          "name": "_timestamp",
          "type": "uint256"
        }
      ],
      "name": "SellerPaid",
      "type": "event"
    },
    {
      "inputs": [],
      "name": "amountInWei",
      "outputs": [
        {
          "internalType": "uint256",
          "name": "",
          "type": "uint256"
        }
      ],
      "stateMutability": "view",
      "type": "function",
      "constant": true
    },
    {
      "inputs": [],
      "name": "end_time",
      "outputs": [
        {
          "internalType": "uint256",
          "name": "",
          "type": "uint256"
        }
      ],
      "stateMutability": "view",
      "type": "function",
      "constant": true
    },
    {
      "inputs": [],
      "name": "validate",
      "outputs": [],
      "stateMutability": "payable",
      "type": "function",
      "payable": true
    },
    {
      "inputs": [],
      "name": "fund",
      "outputs": [],
      "stateMutability": "payable",
      "type": "function",
      "payable": true
    },
    {
      "inputs": [],
      "name": "payoutToSeller",
      "outputs": [],
      "stateMutability": "nonpayable",
      "type": "function"
    },
    {
      "inputs": [],
      "name": "refundBuyer",
      "outputs": [],
      "stateMutability": "nonpayable",
      "type": "function"
    },
    {
      "inputs": [],
      "name": "timeLimit",
      "outputs": [],
      "stateMutability": "payable",
      "type": "function",
      "payable": true
    },
    {
      "inputs": [],
      "name": "checkTime",
      "outputs": [
        {
          "internalType": "bool",
          "name": "",
          "type": "bool"
        }
      ],
      "stateMutability": "nonpayable",
      "type": "function"
    },
    {
      "inputs": [
        {
          "internalType": "address payable",
          "name": "_seller",
          "type": "address"
        }
      ],
      "name": "setSeller",
      "outputs": [],
      "stateMutability": "nonpayable",
      "type": "function"
    },
    {
      "inputs": [
        {
          "internalType": "address payable",
          "name": "_buyer",
          "type": "address"
        }
      ],
      "name": "setBuyer",
      "outputs": [],
      "stateMutability": "nonpayable",
      "type": "function"
    },
    {
      "inputs": [
        {
          "internalType": "address payable",
          "name": "_arbiter",
          "type": "address"
        }
      ],
      "name": "setArbiter",
      "outputs": [],
      "stateMutability": "nonpayable",
      "type": "function"
    },
    {
      "inputs": [
        {
          "internalType": "uint256",
          "name": "_amountInWei",
          "type": "uint256"
        }
      ],
      "name": "setPrice",
      "outputs": [],
      "stateMutability": "nonpayable",
      "type": "function"
    }
  ],
  "bytecode": "0x60806040526203f4806004556000600555600060065534801561002157600080fd5b5042600581905550600454600554610039919061007d565b6006819055506100d3565b6000819050919050565b7f4e487b7100000000000000000000000000000000000000000000000000000000600052601160045260246000fd5b600061008882610044565b915061009383610044565b9250827fffffffffffffffffffffffffffffffffffffffffffffffffffffffffffffffff038211156100c8576100c761004e565b5b828201905092915050565b610bd5806100e26000396000f3fe6080604052600436106100a75760003560e01c8063a3f09ad611610064578063a3f09ad614610175578063b60d42881461019e578063c08d1fe5146101a8578063e0c6190d146101b2578063e8a61cc8146101dd578063e99d2866146101f4576100a7565b806308ea9a80146100ac57806316243356146100d75780631c9c088a1461010257806329bb3c891461012b5780636901f6681461014257806391b7f5ed1461014c575b600080fd5b3480156100b857600080fd5b506100c161021d565b6040516100ce91906109e0565b60405180910390f35b3480156100e357600080fd5b506100ec610223565b6040516100f991906109e0565b60405180910390f35b34801561010e57600080fd5b5061012960048036038101906101249190610a5e565b610229565b005b34801561013757600080fd5b5061014061026d565b005b61014a6103bf565b005b34801561015857600080fd5b50610173600480360381019061016e9190610ab7565b61051a565b005b34801561018157600080fd5b5061019c60048036038101906101979190610a5e565b610524565b005b6101a6610567565b005b6101b0610605565b005b3480156101be57600080fd5b506101c76107ff565b6040516101d49190610aff565b60405180910390f35b3480156101e957600080fd5b506101f2610831565b005b34801561020057600080fd5b5061021b60048036038101906102169190610a5e565b610983565b005b60035481565b60065481565b80600260006101000a81548173ffffffffffffffffffffffffffffffffffffffff021916908373ffffffffffffffffffffffffffffffffffffffff16021790555050565b60008054906101000a900473ffffffffffffffffffffffffffffffffffffffff1673ffffffffffffffffffffffffffffffffffffffff163373ffffffffffffffffffffffffffffffffffffffff1614806103145750600260009054906101000a900473ffffffffffffffffffffffffffffffffffffffff1673ffffffffffffffffffffffffffffffffffffffff163373ffffffffffffffffffffffffffffffffffffffff16145b61031d57600080fd5b600160009054906101000a900473ffffffffffffffffffffffffffffffffffffffff1673ffffffffffffffffffffffffffffffffffffffff166108fc479081150290604051600060405180830381858888f19350505050158015610385573d6000803e3d6000fd5b507ff484d07f255ad864671e45ca713ac3a9b593f61fc7df18a1930cdd13977a744c426040516103b591906109e0565b60405180910390a1565b6000341115610518576003543411156104775760008054906101000a900473ffffffffffffffffffffffffffffffffffffffff1673ffffffffffffffffffffffffffffffffffffffff166108fc6003549081150290604051600060405180830381858888f1935050505015801561043a573d6000803e3d6000fd5b507f9496273f5a13d097a94eeecc2fcbcb6a8d26132fa9db01849d964521307dccc54260405161046a91906109e0565b60405180910390a1610517565b60008054906101000a900473ffffffffffffffffffffffffffffffffffffffff16600160006101000a81548173ffffffffffffffffffffffffffffffffffffffff021916908373ffffffffffffffffffffffffffffffffffffffff160217905550346003819055507ff484d07f255ad864671e45ca713ac3a9b593f61fc7df18a1930cdd13977a744c4260405161050e91906109e0565b60405180910390a15b5b565b8060038190555050565b806000806101000a81548173ffffffffffffffffffffffffffffffffffffffff021916908373ffffffffffffffffffffffffffffffffffffffff16021790555050565b60008054906101000a900473ffffffffffffffffffffffffffffffffffffffff1673ffffffffffffffffffffffffffffffffffffffff163373ffffffffffffffffffffffffffffffffffffffff161480156105c3575060035434145b6105cc57600080fd5b7fe455499c2acd509bdadebaf5a8fd54c083da31dbe98e785f2a72cdff04e32e00426040516105fb91906109e0565b60405180910390a1565b6003543411156106bc5760008054906101000a900473ffffffffffffffffffffffffffffffffffffffff1673ffffffffffffffffffffffffffffffffffffffff166108fc6003549081150290604051600060405180830381858888f19350505050158015610677573d6000803e3d6000fd5b50610680610831565b7f9496273f5a13d097a94eeecc2fcbcb6a8d26132fa9db01849d964521307dccc5426040516106af91906109e0565b60405180910390a161075c565b60008054906101000a900473ffffffffffffffffffffffffffffffffffffffff16600160006101000a81548173ffffffffffffffffffffffffffffffffffffffff021916908373ffffffffffffffffffffffffffffffffffffffff160217905550346003819055507ff484d07f255ad864671e45ca713ac3a9b593f61fc7df18a1930cdd13977a744c4260405161075391906109e0565b60405180910390a15b600260009054906101000a900473ffffffffffffffffffffffffffffffffffffffff16600160006101000a81548173ffffffffffffffffffffffffffffffffffffffff021916908373ffffffffffffffffffffffffffffffffffffffff160217905550346003819055507ff484d07f255ad864671e45ca713ac3a9b593f61fc7df18a1930cdd13977a744c426040516107f591906109e0565b60405180910390a1565b60006004546005546108119190610b49565b421015610821576001905061082e565b610829610831565b600090505b90565b600160009054906101000a900473ffffffffffffffffffffffffffffffffffffffff1673ffffffffffffffffffffffffffffffffffffffff163373ffffffffffffffffffffffffffffffffffffffff1614806108da5750600260009054906101000a900473ffffffffffffffffffffffffffffffffffffffff1673ffffffffffffffffffffffffffffffffffffffff163373ffffffffffffffffffffffffffffffffffffffff16145b6108e357600080fd5b60008054906101000a900473ffffffffffffffffffffffffffffffffffffffff1673ffffffffffffffffffffffffffffffffffffffff166108fc479081150290604051600060405180830381858888f19350505050158015610949573d6000803e3d6000fd5b507f9496273f5a13d097a94eeecc2fcbcb6a8d26132fa9db01849d964521307dccc54260405161097991906109e0565b60405180910390a1565b80600160006101000a81548173ffffffffffffffffffffffffffffffffffffffff021916908373ffffffffffffffffffffffffffffffffffffffff16021790555050565b6000819050919050565b6109da816109c7565b82525050565b60006020820190506109f560008301846109d1565b92915050565b600080fd5b600073ffffffffffffffffffffffffffffffffffffffff82169050919050565b6000610a2b82610a00565b9050919050565b610a3b81610a20565b8114610a4657600080fd5b50565b600081359050610a5881610a32565b92915050565b600060208284031215610a7457610a736109fb565b5b6000610a8284828501610a49565b91505092915050565b610a94816109c7565b8114610a9f57600080fd5b50565b600081359050610ab181610a8b565b92915050565b600060208284031215610acd57610acc6109fb565b5b6000610adb84828501610aa2565b91505092915050565b60008115159050919050565b610af981610ae4565b82525050565b6000602082019050610b146000830184610af0565b92915050565b7f4e487b7100000000000000000000000000000000000000000000000000000000600052601160045260246000fd5b6000610b54826109c7565b9150610b5f836109c7565b9250827fffffffffffffffffffffffffffffffffffffffffffffffffffffffffffffffff03821115610b9457610b93610b1a565b5b82820190509291505056fea2646970667358221220e92a6e8f1512fddfc877883118110bc36c8de7c8852592c7a149ec28428b4d0364736f6c634300080a0033",
  "immutableReferences": {},
  "source": "// SPDX-License-Identifier: MIT\npragma solidity >=0.8.3 <0.9.0;\n\n// the base outline for the escrow contract was taken from github\n// need to edit and change it to fit the needs of the project\ncontract Escrow {    // think about adding a USD => WEI converter for easier purchase legibility\n    //state variables\n    address payable buyer;\n    address payable seller;\n    address payable arbiter;\n    uint public amountInWei;\n\n    // variables for time tracking\n    uint private limit = 259200; // 3 days\n    uint private begin = 0; // variable for beginning of contract\n    uint public end_time = 0; // variable for end of contract\n    \n    \n    //solidity events\n    event FundingReceived(uint _timestamp);\n    event SellerPaid(uint _timestamp);\n    event BuyerRefunded(uint _timestamp);\n\n    //function that confirms/validates success of transaction\n    function validate() public payable {\n        //if the buyer has paid\n        if (msg.value > 0) {\n            //if the buyer has paid more than the amount in the contract\n            if (msg.value > amountInWei) {\n                //refund the buyer\n                buyer.transfer(amountInWei);\n                //emit the event\n                emit BuyerRefunded(block.timestamp);\n            }\n            //if the buyer has paid less than the amount in the contract\n            else {\n                //set the buyer as the seller\n                seller = buyer;\n                //set the amount in the contract to the amount in the transaction\n                amountInWei = msg.value;\n                //emit the event\n                emit SellerPaid(block.timestamp);\n            }\n        }\n    }\n\n    //function for buyer to fund; payable keyword must be used\n    function fund() public payable {\n        require(msg.sender == buyer &&  //conditional checks to make sure only the buyer's address\n                msg.value == amountInWei//can send the correcr amount to the contract\n                );\n        emit FundingReceived(block.timestamp); //emit FundingReceived() event\n    }\n    \n    //function for buyer to payout seller\n    function payoutToSeller() public {\n        require(msg.sender == buyer || msg.sender == arbiter); //only buyer or arbiter can execute this function\n        seller.transfer(address(this).balance); //using the solidity's built in transfer function, the funds are sent to the seller\n        emit SellerPaid(block.timestamp); //emit SellerPaid() event\n    }\n    \n    //function for seller to refund the buyer\n    function refundBuyer() public {\n        require(msg.sender == seller || msg.sender == arbiter);//only buyer or arbiter can execute this function\n        buyer.transfer(address(this).balance); //using the solidity's built in transfer function, the funds are returned to the buyer\n        emit BuyerRefunded(block.timestamp);//emit BuyerRefunded() event\n    }\n\n\n    //function that creates and holds a time limit for the escrow using validator\n    function timeLimit() public payable {\n        //require(msg.sender == buyer); //only buyer can execute this function\n        \n        //if the buyer has paid more than the amount in the contract\n        if (msg.value > amountInWei) {\n            //refund the buyer\n            buyer.transfer(amountInWei);\n            //emit the event\n            refundBuyer(); // returns remaining amount of wei\n            emit BuyerRefunded(block.timestamp);\n        }\n        //if the buyer has paid less than the amount in the contract\n        else {\n            //set the buyer as the seller\n            seller = buyer;\n            //set the amount in the contract to the amount in the transaction\n            amountInWei = (msg.value); \n            //emit the event\n            emit SellerPaid(block.timestamp); // emit current paird amount\n        }\n        //set the arbiter as the seller\n        seller = arbiter;\n        //set the amount in the contract to the amount in the transaction\n        amountInWei = msg.value;\n        //emit the event\n        emit SellerPaid(block.timestamp);\n    }\n\n    // function checkTime() to check time status of the contract\n    // would need to be used by an exteranl script/service as ethereum does not have internal scheduling functions\n    function checkTime() public returns (bool) {\n        //if the time limit has not been reached\n        if (block.timestamp < begin + limit) {\n            return true;\n        }\n        //if the time limit has been reached\n        else {\n            refundBuyer();\n            return false;\n        }\n    }\n    \n    //constructor function; used to set initial state of contract\n    constructor() public {\n        begin = block.timestamp; // set beginning of contract\n        end_time = begin + limit; // set contract limit at 3 days\n    }\n\n    function setSeller(address payable _seller) external {\n        seller = _seller;\n    }\n\n    function setBuyer(address payable _buyer) external {\n        buyer = _buyer;\n    }\n\n    function setArbiter(address payable _arbiter) external {\n        arbiter = _arbiter;\n    }\n\n    function setPrice(uint _amountInWei) external {\n        amountInWei = _amountInWei;\n    }\n\n}",
  "sourcePath": "/home/june/Documents/UNT/CSCE 4575/project files/Blockchain_bookstore/contracts/Escrow.sol",
  "compiler": {
    "name": "solc",
    "version": "0.8.10+commit.fc410830.Emscripten.clang"
  },
  "schemaVersion": "3.4.3",
  "updatedAt": "2021-11-20T03:45:33.181Z",
  "networkType": "ethereum",
  "devdoc": {
    "kind": "dev",
    "methods": {},
    "version": 1
  },
  "userdoc": {
    "kind": "user",
    "methods": {},
    "version": 1
  }
}