{
  "contractName": "IPFS",
  "abi": [
    {
      "inputs": [
        {
          "internalType": "string",
          "name": "fileHash",
          "type": "string"
        },
        {
          "internalType": "uint256",
          "name": "fileSize",
          "type": "uint256"
        }
      ],
      "name": "uploadFile",
      "outputs": [],
      "stateMutability": "nonpayable",
      "type": "function"
    },
    {
      "inputs": [],
      "name": "getFileSize",
      "outputs": [
        {
          "internalType": "uint256",
          "name": "",
          "type": "uint256"
        }
      ],
      "stateMutability": "view",
      "type": "function"
    },
    {
      "inputs": [],
      "name": "getFileHash",
      "outputs": [
        {
          "internalType": "string",
          "name": "",
          "type": "string"
        }
      ],
      "stateMutability": "view",
      "type": "function"
    }
  ],
  "bytecode": "0x608060405234801561001057600080fd5b5061055f806100206000396000f3fe608060405234801561001057600080fd5b50600436106100415760003560e01c80631322f7fa146100465780638493f71f146100645780638f0e28d714610082575b600080fd5b61004e61009e565b60405161005b9190610221565b60405180910390f35b61006c6100aa565b60405161007991906102d5565b60405180910390f35b61009c6004803603810190610097919061046c565b61013e565b005b60008060010154905090565b60606000800180546100bb906104f7565b80601f01602080910402602001604051908101604052809291908181526020018280546100e7906104f7565b80156101345780601f1061010957610100808354040283529160200191610134565b820191906000526020600020905b81548152906001019060200180831161011757829003601f168201915b5050505050905090565b81600080019080519060200190610156929190610165565b50806000600101819055505050565b828054610171906104f7565b90600052602060002090601f01602090048101928261019357600085556101da565b82601f106101ac57805160ff19168380011785556101da565b828001600101855582156101da579182015b828111156101d95782518255916020019190600101906101be565b5b5090506101e791906101eb565b5090565b5b808211156102045760008160009055506001016101ec565b5090565b6000819050919050565b61021b81610208565b82525050565b60006020820190506102366000830184610212565b92915050565b600081519050919050565b600082825260208201905092915050565b60005b8381101561027657808201518184015260208101905061025b565b83811115610285576000848401525b50505050565b6000601f19601f8301169050919050565b60006102a78261023c565b6102b18185610247565b93506102c1818560208601610258565b6102ca8161028b565b840191505092915050565b600060208201905081810360008301526102ef818461029c565b905092915050565b6000604051905090565b600080fd5b600080fd5b600080fd5b600080fd5b7f4e487b7100000000000000000000000000000000000000000000000000000000600052604160045260246000fd5b61034d8261028b565b810181811067ffffffffffffffff8211171561036c5761036b610315565b5b80604052505050565b600061037f6102f7565b905061038b8282610344565b919050565b600067ffffffffffffffff8211156103ab576103aa610315565b5b6103b48261028b565b9050602081019050919050565b82818337600083830152505050565b60006103e36103de84610390565b610375565b9050828152602081018484840111156103ff576103fe610310565b5b61040a8482856103c1565b509392505050565b600082601f8301126104275761042661030b565b5b81356104378482602086016103d0565b91505092915050565b61044981610208565b811461045457600080fd5b50565b60008135905061046681610440565b92915050565b6000806040838503121561048357610482610301565b5b600083013567ffffffffffffffff8111156104a1576104a0610306565b5b6104ad85828601610412565b92505060206104be85828601610457565b9150509250929050565b7f4e487b7100000000000000000000000000000000000000000000000000000000600052602260045260246000fd5b6000600282049050600182168061050f57607f821691505b60208210811415610523576105226104c8565b5b5091905056fea26469706673582212208fa51026470075115f407149427ba77ba76f096fd0f89cc7ca3cedb2014c6cc664736f6c634300080a0033",
  "immutableReferences": {},
  "source": "// SPDX-License-Identifier: MIT\npragma solidity >=0.8.3 <0.9.0;\n\n//IPFS contract to hold any pdf's and ebooks\n// need to create javascript to interface with the IPFS daemon \ncontract IPFS {\n    // struct to hold hash location and size of the file\n    struct File {\n        string fileHash;\n        uint256 fileSize;\n    }\n\n    File file;\n\n    // creates new file to interface with IPFS from uploader\n    function uploadFile(string memory fileHash, uint256 fileSize) public {\n        file.fileHash = fileHash;\n        file.fileSize = fileSize;\n    }\n\n    // gets file struct\n    // function getFile(string memory fileHash) public view returns (File) {\n    //     return file;\n    // }\n\n    // gets file size variable from struct\n    function getFileSize() public view returns (uint256) {\n        return file.fileSize;\n    }\n\n    // gets file hash variable from struct\n    function getFileHash() public view returns (string memory) {\n        return file.fileHash;\n    }\n}\n\ncontract Book is IPFS{\n    //Model a Book\n    struct book{\n        address payable seller; //seller wallet id\n        string title; //book Title\n        bool physical; // 0 = no, 1 = yes\n        string hash;\n        uint price; // price of the book\n    }\n\n    //state variables/ contracts\n    book item;\n    //variables and functions to set an amount an item is for sale\n\n    //rewrite addBook as constructor for a single book\n    //constructor(address payable _seller, string memory _bookTitle, bool ePfd, uint _price) public {\n    //    item.seller = _seller;\n    //    item.title = _bookTitle;\n    //    item.physical = ePfd;\n    //    item.price = _price;\n    //}\n\n    //Set-Get fxns\n\n    // Set seller variable\n    function setSeller(address payable _seller) external{\n        item.seller = _seller;\n    }\n\n    function getSeller() external view returns(address payable){\n        return item.seller;\n    }\n\n    // Set title variable\n    function setTitle(string memory _title) external{\n        item.title = _title;\n    }\n\n    // Set Hash variable\n    function setHash(string memory _hash) external{\n        item.hash = _hash;\n    }\n\n\n    // Get physical variable\n    function getHash() external view returns(string memory){\n        return item.hash;\n    }\n\n    // Set physical variable\n    function setPhysical(bool _phys) external{\n        item.physical = _phys;\n    }\n\n    // Set price variables\n    function setPrice(uint _price) external{\n        item.price = _price;\n    }\n\n    function getPrice() external view returns(uint){\n        return item.price;\n    }\n\n    // correspond with external script to upload the book and file\n    // use with an IPFS node\n    function uploadBook(string memory _hash, uint _size) public {\n        uploadFile(_hash, _size);\n        item.hash = _hash;\n    }\n\n    function getFile() private view returns (string memory) {\n        return item.hash;\n    }\n\n    //the book contract could handle the IPFS transfers and security if needed\n\n\n    // check for how to do security\n}",
  "sourcePath": "/home/june/Documents/UNT/CSCE 4575/project files/Blockchain_bookstore/contracts/Book.sol",
  "compiler": {
    "name": "solc",
    "version": "0.8.10+commit.fc410830.Emscripten.clang"
  },
  "schemaVersion": "3.4.3",
  "updatedAt": "2021-11-20T01:45:03.606Z",
  "devdoc": {
    "kind": "dev",
    "methods": {},
    "version": 1
  },
  "userdoc": {
    "kind": "user",
    "methods": {},
    "version": 1
  }
}